{
  "contractName": "AtomicSwap",
  "abi": [
    {
      "anonymous": false,
      "inputs": [
        {
          "indexed": true,
          "name": "_swapID",
          "type": "bytes32"
        },
        {
          "indexed": false,
          "name": "_swappee",
          "type": "address"
        },
        {
          "indexed": false,
          "name": "_hash",
          "type": "bytes32"
        }
      ],
      "name": "Open",
      "type": "event"
    },
    {
      "anonymous": false,
      "inputs": [
        {
          "indexed": true,
          "name": "_swapID",
          "type": "bytes32"
        }
      ],
      "name": "Expire",
      "type": "event"
    },
    {
      "anonymous": false,
      "inputs": [
        {
          "indexed": true,
          "name": "_swapID",
          "type": "bytes32"
        },
        {
          "indexed": false,
          "name": "_preimage",
          "type": "bytes"
        }
      ],
      "name": "Close",
      "type": "event"
    },
    {
      "anonymous": false,
      "inputs": [
        {
          "indexed": true,
          "name": "_swapID",
          "type": "bytes32"
        },
        {
          "indexed": false,
          "name": "_counterXAddress",
          "type": "string"
        }
      ],
      "name": "Accept",
      "type": "event"
    },
    {
      "constant": false,
      "inputs": [
        {
          "name": "_swapID",
          "type": "bytes32"
        },
        {
          "name": "_tokenValue",
          "type": "uint256"
        },
        {
          "name": "_tokenAddress",
          "type": "address"
        },
        {
          "name": "_swappee",
          "type": "address"
        },
        {
          "name": "_hash",
          "type": "bytes32"
        },
        {
          "name": "_timelock",
          "type": "uint256"
        },
        {
          "name": "_xAddress",
          "type": "string"
        }
      ],
      "name": "open",
      "outputs": [],
      "payable": false,
      "stateMutability": "nonpayable",
      "type": "function"
    },
    {
      "constant": false,
      "inputs": [
        {
          "name": "_swapID",
          "type": "bytes32"
        },
        {
          "name": "_counterXAddress",
          "type": "string"
        }
      ],
      "name": "accept",
      "outputs": [],
      "payable": false,
      "stateMutability": "nonpayable",
      "type": "function"
    },
    {
      "constant": false,
      "inputs": [
        {
          "name": "_swapID",
          "type": "bytes32"
        },
        {
          "name": "_preimage",
          "type": "bytes"
        }
      ],
      "name": "close",
      "outputs": [],
      "payable": false,
      "stateMutability": "nonpayable",
      "type": "function"
    },
    {
      "constant": false,
      "inputs": [
        {
          "name": "_swapID",
          "type": "bytes32"
        }
      ],
      "name": "expire",
      "outputs": [],
      "payable": false,
      "stateMutability": "nonpayable",
      "type": "function"
    },
    {
      "constant": true,
      "inputs": [
        {
          "name": "_swapID",
          "type": "bytes32"
        }
      ],
      "name": "getSwap",
      "outputs": [
        {
          "name": "timelock",
          "type": "uint256"
        },
        {
          "name": "tokenValue",
          "type": "uint256"
        },
        {
          "name": "tokenAddress",
          "type": "address"
        },
        {
          "name": "swappee",
          "type": "address"
        },
        {
          "name": "hash",
          "type": "bytes32"
        },
        {
          "name": "xAddress",
          "type": "string"
        },
        {
          "name": "states",
          "type": "uint8"
        },
        {
          "name": "counterXAddress",
          "type": "string"
        }
      ],
      "payable": false,
      "stateMutability": "view",
      "type": "function"
    },
    {
      "constant": true,
      "inputs": [
        {
          "name": "_swapID",
          "type": "bytes32"
        }
      ],
      "name": "getPreimage",
      "outputs": [
        {
          "name": "preimage",
          "type": "bytes"
        }
      ],
      "payable": false,
      "stateMutability": "view",
      "type": "function"
    }
  ],
  "bytecode": "0x608060405234801561001057600080fd5b50612713806100206000396000f300608060405260043610610078576000357c0100000000000000000000000000000000000000000000000000000000900463ffffffff1680630f622b041461007d5780631948d0f6146101275780631a26720c146102005780633da0e66e1461027757806383751cfd14610425578063c64417981461049c575b600080fd5b34801561008957600080fd5b506100ac60048036038101908080356000191690602001909291905050506104cd565b6040518080602001828103825283818151815260200191508051906020019080838360005b838110156100ec5780820151818401526020810190506100d1565b50505050905090810190601f1680156101195780820380516001836020036101000a031916815260200191505b509250505060405180910390f35b34801561013357600080fd5b506101fe600480360381019080803560001916906020019092919080359060200190929190803573ffffffffffffffffffffffffffffffffffffffff169060200190929190803573ffffffffffffffffffffffffffffffffffffffff169060200190929190803560001916906020019092919080359060200190929190803590602001908201803590602001908080601f01602080910402602001604051908101604052809392919081815260200183838082843782019150505050505091929192905050506108d3565b005b34801561020c57600080fd5b506102756004803603810190808035600019169060200190929190803590602001908201803590602001908080601f0160208091040260200160405190810160405280939291908181526020018383808284378201915050505050509192919290505050610fc0565b005b34801561028357600080fd5b506102a66004803603810190808035600019169060200190929190505050611771565b604051808981526020018881526020018773ffffffffffffffffffffffffffffffffffffffff1673ffffffffffffffffffffffffffffffffffffffff1681526020018673ffffffffffffffffffffffffffffffffffffffff1673ffffffffffffffffffffffffffffffffffffffff16815260200185600019166000191681526020018060200184600381111561033857fe5b60ff16815260200180602001838103835286818151815260200191508051906020019080838360005b8381101561037c578082015181840152602081019050610361565b50505050905090810190601f1680156103a95780820380516001836020036101000a031916815260200191505b50838103825284818151815260200191508051906020019080838360005b838110156103e25780820151818401526020810190506103c7565b50505050905090810190601f16801561040f5780820380516001836020036101000a031916815260200191505b509a505050505050505050505060405180910390f35b34801561043157600080fd5b5061049a6004803603810190808035600019169060200190929190803590602001908201803590602001908080601f0160208091040260200160405190810160405280939291908181526020018383808284378201915050505050509192919290505050611b33565b005b3480156104a857600080fd5b506104cb6004803603810190808035600019169060200190929190505050611da6565b005b60606104d7612430565b82600260038111156104e557fe5b60016000836000191660001916815260200190815260200160002060009054906101000a900460ff16600381111561051957fe5b14151561058e576040517f08c379a00000000000000000000000000000000000000000000000000000000081526004018080602001828103825260198152602001807f53776170207374617465206d75737420626520434c4f5345440000000000000081525060200191505060405180910390fd5b6000808560001916600019168152602001908152602001600020610120604051908101604052908160008201548152602001600182015481526020016002820160009054906101000a900473ffffffffffffffffffffffffffffffffffffffff1673ffffffffffffffffffffffffffffffffffffffff1673ffffffffffffffffffffffffffffffffffffffff1681526020016003820160009054906101000a900473ffffffffffffffffffffffffffffffffffffffff1673ffffffffffffffffffffffffffffffffffffffff1673ffffffffffffffffffffffffffffffffffffffff1681526020016004820160009054906101000a900473ffffffffffffffffffffffffffffffffffffffff1673ffffffffffffffffffffffffffffffffffffffff1673ffffffffffffffffffffffffffffffffffffffff168152602001600582015460001916600019168152602001600682018054600181600116156101000203166002900480601f0160208091040260200160405190810160405280929190818152602001828054600181600116156101000203166002900480156107765780601f1061074b57610100808354040283529160200191610776565b820191906000526020600020905b81548152906001019060200180831161075957829003601f168201915b50505050508152602001600782018054600181600116156101000203166002900480601f0160208091040260200160405190810160405280929190818152602001828054600181600116156101000203166002900480156108185780601f106107ed57610100808354040283529160200191610818565b820191906000526020600020905b8154815290600101906020018083116107fb57829003601f168201915b50505050508152602001600882018054600181600116156101000203166002900480601f0160208091040260200160405190810160405280929190818152602001828054600181600116156101000203166002900480156108ba5780601f1061088f576101008083540402835291602001916108ba565b820191906000526020600020905b81548152906001019060200180831161089d57829003601f168201915b50505050508152505091508160c0015192505050919050565b60006108dd612430565b88600060038111156108eb57fe5b60016000836000191660001916815260200190815260200160002060009054906101000a900460ff16600381111561091f57fe5b141515610994576040517f08c379a000000000000000000000000000000000000000000000000000000000815260040180806020018281038252601a8152602001807f53776170207374617465206d75737420626520494e56414c494400000000000081525060200191505060405180910390fd5b8792508273ffffffffffffffffffffffffffffffffffffffff1663dd62ed3e33306040518363ffffffff167c0100000000000000000000000000000000000000000000000000000000028152600401808373ffffffffffffffffffffffffffffffffffffffff1673ffffffffffffffffffffffffffffffffffffffff1681526020018273ffffffffffffffffffffffffffffffffffffffff1673ffffffffffffffffffffffffffffffffffffffff16815260200192505050602060405180830381600087803b158015610a6657600080fd5b505af1158015610a7a573d6000803e3d6000fd5b505050506040513d6020811015610a9057600080fd5b81019080805190602001909291905050508911151515610b3e576040517f08c379a000000000000000000000000000000000000000000000000000000000815260040180806020018281038252602d8152602001807f56616c7565206d757374206265206c657373207468616e206f7220657175616c81526020017f20746f20616c6c6f77616e63650000000000000000000000000000000000000081525060400191505060405180910390fd5b8273ffffffffffffffffffffffffffffffffffffffff166323b872dd33308c6040518463ffffffff167c0100000000000000000000000000000000000000000000000000000000028152600401808473ffffffffffffffffffffffffffffffffffffffff1673ffffffffffffffffffffffffffffffffffffffff1681526020018373ffffffffffffffffffffffffffffffffffffffff1673ffffffffffffffffffffffffffffffffffffffff1681526020018281526020019350505050602060405180830381600087803b158015610c1557600080fd5b505af1158015610c29573d6000803e3d6000fd5b505050506040513d6020811015610c3f57600080fd5b81019080805190602001909291905050501515610cc4576040517f08c379a000000000000000000000000000000000000000000000000000000000815260040180806020018281038252600f8152602001807f5472616e73666572206661696c6564000000000000000000000000000000000081525060200191505060405180910390fd5b610120604051908101604052808681526020018a81526020013373ffffffffffffffffffffffffffffffffffffffff1681526020018973ffffffffffffffffffffffffffffffffffffffff1681526020018873ffffffffffffffffffffffffffffffffffffffff1681526020018760001916815260200160006040519080825280601f01601f191660200182016040528015610d6f5781602001602082028038833980820191505090505b50815260200185815260200160206040519081016040528060008152508152509150816000808c60001916600019168152602001908152602001600020600082015181600001556020820151816001015560408201518160020160006101000a81548173ffffffffffffffffffffffffffffffffffffffff021916908373ffffffffffffffffffffffffffffffffffffffff16021790555060608201518160030160006101000a81548173ffffffffffffffffffffffffffffffffffffffff021916908373ffffffffffffffffffffffffffffffffffffffff16021790555060808201518160040160006101000a81548173ffffffffffffffffffffffffffffffffffffffff021916908373ffffffffffffffffffffffffffffffffffffffff16021790555060a0820151816005019060001916905560c0820151816006019080519060200190610ec19291906124c2565b5060e0820151816007019080519060200190610ede929190612542565b50610100820151816008019080519060200190610efc929190612542565b5090505060018060008c6000191660001916815260200190815260200160002060006101000a81548160ff02191690836003811115610f3757fe5b021790555089600019167f6ed79a08bf5c8a7d4a330df315e4ac386627ecafbe5d2bfd6654237d967b24f38888604051808373ffffffffffffffffffffffffffffffffffffffff1673ffffffffffffffffffffffffffffffffffffffff16815260200182600019166000191681526020019250505060405180910390a250505050505050505050565b610fc8612430565b60008360016003811115610fd857fe5b60016000836000191660001916815260200190815260200160002060009054906101000a900460ff16600381111561100c57fe5b141515611081576040517f08c379a00000000000000000000000000000000000000000000000000000000081526004018080602001828103825260178152602001807f53776170207374617465206d757374206265204f50454e00000000000000000081525060200191505060405180910390fd5b84846002816040518082805190602001908083835b6020831015156110bb5780518252602082019150602081019050602083039250611096565b6001836020036101000a0380198251168184511680821785525050505050509050019150506020604051808303816000865af11580156110ff573d6000803e3d6000fd5b5050506040513d602081101561111457600080fd5b810190808051906020019092919050505060001916600080846000191660001916815260200190815260200160002060050154600019161415156111c0576040517f08c379a00000000000000000000000000000000000000000000000000000000081526004018080602001828103825260158152602001807f53776170206d757374206861766520736563726574000000000000000000000081525060200191505060405180910390fd5b6000808860001916600019168152602001908152602001600020610120604051908101604052908160008201548152602001600182015481526020016002820160009054906101000a900473ffffffffffffffffffffffffffffffffffffffff1673ffffffffffffffffffffffffffffffffffffffff1673ffffffffffffffffffffffffffffffffffffffff1681526020016003820160009054906101000a900473ffffffffffffffffffffffffffffffffffffffff1673ffffffffffffffffffffffffffffffffffffffff1673ffffffffffffffffffffffffffffffffffffffff1681526020016004820160009054906101000a900473ffffffffffffffffffffffffffffffffffffffff1673ffffffffffffffffffffffffffffffffffffffff1673ffffffffffffffffffffffffffffffffffffffff168152602001600582015460001916600019168152602001600682018054600181600116156101000203166002900480601f0160208091040260200160405190810160405280929190818152602001828054600181600116156101000203166002900480156113a85780601f1061137d576101008083540402835291602001916113a8565b820191906000526020600020905b81548152906001019060200180831161138b57829003601f168201915b50505050508152602001600782018054600181600116156101000203166002900480601f01602080910402602001604051908101604052809291908181526020018280546001816001161561010002031660029004801561144a5780601f1061141f5761010080835404028352916020019161144a565b820191906000526020600020905b81548152906001019060200180831161142d57829003601f168201915b50505050508152602001600882018054600181600116156101000203166002900480601f0160208091040260200160405190810160405280929190818152602001828054600181600116156101000203166002900480156114ec5780601f106114c1576101008083540402835291602001916114ec565b820191906000526020600020905b8154815290600101906020018083116114cf57829003601f168201915b505050505081525050945085600080896000191660001916815260200190815260200160002060060190805190602001906115289291906125c2565b50600260016000896000191660001916815260200190815260200160002060006101000a81548160ff0219169083600381111561156157fe5b0217905550846060015193508373ffffffffffffffffffffffffffffffffffffffff1663a9059cbb866080015187602001516040518363ffffffff167c0100000000000000000000000000000000000000000000000000000000028152600401808373ffffffffffffffffffffffffffffffffffffffff1673ffffffffffffffffffffffffffffffffffffffff16815260200182815260200192505050602060405180830381600087803b15801561161857600080fd5b505af115801561162c573d6000803e3d6000fd5b505050506040513d602081101561164257600080fd5b810190808051906020019092919050505015156116c7576040517f08c379a000000000000000000000000000000000000000000000000000000000815260040180806020018281038252600f8152602001807f5472616e73666572206661696c6564000000000000000000000000000000000081525060200191505060405180910390fd5b86600019167f692fd10a275135b9a2a2f5819db3d9965a5129ea2ad3640a0156dbce2fc81bdd876040518080602001828103825283818151815260200191508051906020019080838360005b8381101561172e578082015181840152602081019050611713565b50505050905090810190601f16801561175b5780820380516001836020036101000a031916815260200191505b509250505060405180910390a250505050505050565b60008060008060006060600060606000611789612430565b600160008c6000191660001916815260200190815260200160002060009054906101000a900460ff1691506000808c60001916600019168152602001908152602001600020610120604051908101604052908160008201548152602001600182015481526020016002820160009054906101000a900473ffffffffffffffffffffffffffffffffffffffff1673ffffffffffffffffffffffffffffffffffffffff1673ffffffffffffffffffffffffffffffffffffffff1681526020016003820160009054906101000a900473ffffffffffffffffffffffffffffffffffffffff1673ffffffffffffffffffffffffffffffffffffffff1673ffffffffffffffffffffffffffffffffffffffff1681526020016004820160009054906101000a900473ffffffffffffffffffffffffffffffffffffffff1673ffffffffffffffffffffffffffffffffffffffff1673ffffffffffffffffffffffffffffffffffffffff168152602001600582015460001916600019168152602001600682018054600181600116156101000203166002900480601f01602080910402602001604051908101604052809291908181526020018280546001816001161561010002031660029004801561199c5780601f106119715761010080835404028352916020019161199c565b820191906000526020600020905b81548152906001019060200180831161197f57829003601f168201915b50505050508152602001600782018054600181600116156101000203166002900480601f016020809104026020016040519081016040528092919081815260200182805460018160011615610100020316600290048015611a3e5780601f10611a1357610100808354040283529160200191611a3e565b820191906000526020600020905b815481529060010190602001808311611a2157829003601f168201915b50505050508152602001600882018054600181600116156101000203166002900480601f016020809104026020016040519081016040528092919081815260200182805460018160011615610100020316600290048015611ae05780601f10611ab557610100808354040283529160200191611ae0565b820191906000526020600020905b815481529060010190602001808311611ac357829003601f168201915b505050505081525050905080600001518160200151826060015183608001518460a001518560e0015187876101000151829250809050995099509950995099509950995099505050919395975091939597565b8160016003811115611b4157fe5b60016000836000191660001916815260200190815260200160002060009054906101000a900460ff166003811115611b7557fe5b141515611bea576040517f08c379a00000000000000000000000000000000000000000000000000000000081526004018080602001828103825260178152602001807f53776170207374617465206d757374206265204f50454e00000000000000000081525060200191505060405180910390fd5b82338073ffffffffffffffffffffffffffffffffffffffff16600080846000191660001916815260200190815260200160002060040160009054906101000a900473ffffffffffffffffffffffffffffffffffffffff1673ffffffffffffffffffffffffffffffffffffffff16141515611ccc576040517f08c379a00000000000000000000000000000000000000000000000000000000081526004018080602001828103825260168152602001807f43616c6c6564206d75737420626520737761707065650000000000000000000081525060200191505060405180910390fd5b8360008087600019166000191681526020019081526020016000206008019080519060200190611cfd929190612642565b5084600019167f4a45beed9ce9237ed9dd5d5eb6849718a91579f08bd13b6c614f22994147dd48856040518080602001828103825283818151815260200191508051906020019080838360005b83811015611d65578082015181840152602081019050611d4a565b50505050905090810190601f168015611d925780820380516001836020036101000a031916815260200191505b509250505060405180910390a25050505050565b611dae612430565b60008260016003811115611dbe57fe5b60016000836000191660001916815260200190815260200160002060009054906101000a900460ff166003811115611df257fe5b141515611e67576040517f08c379a00000000000000000000000000000000000000000000000000000000081526004018080602001828103825260178152602001807f53776170207374617465206d757374206265204f50454e00000000000000000081525060200191505060405180910390fd5b834260008083600019166000191681526020019081526020016000206000015411151515611f23576040517f08c379a000000000000000000000000000000000000000000000000000000000815260040180806020018281038252602f8152602001807f537761702074696d656c6f636b206d757374206265206c657373207468616e2081526020017f6f7220657175616c20746f204e4f57000000000000000000000000000000000081525060400191505060405180910390fd5b6000808660001916600019168152602001908152602001600020610120604051908101604052908160008201548152602001600182015481526020016002820160009054906101000a900473ffffffffffffffffffffffffffffffffffffffff1673ffffffffffffffffffffffffffffffffffffffff1673ffffffffffffffffffffffffffffffffffffffff1681526020016003820160009054906101000a900473ffffffffffffffffffffffffffffffffffffffff1673ffffffffffffffffffffffffffffffffffffffff1673ffffffffffffffffffffffffffffffffffffffff1681526020016004820160009054906101000a900473ffffffffffffffffffffffffffffffffffffffff1673ffffffffffffffffffffffffffffffffffffffff1673ffffffffffffffffffffffffffffffffffffffff168152602001600582015460001916600019168152602001600682018054600181600116156101000203166002900480601f01602080910402602001604051908101604052809291908181526020018280546001816001161561010002031660029004801561210b5780601f106120e05761010080835404028352916020019161210b565b820191906000526020600020905b8154815290600101906020018083116120ee57829003601f168201915b50505050508152602001600782018054600181600116156101000203166002900480601f0160208091040260200160405190810160405280929190818152602001828054600181600116156101000203166002900480156121ad5780601f10612182576101008083540402835291602001916121ad565b820191906000526020600020905b81548152906001019060200180831161219057829003601f168201915b50505050508152602001600882018054600181600116156101000203166002900480601f01602080910402602001604051908101604052809291908181526020018280546001816001161561010002031660029004801561224f5780601f106122245761010080835404028352916020019161224f565b820191906000526020600020905b81548152906001019060200180831161223257829003601f168201915b5050505050815250509350600360016000876000191660001916815260200190815260200160002060006101000a81548160ff0219169083600381111561229257fe5b0217905550836060015192508273ffffffffffffffffffffffffffffffffffffffff1663a9059cbb856040015186602001516040518363ffffffff167c0100000000000000000000000000000000000000000000000000000000028152600401808373ffffffffffffffffffffffffffffffffffffffff1673ffffffffffffffffffffffffffffffffffffffff16815260200182815260200192505050602060405180830381600087803b15801561234957600080fd5b505af115801561235d573d6000803e3d6000fd5b505050506040513d602081101561237357600080fd5b810190808051906020019092919050505015156123f8576040517f08c379a000000000000000000000000000000000000000000000000000000000815260040180806020018281038252600f8152602001807f5472616e73666572206661696c6564000000000000000000000000000000000081525060200191505060405180910390fd5b84600019167fbddd9b693ea862fad6ecf78fd51c065be26fda94d1f3cad3a7d691453a38a73560405160405180910390a25050505050565b610120604051908101604052806000815260200160008152602001600073ffffffffffffffffffffffffffffffffffffffff168152602001600073ffffffffffffffffffffffffffffffffffffffff168152602001600073ffffffffffffffffffffffffffffffffffffffff168152602001600080191681526020016060815260200160608152602001606081525090565b828054600181600116156101000203166002900490600052602060002090601f016020900481019282601f1061250357805160ff1916838001178555612531565b82800160010185558215612531579182015b82811115612530578251825591602001919060010190612515565b5b50905061253e91906126c2565b5090565b828054600181600116156101000203166002900490600052602060002090601f016020900481019282601f1061258357805160ff19168380011785556125b1565b828001600101855582156125b1579182015b828111156125b0578251825591602001919060010190612595565b5b5090506125be91906126c2565b5090565b828054600181600116156101000203166002900490600052602060002090601f016020900481019282601f1061260357805160ff1916838001178555612631565b82800160010185558215612631579182015b82811115612630578251825591602001919060010190612615565b5b50905061263e91906126c2565b5090565b828054600181600116156101000203166002900490600052602060002090601f016020900481019282601f1061268357805160ff19168380011785556126b1565b828001600101855582156126b1579182015b828111156126b0578251825591602001919060010190612695565b5b5090506126be91906126c2565b5090565b6126e491905b808211156126e05760008160009055506001016126c8565b5090565b905600a165627a7a723058204d420fcc59b296e42bd0b38dac441dcd3cde622ac9d0ba9824f90aade16a19cc0029",
  "source": "pragma solidity ^0.4.23;\n\nimport \"zeppelin-solidity/contracts/token/ERC20/ERC20.sol\";\n\ncontract AtomicSwap {\n    struct Swap {\n        uint256 timelock;\n        uint256 tokenValue;\n        address swapper;\n        address tokenAddress;\n        address swappee;\n        bytes32 hash;\n        bytes preimage;\n        string xAddress;\n        string counterXAddress;\n    }\n\n    enum States {\n        INVALID,\n        OPEN,\n        CLOSED,\n        EXPIRED\n    }\n\n    mapping (bytes32 => Swap) private swaps;\n    mapping (bytes32 => States) private swapStates;\n\n    event Open(bytes32 indexed _swapID, address _swappee, bytes32 _hash);\n    event Expire(bytes32 indexed _swapID);\n    event Close(bytes32 indexed _swapID, bytes _preimage);\n    event Accept(bytes32 indexed _swapID, string _counterXAddress);\n\n    modifier onlyInvalidSwaps(bytes32 _swapID) {\n        require (swapStates[_swapID] == States.INVALID, \"Swap state must be INVALID\");\n        _;\n    }\n\n    modifier onlyOpenSwaps(bytes32 _swapID) {\n        require (swapStates[_swapID] == States.OPEN, \"Swap state must be OPEN\");\n        _;\n    }\n\n    modifier onlyClosedSwaps(bytes32 _swapID) {\n        require (swapStates[_swapID] == States.CLOSED, \"Swap state must be CLOSED\");\n        _;\n    }\n\n    modifier onlyExpirableSwaps(bytes32 _swapID) {\n        require (swaps[_swapID].timelock <= now, \"Swap timelock must be less than or equal to NOW\");\n        _;\n    }\n\n    modifier onlyWithPreimage(bytes32 _swapID, bytes _preimage) {\n        require (swaps[_swapID].hash == sha256(_preimage), \"Swap must have secret\");\n        _;\n    }\n\n    modifier onlySwappee(bytes32 _swapID, address _swappee) {\n        require (swaps[_swapID].swappee == _swappee, \"Called must be swappee\");\n        _;\n    }\n\n    function open(bytes32 _swapID, uint256 _tokenValue, address _tokenAddress, address _swappee, bytes32 _hash, uint256 _timelock, string _xAddress) public onlyInvalidSwaps(_swapID) {\n        // Transfer value from the swapper to this contract.\n        ERC20 erc20Contract = ERC20(_tokenAddress);\n        require(_tokenValue <= erc20Contract.allowance(msg.sender, address(this)), \"Value must be less than or equal to allowance\");\n        require(erc20Contract.transferFrom(msg.sender, address(this), _tokenValue), \"Transfer failed\");\n\n        // Store the details of the swap.\n        Swap memory swap = Swap({\n            timelock: _timelock,\n            tokenValue: _tokenValue,\n            swapper: msg.sender,\n            tokenAddress: _tokenAddress,\n            swappee: _swappee,\n            hash: _hash,\n            preimage: new bytes(0),\n            xAddress: _xAddress,\n            counterXAddress: \"\"\n        });\n        swaps[_swapID] = swap;\n        swapStates[_swapID] = States.OPEN;\n        emit Open(_swapID, _swappee, _hash);\n    }\n\n    function accept(bytes32 _swapID, string _counterXAddress) public onlyOpenSwaps(_swapID) onlySwappee(_swapID, msg.sender) {\n        swaps[_swapID].counterXAddress = _counterXAddress;\n        emit Accept(_swapID, _counterXAddress);\n    }\n\n    function close(bytes32 _swapID, bytes _preimage) public onlyOpenSwaps(_swapID) onlyWithPreimage(_swapID, _preimage) {\n        // Close the swap.\n        Swap memory swap = swaps[_swapID];\n        swaps[_swapID].preimage = _preimage;\n        swapStates[_swapID] = States.CLOSED;\n\n        // Transfer the token value from this contract to the swappee.\n        ERC20 erc20Contract = ERC20(swap.tokenAddress);\n        require(erc20Contract.transfer(swap.swappee, swap.tokenValue), \"Transfer failed\");\n\n        emit Close(_swapID, _preimage);\n    }\n\n    function expire(bytes32 _swapID) public onlyOpenSwaps(_swapID) onlyExpirableSwaps(_swapID) {\n        // Expire the swap.\n        Swap memory swap = swaps[_swapID];\n        swapStates[_swapID] = States.EXPIRED;\n\n        // Transfer the token value from this contract back to the swapper.\n        ERC20 erc20Contract = ERC20(swap.tokenAddress);\n        require(erc20Contract.transfer(swap.swapper, swap.tokenValue), \"Transfer failed\");\n\n        emit Expire(_swapID);\n    }\n\n    function getSwap(bytes32 _swapID) public view returns (uint256 timelock, uint256 tokenValue, address tokenAddress, address swappee, bytes32 hash, string xAddress, AtomicSwap.States states, string counterXAddress) {\n        AtomicSwap.States _state = swapStates[_swapID];\n        Swap memory swap = swaps[_swapID];\n        return (swap.timelock, swap.tokenValue, swap.tokenAddress, swap.swappee, swap.hash, swap.xAddress, _state, swap.counterXAddress);\n    }\n\n    function getPreimage(bytes32 _swapID) public view onlyClosedSwaps(_swapID) returns (bytes preimage) {\n        Swap memory swap = swaps[_swapID];\n        return swap.preimage;\n    }\n}",
  "sourcePath": "/Users/rossmcewan/Source/Dala/toa/blockchains/ethereum/contracts/AtomicSwap.sol",
  "compiler": {
    "name": "solc",
    "version": "0.4.24+commit.e67f0147.Emscripten.clang"
  },
  "schemaVersion": "2.0.1",
  "updatedAt": "2018-08-16T10:58:03.351Z"
}