{
  "contractName": "AtomicSwap",
  "abi": [
    {
      "anonymous": false,
      "inputs": [
        {
          "indexed": false,
          "name": "_swapID",
          "type": "bytes32"
        },
        {
          "indexed": false,
          "name": "_swappee",
          "type": "address"
        },
        {
          "indexed": false,
          "name": "_hash",
          "type": "bytes32"
        }
      ],
      "name": "Open",
      "type": "event"
    },
    {
      "anonymous": false,
      "inputs": [
        {
          "indexed": false,
          "name": "_swapID",
          "type": "bytes32"
        }
      ],
      "name": "Expire",
      "type": "event"
    },
    {
      "anonymous": false,
      "inputs": [
        {
          "indexed": false,
          "name": "_swapID",
          "type": "bytes32"
        },
        {
          "indexed": false,
          "name": "_preimage",
          "type": "bytes"
        }
      ],
      "name": "Close",
      "type": "event"
    },
    {
      "constant": false,
      "inputs": [
        {
          "name": "_swapID",
          "type": "bytes32"
        },
        {
          "name": "_tokenValue",
          "type": "uint256"
        },
        {
          "name": "_tokenAddress",
          "type": "address"
        },
        {
          "name": "_swappee",
          "type": "address"
        },
        {
          "name": "_hash",
          "type": "bytes32"
        },
        {
          "name": "_timelock",
          "type": "uint256"
        }
      ],
      "name": "open",
      "outputs": [],
      "payable": false,
      "stateMutability": "nonpayable",
      "type": "function"
    },
    {
      "constant": false,
      "inputs": [
        {
          "name": "_swapID",
          "type": "bytes32"
        },
        {
          "name": "_preimage",
          "type": "bytes"
        }
      ],
      "name": "close",
      "outputs": [],
      "payable": false,
      "stateMutability": "nonpayable",
      "type": "function"
    },
    {
      "constant": false,
      "inputs": [
        {
          "name": "_swapID",
          "type": "bytes32"
        }
      ],
      "name": "expire",
      "outputs": [],
      "payable": false,
      "stateMutability": "nonpayable",
      "type": "function"
    },
    {
      "constant": true,
      "inputs": [
        {
          "name": "_swapID",
          "type": "bytes32"
        }
      ],
      "name": "check",
      "outputs": [
        {
          "name": "timelock",
          "type": "uint256"
        },
        {
          "name": "tokenValue",
          "type": "uint256"
        },
        {
          "name": "tokenAddress",
          "type": "address"
        },
        {
          "name": "swappee",
          "type": "address"
        },
        {
          "name": "hash",
          "type": "bytes32"
        }
      ],
      "payable": false,
      "stateMutability": "view",
      "type": "function"
    },
    {
      "constant": true,
      "inputs": [
        {
          "name": "_swapID",
          "type": "bytes32"
        }
      ],
      "name": "checkSecretKey",
      "outputs": [
        {
          "name": "preimage",
          "type": "bytes"
        }
      ],
      "payable": false,
      "stateMutability": "view",
      "type": "function"
    }
  ],
  "bytecode": "0x608060405234801561001057600080fd5b50611cfb806100206000396000f30060806040526004361061006d576000357c0100000000000000000000000000000000000000000000000000000000900463ffffffff1680631a26720c14610072578063399e0792146100e95780635d44011e146101aa578063c64417981461023d578063f200e4041461026e575b600080fd5b34801561007e57600080fd5b506100e76004803603810190808035600019169060200190929190803590602001908201803590602001908080601f0160208091040260200160405190810160405280939291908181526020018383808284378201915050505050509192919290505050610318565b005b3480156100f557600080fd5b50610118600480360381019080803560001916906020019092919050505061098f565b604051808681526020018581526020018473ffffffffffffffffffffffffffffffffffffffff1673ffffffffffffffffffffffffffffffffffffffff1681526020018373ffffffffffffffffffffffffffffffffffffffff1673ffffffffffffffffffffffffffffffffffffffff16815260200182600019166000191681526020019550505050505060405180910390f35b3480156101b657600080fd5b5061023b600480360381019080803560001916906020019092919080359060200190929190803573ffffffffffffffffffffffffffffffffffffffff169060200190929190803573ffffffffffffffffffffffffffffffffffffffff169060200190929190803560001916906020019092919080359060200190929190505050610bbe565b005b34801561024957600080fd5b5061026c6004803603810190808035600019169060200190929190505050611313565b005b34801561027a57600080fd5b5061029d6004803603810190808035600019169060200190929190505050611866565b6040518080602001828103825283818151815260200191508051906020019080838360005b838110156102dd5780820151818401526020810190506102c2565b50505050905090810190601f16801561030a5780820380516001836020036101000a031916815260200191505b509250505060405180910390f35b610320611b27565b6000836001600381111561033057fe5b60016000836000191660001916815260200190815260200160002060009054906101000a900460ff16600381111561036457fe5b1415156103d9576040517f08c379a00000000000000000000000000000000000000000000000000000000081526004018080602001828103825260178152602001807f53776170207374617465206d757374206265204f50454e00000000000000000081525060200191505060405180910390fd5b84846002816040518082805190602001908083835b60208310151561041357805182526020820191506020810190506020830392506103ee565b6001836020036101000a0380198251168184511680821785525050505050509050019150506020604051808303816000865af1158015610457573d6000803e3d6000fd5b5050506040513d602081101561046c57600080fd5b81019080805190602001909291905050506000191660008084600019166000191681526020019081526020016000206005015460001916141515610518576040517f08c379a00000000000000000000000000000000000000000000000000000000081526004018080602001828103825260158152602001807f53776170206d757374206861766520736563726574000000000000000000000081525060200191505060405180910390fd5b600080886000191660001916815260200190815260200160002060e0604051908101604052908160008201548152602001600182015481526020016002820160009054906101000a900473ffffffffffffffffffffffffffffffffffffffff1673ffffffffffffffffffffffffffffffffffffffff1673ffffffffffffffffffffffffffffffffffffffff1681526020016003820160009054906101000a900473ffffffffffffffffffffffffffffffffffffffff1673ffffffffffffffffffffffffffffffffffffffff1673ffffffffffffffffffffffffffffffffffffffff1681526020016004820160009054906101000a900473ffffffffffffffffffffffffffffffffffffffff1673ffffffffffffffffffffffffffffffffffffffff1673ffffffffffffffffffffffffffffffffffffffff168152602001600582015460001916600019168152602001600682018054600181600116156101000203166002900480601f0160208091040260200160405190810160405280929190818152602001828054600181600116156101000203166002900480156106ff5780601f106106d4576101008083540402835291602001916106ff565b820191906000526020600020905b8154815290600101906020018083116106e257829003601f168201915b5050505050815250509450856000808960001916600019168152602001908152602001600020600601908051906020019061073b929190611baa565b50600260016000896000191660001916815260200190815260200160002060006101000a81548160ff0219169083600381111561077457fe5b0217905550846060015193508373ffffffffffffffffffffffffffffffffffffffff1663a9059cbb866080015187602001516040518363ffffffff167c0100000000000000000000000000000000000000000000000000000000028152600401808373ffffffffffffffffffffffffffffffffffffffff1673ffffffffffffffffffffffffffffffffffffffff16815260200182815260200192505050602060405180830381600087803b15801561082b57600080fd5b505af115801561083f573d6000803e3d6000fd5b505050506040513d602081101561085557600080fd5b810190808051906020019092919050505015156108da576040517f08c379a000000000000000000000000000000000000000000000000000000000815260040180806020018281038252600f8152602001807f5472616e73666572206661696c6564000000000000000000000000000000000081525060200191505060405180910390fd5b7f692fd10a275135b9a2a2f5819db3d9965a5129ea2ad3640a0156dbce2fc81bdd878760405180836000191660001916815260200180602001828103825283818151815260200191508051906020019080838360005b8381101561094b578082015181840152602081019050610930565b50505050905090810190601f1680156109785780820380516001836020036101000a031916815260200191505b50935050505060405180910390a150505050505050565b600080600080600061099f611b27565b600080886000191660001916815260200190815260200160002060e0604051908101604052908160008201548152602001600182015481526020016002820160009054906101000a900473ffffffffffffffffffffffffffffffffffffffff1673ffffffffffffffffffffffffffffffffffffffff1673ffffffffffffffffffffffffffffffffffffffff1681526020016003820160009054906101000a900473ffffffffffffffffffffffffffffffffffffffff1673ffffffffffffffffffffffffffffffffffffffff1673ffffffffffffffffffffffffffffffffffffffff1681526020016004820160009054906101000a900473ffffffffffffffffffffffffffffffffffffffff1673ffffffffffffffffffffffffffffffffffffffff1673ffffffffffffffffffffffffffffffffffffffff168152602001600582015460001916600019168152602001600682018054600181600116156101000203166002900480601f016020809104026020016040519081016040528092919081815260200182805460018160011615610100020316600290048015610b865780601f10610b5b57610100808354040283529160200191610b86565b820191906000526020600020905b815481529060010190602001808311610b6957829003601f168201915b505050505081525050905080600001518160200151826060015183608001518460a00151955095509550955095505091939590929450565b6000610bc8611b27565b8760006003811115610bd657fe5b60016000836000191660001916815260200190815260200160002060009054906101000a900460ff166003811115610c0a57fe5b141515610c7f576040517f08c379a000000000000000000000000000000000000000000000000000000000815260040180806020018281038252601a8152602001807f53776170207374617465206d75737420626520494e56414c494400000000000081525060200191505060405180910390fd5b60006003811115610c8c57fe5b600160008b6000191660001916815260200190815260200160002060009054906101000a900460ff166003811115610cc057fe5b141515610d35576040517f08c379a00000000000000000000000000000000000000000000000000000000081526004018080602001828103825260148152602001807f53776170206d75737420626520494e56414c494400000000000000000000000081525060200191505060405180910390fd5b8692508273ffffffffffffffffffffffffffffffffffffffff1663dd62ed3e33306040518363ffffffff167c0100000000000000000000000000000000000000000000000000000000028152600401808373ffffffffffffffffffffffffffffffffffffffff1673ffffffffffffffffffffffffffffffffffffffff1681526020018273ffffffffffffffffffffffffffffffffffffffff1673ffffffffffffffffffffffffffffffffffffffff16815260200192505050602060405180830381600087803b158015610e0757600080fd5b505af1158015610e1b573d6000803e3d6000fd5b505050506040513d6020811015610e3157600080fd5b81019080805190602001909291905050508811151515610edf576040517f08c379a000000000000000000000000000000000000000000000000000000000815260040180806020018281038252602d8152602001807f56616c7565206d757374206265206c657373207468616e206f7220657175616c81526020017f20746f20616c6c6f77616e63650000000000000000000000000000000000000081525060400191505060405180910390fd5b8273ffffffffffffffffffffffffffffffffffffffff166323b872dd33308b6040518463ffffffff167c0100000000000000000000000000000000000000000000000000000000028152600401808473ffffffffffffffffffffffffffffffffffffffff1673ffffffffffffffffffffffffffffffffffffffff1681526020018373ffffffffffffffffffffffffffffffffffffffff1673ffffffffffffffffffffffffffffffffffffffff1681526020018281526020019350505050602060405180830381600087803b158015610fb657600080fd5b505af1158015610fca573d6000803e3d6000fd5b505050506040513d6020811015610fe057600080fd5b81019080805190602001909291905050501515611065576040517f08c379a000000000000000000000000000000000000000000000000000000000815260040180806020018281038252600f8152602001807f5472616e73666572206661696c6564000000000000000000000000000000000081525060200191505060405180910390fd5b60e0604051908101604052808581526020018981526020013373ffffffffffffffffffffffffffffffffffffffff1681526020018873ffffffffffffffffffffffffffffffffffffffff1681526020018773ffffffffffffffffffffffffffffffffffffffff1681526020018660001916815260200160006040519080825280601f01601f19166020018201604052801561110f5781602001602082028038833980820191505090505b508152509150816000808b60001916600019168152602001908152602001600020600082015181600001556020820151816001015560408201518160020160006101000a81548173ffffffffffffffffffffffffffffffffffffffff021916908373ffffffffffffffffffffffffffffffffffffffff16021790555060608201518160030160006101000a81548173ffffffffffffffffffffffffffffffffffffffff021916908373ffffffffffffffffffffffffffffffffffffffff16021790555060808201518160040160006101000a81548173ffffffffffffffffffffffffffffffffffffffff021916908373ffffffffffffffffffffffffffffffffffffffff16021790555060a0820151816005019060001916905560c0820151816006019080519060200190611245929190611c2a565b5090505060018060008b6000191660001916815260200190815260200160002060006101000a81548160ff0219169083600381111561128057fe5b02179055507f6ed79a08bf5c8a7d4a330df315e4ac386627ecafbe5d2bfd6654237d967b24f38987876040518084600019166000191681526020018373ffffffffffffffffffffffffffffffffffffffff1673ffffffffffffffffffffffffffffffffffffffff1681526020018260001916600019168152602001935050505060405180910390a1505050505050505050565b61131b611b27565b6000826001600381111561132b57fe5b60016000836000191660001916815260200190815260200160002060009054906101000a900460ff16600381111561135f57fe5b1415156113d4576040517f08c379a00000000000000000000000000000000000000000000000000000000081526004018080602001828103825260178152602001807f53776170207374617465206d757374206265204f50454e00000000000000000081525060200191505060405180910390fd5b834260008083600019166000191681526020019081526020016000206000015411151515611490576040517f08c379a000000000000000000000000000000000000000000000000000000000815260040180806020018281038252602f8152602001807f537761702074696d656c6f636b206d757374206265206c657373207468616e2081526020017f6f7220657175616c20746f204e4f57000000000000000000000000000000000081525060400191505060405180910390fd5b600080866000191660001916815260200190815260200160002060e0604051908101604052908160008201548152602001600182015481526020016002820160009054906101000a900473ffffffffffffffffffffffffffffffffffffffff1673ffffffffffffffffffffffffffffffffffffffff1673ffffffffffffffffffffffffffffffffffffffff1681526020016003820160009054906101000a900473ffffffffffffffffffffffffffffffffffffffff1673ffffffffffffffffffffffffffffffffffffffff1673ffffffffffffffffffffffffffffffffffffffff1681526020016004820160009054906101000a900473ffffffffffffffffffffffffffffffffffffffff1673ffffffffffffffffffffffffffffffffffffffff1673ffffffffffffffffffffffffffffffffffffffff168152602001600582015460001916600019168152602001600682018054600181600116156101000203166002900480601f0160208091040260200160405190810160405280929190818152602001828054600181600116156101000203166002900480156116775780601f1061164c57610100808354040283529160200191611677565b820191906000526020600020905b81548152906001019060200180831161165a57829003601f168201915b5050505050815250509350600360016000876000191660001916815260200190815260200160002060006101000a81548160ff021916908360038111156116ba57fe5b0217905550836060015192508273ffffffffffffffffffffffffffffffffffffffff1663a9059cbb856040015186602001516040518363ffffffff167c0100000000000000000000000000000000000000000000000000000000028152600401808373ffffffffffffffffffffffffffffffffffffffff1673ffffffffffffffffffffffffffffffffffffffff16815260200182815260200192505050602060405180830381600087803b15801561177157600080fd5b505af1158015611785573d6000803e3d6000fd5b505050506040513d602081101561179b57600080fd5b81019080805190602001909291905050501515611820576040517f08c379a000000000000000000000000000000000000000000000000000000000815260040180806020018281038252600f8152602001807f5472616e73666572206661696c6564000000000000000000000000000000000081525060200191505060405180910390fd5b7fbddd9b693ea862fad6ecf78fd51c065be26fda94d1f3cad3a7d691453a38a7358560405180826000191660001916815260200191505060405180910390a15050505050565b6060611870611b27565b826002600381111561187e57fe5b60016000836000191660001916815260200190815260200160002060009054906101000a900460ff1660038111156118b257fe5b141515611927576040517f08c379a00000000000000000000000000000000000000000000000000000000081526004018080602001828103825260198152602001807f53776170207374617465206d75737420626520434c4f5345440000000000000081525060200191505060405180910390fd5b600080856000191660001916815260200190815260200160002060e0604051908101604052908160008201548152602001600182015481526020016002820160009054906101000a900473ffffffffffffffffffffffffffffffffffffffff1673ffffffffffffffffffffffffffffffffffffffff1673ffffffffffffffffffffffffffffffffffffffff1681526020016003820160009054906101000a900473ffffffffffffffffffffffffffffffffffffffff1673ffffffffffffffffffffffffffffffffffffffff1673ffffffffffffffffffffffffffffffffffffffff1681526020016004820160009054906101000a900473ffffffffffffffffffffffffffffffffffffffff1673ffffffffffffffffffffffffffffffffffffffff1673ffffffffffffffffffffffffffffffffffffffff168152602001600582015460001916600019168152602001600682018054600181600116156101000203166002900480601f016020809104026020016040519081016040528092919081815260200182805460018160011615610100020316600290048015611b0e5780601f10611ae357610100808354040283529160200191611b0e565b820191906000526020600020905b815481529060010190602001808311611af157829003601f168201915b50505050508152505091508160c0015192505050919050565b60e0604051908101604052806000815260200160008152602001600073ffffffffffffffffffffffffffffffffffffffff168152602001600073ffffffffffffffffffffffffffffffffffffffff168152602001600073ffffffffffffffffffffffffffffffffffffffff16815260200160008019168152602001606081525090565b828054600181600116156101000203166002900490600052602060002090601f016020900481019282601f10611beb57805160ff1916838001178555611c19565b82800160010185558215611c19579182015b82811115611c18578251825591602001919060010190611bfd565b5b509050611c269190611caa565b5090565b828054600181600116156101000203166002900490600052602060002090601f016020900481019282601f10611c6b57805160ff1916838001178555611c99565b82800160010185558215611c99579182015b82811115611c98578251825591602001919060010190611c7d565b5b509050611ca69190611caa565b5090565b611ccc91905b80821115611cc8576000816000905550600101611cb0565b5090565b905600a165627a7a723058209f6de8ebe44e525c8ac9e01196eceddb6ef9ef0c42724730fe8230abfae4a4920029",
  "source": "pragma solidity ^0.4.23;\n\nimport \"zeppelin-solidity/contracts/token/ERC20/ERC20.sol\";\n\ncontract AtomicSwap {\n    struct Swap {\n        uint256 timelock;\n        uint256 tokenValue;\n        address swapper;\n        address tokenAddress;\n        address swappee;\n        bytes32 hash;\n        bytes preimage;\n    }\n\n    enum States {\n        INVALID,\n        OPEN,\n        CLOSED,\n        EXPIRED\n    }\n\n    mapping (bytes32 => Swap) private swaps;\n    mapping (bytes32 => States) private swapStates;\n\n    event Open(bytes32 _swapID, address _swappee,bytes32 _hash);\n    event Expire(bytes32 _swapID);\n    event Close(bytes32 _swapID, bytes _preimage);\n\n    modifier onlyInvalidSwaps(bytes32 _swapID) {\n        require (swapStates[_swapID] == States.INVALID, \"Swap state must be INVALID\");\n        _;\n    }\n\n    modifier onlyOpenSwaps(bytes32 _swapID) {\n        require (swapStates[_swapID] == States.OPEN, \"Swap state must be OPEN\");\n        _;\n    }\n\n    modifier onlyClosedSwaps(bytes32 _swapID) {\n        require (swapStates[_swapID] == States.CLOSED, \"Swap state must be CLOSED\");\n        _;\n    }\n\n    modifier onlyExpirableSwaps(bytes32 _swapID) {\n        require (swaps[_swapID].timelock <= now, \"Swap timelock must be less than or equal to NOW\");\n        _;\n    }\n\n    modifier onlyWithPreimage(bytes32 _swapID, bytes _preimage) {\n        require (swaps[_swapID].hash == sha256(_preimage), \"Swap must have secret\");\n        _;\n    }\n\n    function open(bytes32 _swapID, uint256 _tokenValue, address _tokenAddress, address _swappee, bytes32 _hash, uint256 _timelock) public onlyInvalidSwaps(_swapID) {\n        require(swapStates[_swapID] == States.INVALID, \"Swap must be INVALID\");\n        // Transfer value from the swapper to this contract.\n        ERC20 erc20Contract = ERC20(_tokenAddress);\n        require(_tokenValue <= erc20Contract.allowance(msg.sender, address(this)), \"Value must be less than or equal to allowance\");\n        require(erc20Contract.transferFrom(msg.sender, address(this), _tokenValue), \"Transfer failed\");\n\n        // Store the details of the swap.\n        Swap memory swap = Swap({\n            timelock: _timelock,\n            tokenValue: _tokenValue,\n            swapper: msg.sender,\n            tokenAddress: _tokenAddress,\n            swappee: _swappee,\n            hash: _hash,\n            preimage: new bytes(0)\n        });\n        swaps[_swapID] = swap;\n        swapStates[_swapID] = States.OPEN;\n        emit Open(_swapID, _swappee, _hash);\n    }\n\n    function close(bytes32 _swapID, bytes _preimage) public onlyOpenSwaps(_swapID) onlyWithPreimage(_swapID, _preimage) {\n        // Close the swap.\n        Swap memory swap = swaps[_swapID];\n        swaps[_swapID].preimage = _preimage;\n        swapStates[_swapID] = States.CLOSED;\n\n        // Transfer the token value from this contract to the swappee.\n        ERC20 erc20Contract = ERC20(swap.tokenAddress);\n        require(erc20Contract.transfer(swap.swappee, swap.tokenValue), \"Transfer failed\");\n\n        emit Close(_swapID, _preimage);\n    }\n\n    function expire(bytes32 _swapID) public onlyOpenSwaps(_swapID) onlyExpirableSwaps(_swapID) {\n        // Expire the swap.\n        Swap memory swap = swaps[_swapID];\n        swapStates[_swapID] = States.EXPIRED;\n\n        // Transfer the token value from this contract back to the swapper.\n        ERC20 erc20Contract = ERC20(swap.tokenAddress);\n        require(erc20Contract.transfer(swap.swapper, swap.tokenValue), \"Transfer failed\");\n\n        emit Expire(_swapID);\n    }\n\n    function check(bytes32 _swapID) public view returns (uint256 timelock, uint256 tokenValue, address tokenAddress, address swappee, bytes32 hash) {\n        Swap memory swap = swaps[_swapID];\n        return (swap.timelock, swap.tokenValue, swap.tokenAddress, swap.swappee, swap.hash);\n    }\n\n    function checkSecretKey(bytes32 _swapID) public view onlyClosedSwaps(_swapID) returns (bytes preimage) {\n        Swap memory swap = swaps[_swapID];\n        return swap.preimage;\n    }\n}",
  "sourcePath": "/Users/rossmcewan/Source/Dala/toa/blockchains/ethereum/contracts/AtomicSwap.sol",
  "compiler": {
    "name": "solc",
    "version": "0.4.24+commit.e67f0147.Emscripten.clang"
  },
  "schemaVersion": "2.0.1",
  "updatedAt": "2018-08-10T14:52:22.675Z"
}