{
  "contractName": "AtomicSwap",
  "abi": [
    {
      "constant": true,
      "inputs": [
        {
          "name": "",
          "type": "address"
        },
        {
          "name": "",
          "type": "uint256"
        }
      ],
      "name": "swapsByAddress",
      "outputs": [
        {
          "name": "",
          "type": "bytes32"
        }
      ],
      "payable": false,
      "stateMutability": "view",
      "type": "function"
    },
    {
      "inputs": [
        {
          "name": "_erc20Address",
          "type": "address"
        }
      ],
      "payable": false,
      "stateMutability": "nonpayable",
      "type": "constructor"
    },
    {
      "anonymous": false,
      "inputs": [
        {
          "indexed": true,
          "name": "_swapID",
          "type": "bytes32"
        },
        {
          "indexed": false,
          "name": "_swappee",
          "type": "address"
        },
        {
          "indexed": false,
          "name": "_hash",
          "type": "bytes32"
        }
      ],
      "name": "Open",
      "type": "event"
    },
    {
      "anonymous": false,
      "inputs": [
        {
          "indexed": true,
          "name": "_swapID",
          "type": "bytes32"
        }
      ],
      "name": "Expire",
      "type": "event"
    },
    {
      "anonymous": false,
      "inputs": [
        {
          "indexed": true,
          "name": "_swapID",
          "type": "bytes32"
        },
        {
          "indexed": false,
          "name": "_preimage",
          "type": "bytes"
        }
      ],
      "name": "Close",
      "type": "event"
    },
    {
      "anonymous": false,
      "inputs": [
        {
          "indexed": true,
          "name": "_swapID",
          "type": "bytes32"
        },
        {
          "indexed": false,
          "name": "_holdingAddress",
          "type": "string"
        }
      ],
      "name": "Accept",
      "type": "event"
    },
    {
      "anonymous": false,
      "inputs": [
        {
          "indexed": true,
          "name": "_swapID",
          "type": "bytes32"
        }
      ],
      "name": "Prepare",
      "type": "event"
    },
    {
      "constant": false,
      "inputs": [
        {
          "name": "_operation",
          "type": "uint256"
        },
        {
          "name": "_swapID",
          "type": "bytes32"
        },
        {
          "name": "_tokenValue",
          "type": "uint256"
        },
        {
          "name": "_swappee",
          "type": "address"
        },
        {
          "name": "_hash",
          "type": "bytes32"
        },
        {
          "name": "_timelock",
          "type": "uint256"
        },
        {
          "name": "_swapType",
          "type": "string"
        },
        {
          "name": "_targetAddress",
          "type": "string"
        },
        {
          "name": "_sourceAddress",
          "type": "string"
        }
      ],
      "name": "open",
      "outputs": [],
      "payable": false,
      "stateMutability": "nonpayable",
      "type": "function"
    },
    {
      "constant": false,
      "inputs": [
        {
          "name": "_swapID",
          "type": "bytes32"
        },
        {
          "name": "_targetAddress",
          "type": "string"
        }
      ],
      "name": "accept",
      "outputs": [],
      "payable": false,
      "stateMutability": "nonpayable",
      "type": "function"
    },
    {
      "constant": false,
      "inputs": [
        {
          "name": "_swapID",
          "type": "bytes32"
        },
        {
          "name": "_preimage",
          "type": "bytes"
        }
      ],
      "name": "close",
      "outputs": [],
      "payable": false,
      "stateMutability": "nonpayable",
      "type": "function"
    },
    {
      "constant": false,
      "inputs": [
        {
          "name": "_swapID",
          "type": "bytes32"
        }
      ],
      "name": "expire",
      "outputs": [],
      "payable": false,
      "stateMutability": "nonpayable",
      "type": "function"
    },
    {
      "constant": true,
      "inputs": [
        {
          "name": "_swapID",
          "type": "bytes32"
        }
      ],
      "name": "getSwap",
      "outputs": [
        {
          "name": "timelock",
          "type": "uint256"
        },
        {
          "name": "tokenValue",
          "type": "uint256"
        },
        {
          "name": "tokenAddress",
          "type": "address"
        },
        {
          "name": "swappee",
          "type": "address"
        },
        {
          "name": "hash",
          "type": "bytes32"
        },
        {
          "name": "targetAddress",
          "type": "string"
        },
        {
          "name": "swapType",
          "type": "string"
        },
        {
          "name": "states",
          "type": "uint8"
        }
      ],
      "payable": false,
      "stateMutability": "view",
      "type": "function"
    },
    {
      "constant": true,
      "inputs": [
        {
          "name": "_swapID",
          "type": "bytes32"
        }
      ],
      "name": "getPreimage",
      "outputs": [
        {
          "name": "preimage",
          "type": "bytes"
        }
      ],
      "payable": false,
      "stateMutability": "view",
      "type": "function"
    }
  ],
  "bytecode": "0x608060405234801561001057600080fd5b50604051602080613a8283398101806040528101908080519060200190929190505050806000806101000a81548173ffffffffffffffffffffffffffffffffffffffff021916908373ffffffffffffffffffffffffffffffffffffffff16021790555080600160006101000a81548173ffffffffffffffffffffffffffffffffffffffff021916908373ffffffffffffffffffffffffffffffffffffffff160217905550506139be806100c46000396000f300608060405260043610610083576000357c0100000000000000000000000000000000000000000000000000000000900463ffffffff1680630f622b04146100885780631a26720c1461013257806326d4a5eb146101a95780633da0e66e146102f857806383751cfd146104a6578063aee7593c1461051d578063c644179814610586575b600080fd5b34801561009457600080fd5b506100b760048036038101908080356000191690602001909291905050506105b7565b6040518080602001828103825283818151815260200191508051906020019080838360005b838110156100f75780820151818401526020810190506100dc565b50505050905090810190601f1680156101245780820380516001836020036101000a031916815260200191505b509250505060405180910390f35b34801561013e57600080fd5b506101a76004803603810190808035600019169060200190929190803590602001908201803590602001908080601f0160208091040260200160405190810160405280939291908181526020018383808284378201915050505050509192919290505050610a60565b005b3480156101b557600080fd5b506102f660048036038101908080359060200190929190803560001916906020019092919080359060200190929190803573ffffffffffffffffffffffffffffffffffffffff169060200190929190803560001916906020019092919080359060200190929190803590602001908201803590602001908080601f0160208091040260200160405190810160405280939291908181526020018383808284378201915050505050509192919290803590602001908201803590602001908080601f0160208091040260200160405190810160405280939291908181526020018383808284378201915050505050509192919290803590602001908201803590602001908080601f01602080910402602001604051908101604052809392919081815260200183838082843782019150505050505091929192905050506112ce565b005b34801561030457600080fd5b5061032760048036038101908080356000191690602001909291905050506128e1565b604051808981526020018881526020018773ffffffffffffffffffffffffffffffffffffffff1673ffffffffffffffffffffffffffffffffffffffff1681526020018673ffffffffffffffffffffffffffffffffffffffff1673ffffffffffffffffffffffffffffffffffffffff168152602001856000191660001916815260200180602001806020018460058111156103bd57fe5b60ff168152602001838103835286818151815260200191508051906020019080838360005b838110156103fd5780820151818401526020810190506103e2565b50505050905090810190601f16801561042a5780820380516001836020036101000a031916815260200191505b50838103825285818151815260200191508051906020019080838360005b83811015610463578082015181840152602081019050610448565b50505050905090810190601f1680156104905780820380516001836020036101000a031916815260200191505b509a505050505050505050505060405180910390f35b3480156104b257600080fd5b5061051b6004803603810190808035600019169060200190929190803590602001908201803590602001908080601f0160208091040260200160405190810160405280939291908181526020018383808284378201915050505050509192919290505050612d45565b005b34801561052957600080fd5b50610568600480360381019080803573ffffffffffffffffffffffffffffffffffffffff16906020019092919080359060200190929190505050612f12565b60405180826000191660001916815260200191505060405180910390f35b34801561059257600080fd5b506105b56004803603810190808035600019169060200190929190505050612f42565b005b60606105c16136d4565b82600260058111156105cf57fe5b60036000836000191660001916815260200190815260200160002060009054906101000a900460ff16600581111561060357fe5b141515610678576040517f08c379a00000000000000000000000000000000000000000000000000000000081526004018080602001828103825260198152602001807f53776170207374617465206d75737420626520434c4f5345440000000000000081525060200191505060405180910390fd5b60026000856000191660001916815260200190815260200160002061014060405190810160405290816000820154815260200160018201548152602001600282018054600181600116156101000203166002900480601f01602080910402602001604051908101604052809291908181526020018280546001816001161561010002031660029004801561074d5780601f106107225761010080835404028352916020019161074d565b820191906000526020600020905b81548152906001019060200180831161073057829003601f168201915b505050505081526020016003820160009054906101000a900473ffffffffffffffffffffffffffffffffffffffff1673ffffffffffffffffffffffffffffffffffffffff1673ffffffffffffffffffffffffffffffffffffffff1681526020016004820160009054906101000a900473ffffffffffffffffffffffffffffffffffffffff1673ffffffffffffffffffffffffffffffffffffffff1673ffffffffffffffffffffffffffffffffffffffff1681526020016005820160009054906101000a900473ffffffffffffffffffffffffffffffffffffffff1673ffffffffffffffffffffffffffffffffffffffff1673ffffffffffffffffffffffffffffffffffffffff168152602001600682015460001916600019168152602001600782018054600181600116156101000203166002900480601f0160208091040260200160405190810160405280929190818152602001828054600181600116156101000203166002900480156109035780601f106108d857610100808354040283529160200191610903565b820191906000526020600020905b8154815290600101906020018083116108e657829003601f168201915b50505050508152602001600882018054600181600116156101000203166002900480601f0160208091040260200160405190810160405280929190818152602001828054600181600116156101000203166002900480156109a55780601f1061097a576101008083540402835291602001916109a5565b820191906000526020600020905b81548152906001019060200180831161098857829003601f168201915b50505050508152602001600982018054600181600116156101000203166002900480601f016020809104026020016040519081016040528092919081815260200182805460018160011615610100020316600290048015610a475780601f10610a1c57610100808354040283529160200191610a47565b820191906000526020600020905b815481529060010190602001808311610a2a57829003601f168201915b50505050508152505091508160e0015192505050919050565b610a686136d4565b8260046005811115610a7657fe5b60036000836000191660001916815260200190815260200160002060009054906101000a900460ff166005811115610aaa57fe5b141515610b1f576040517f08c379a000000000000000000000000000000000000000000000000000000000815260040180806020018281038252601b8152602001807f53776170207374617465206d757374206265204143434550544544000000000081525060200191505060405180910390fd5b83836002816040518082805190602001908083835b602083101515610b595780518252602082019150602081019050602083039250610b34565b6001836020036101000a0380198251168184511680821785525050505050509050019150506020604051808303816000865af1158015610b9d573d6000803e3d6000fd5b5050506040513d6020811015610bb257600080fd5b8101908080519060200190929190505050600019166002600084600019166000191681526020019081526020016000206006015460001916141515610c5f576040517f08c379a00000000000000000000000000000000000000000000000000000000081526004018080602001828103825260158152602001807f53776170206d757374206861766520736563726574000000000000000000000081525060200191505060405180910390fd5b60026000876000191660001916815260200190815260200160002061014060405190810160405290816000820154815260200160018201548152602001600282018054600181600116156101000203166002900480601f016020809104026020016040519081016040528092919081815260200182805460018160011615610100020316600290048015610d345780601f10610d0957610100808354040283529160200191610d34565b820191906000526020600020905b815481529060010190602001808311610d1757829003601f168201915b505050505081526020016003820160009054906101000a900473ffffffffffffffffffffffffffffffffffffffff1673ffffffffffffffffffffffffffffffffffffffff1673ffffffffffffffffffffffffffffffffffffffff1681526020016004820160009054906101000a900473ffffffffffffffffffffffffffffffffffffffff1673ffffffffffffffffffffffffffffffffffffffff1673ffffffffffffffffffffffffffffffffffffffff1681526020016005820160009054906101000a900473ffffffffffffffffffffffffffffffffffffffff1673ffffffffffffffffffffffffffffffffffffffff1673ffffffffffffffffffffffffffffffffffffffff168152602001600682015460001916600019168152602001600782018054600181600116156101000203166002900480601f016020809104026020016040519081016040528092919081815260200182805460018160011615610100020316600290048015610eea5780601f10610ebf57610100808354040283529160200191610eea565b820191906000526020600020905b815481529060010190602001808311610ecd57829003601f168201915b50505050508152602001600882018054600181600116156101000203166002900480601f016020809104026020016040519081016040528092919081815260200182805460018160011615610100020316600290048015610f8c5780601f10610f6157610100808354040283529160200191610f8c565b820191906000526020600020905b815481529060010190602001808311610f6f57829003601f168201915b50505050508152602001600982018054600181600116156101000203166002900480601f01602080910402602001604051908101604052809291908181526020018280546001816001161561010002031660029004801561102e5780601f106110035761010080835404028352916020019161102e565b820191906000526020600020905b81548152906001019060200180831161101157829003601f168201915b505050505081525050935084600260008860001916600019168152602001908152602001600020600701908051906020019061106b92919061376d565b50600260036000886000191660001916815260200190815260200160002060006101000a81548160ff021916908360058111156110a457fe5b0217905550600160009054906101000a900473ffffffffffffffffffffffffffffffffffffffff1673ffffffffffffffffffffffffffffffffffffffff1663a9059cbb8560a0015186602001516040518363ffffffff167c0100000000000000000000000000000000000000000000000000000000028152600401808373ffffffffffffffffffffffffffffffffffffffff1673ffffffffffffffffffffffffffffffffffffffff16815260200182815260200192505050602060405180830381600087803b15801561117657600080fd5b505af115801561118a573d6000803e3d6000fd5b505050506040513d60208110156111a057600080fd5b81019080805190602001909291905050501515611225576040517f08c379a000000000000000000000000000000000000000000000000000000000815260040180806020018281038252600f8152602001807f5472616e73666572206661696c6564000000000000000000000000000000000081525060200191505060405180910390fd5b85600019167f692fd10a275135b9a2a2f5819db3d9965a5129ea2ad3640a0156dbce2fc81bdd866040518080602001828103825283818151815260200191508051906020019080838360005b8381101561128c578082015181840152602081019050611271565b50505050905090810190601f1680156112b95780820380516001836020036101000a031916815260200191505b509250505060405180910390a2505050505050565b6112d66136d4565b6000898b600060018111156112e757fe5b8160018111156112f357fe5b60018111156112fe57fe5b1415611429576000600581111561131157fe5b60036000846000191660001916815260200190815260200160002060009054906101000a900460ff16600581111561134557fe5b148061138e575060058081111561135857fe5b60036000846000191660001916815260200190815260200160002060009054906101000a900460ff16600581111561138c57fe5b145b1515611428576040517f08c379a00000000000000000000000000000000000000000000000000000000081526004018080602001828103825260268152602001807f53776170207374617465206d75737420626520494e56414c4944206f7220505281526020017f455041524544000000000000000000000000000000000000000000000000000081525060400191505060405180910390fd5b5b8c8060018081111561143757fe5b101515156114ad576040517f08c379a00000000000000000000000000000000000000000000000000000000081526004018080602001828103825260198152602001807f5f6f7065726174696f6e206d7573742062652030206f7220310000000000000081525060200191505060405180910390fd5b8d60018111156114b957fe5b9350600060018111156114c857fe5b8460018111156114d457fe5b141561256157600060058111156114e757fe5b600360008f6000191660001916815260200190815260200160002060009054906101000a900460ff16600581111561151b57fe5b1415611c3d57600160009054906101000a900473ffffffffffffffffffffffffffffffffffffffff1673ffffffffffffffffffffffffffffffffffffffff1663dd62ed3e33306040518363ffffffff167c0100000000000000000000000000000000000000000000000000000000028152600401808373ffffffffffffffffffffffffffffffffffffffff1673ffffffffffffffffffffffffffffffffffffffff1681526020018273ffffffffffffffffffffffffffffffffffffffff1673ffffffffffffffffffffffffffffffffffffffff16815260200192505050602060405180830381600087803b15801561161257600080fd5b505af1158015611626573d6000803e3d6000fd5b505050506040513d602081101561163c57600080fd5b81019080805190602001909291905050508c111515156116ea576040517f08c379a000000000000000000000000000000000000000000000000000000000815260040180806020018281038252602d8152602001807f56616c7565206d757374206265206c657373207468616e206f7220657175616c81526020017f20746f20616c6c6f77616e63650000000000000000000000000000000000000081525060400191505060405180910390fd5b600160009054906101000a900473ffffffffffffffffffffffffffffffffffffffff1673ffffffffffffffffffffffffffffffffffffffff166323b872dd33308f6040518463ffffffff167c0100000000000000000000000000000000000000000000000000000000028152600401808473ffffffffffffffffffffffffffffffffffffffff1673ffffffffffffffffffffffffffffffffffffffff1681526020018373ffffffffffffffffffffffffffffffffffffffff1673ffffffffffffffffffffffffffffffffffffffff1681526020018281526020019350505050602060405180830381600087803b1580156117e357600080fd5b505af11580156117f7573d6000803e3d6000fd5b505050506040513d602081101561180d57600080fd5b81019080805190602001909291905050501515611892576040517f08c379a000000000000000000000000000000000000000000000000000000000815260040180806020018281038252600f8152602001807f5472616e73666572206661696c6564000000000000000000000000000000000081525060200191505060405180910390fd5b610140604051908101604052808a81526020018d8152602001602060405190810160405280600081525081526020013373ffffffffffffffffffffffffffffffffffffffff1681526020016000809054906101000a900473ffffffffffffffffffffffffffffffffffffffff1673ffffffffffffffffffffffffffffffffffffffff1681526020018c73ffffffffffffffffffffffffffffffffffffffff1681526020018b60001916815260200160006040519080825280601f01601f1916602001820160405280156119745781602001602082028038833980820191505090505b50815260200188815260200189815250945084600260008f60001916600019168152602001908152602001600020600082015181600001556020820151816001015560408201518160020190805190602001906119d29291906137ed565b5060608201518160030160006101000a81548173ffffffffffffffffffffffffffffffffffffffff021916908373ffffffffffffffffffffffffffffffffffffffff16021790555060808201518160040160006101000a81548173ffffffffffffffffffffffffffffffffffffffff021916908373ffffffffffffffffffffffffffffffffffffffff16021790555060a08201518160050160006101000a81548173ffffffffffffffffffffffffffffffffffffffff021916908373ffffffffffffffffffffffffffffffffffffffff16021790555060c0820151816006019060001916905560e0820151816007019080519060200190611ad492919061386d565b50610100820151816008019080519060200190611af29291906137ed565b50610120820151816009019080519060200190611b109291906137ed565b509050506001600360008f6000191660001916815260200190815260200160002060006101000a81548160ff02191690836005811115611b4c57fe5b0217905550600460003373ffffffffffffffffffffffffffffffffffffffff1673ffffffffffffffffffffffffffffffffffffffff1681526020019081526020016000208d90806001815401808255809150509060018203906000526020600020016000909192909190915090600019169055508c600019167f6ed79a08bf5c8a7d4a330df315e4ac386627ecafbe5d2bfd6654237d967b24f38c8c604051808373ffffffffffffffffffffffffffffffffffffffff1673ffffffffffffffffffffffffffffffffffffffff16815260200182600019166000191681526020019250505060405180910390a26128d1565b600580811115611c4957fe5b600360008f6000191660001916815260200190815260200160002060009054906101000a900460ff166005811115611c7d57fe5b141561256057600260008e6000191660001916815260200190815260200160002061014060405190810160405290816000820154815260200160018201548152602001600282018054600181600116156101000203166002900480601f016020809104026020016040519081016040528092919081815260200182805460018160011615610100020316600290048015611d585780601f10611d2d57610100808354040283529160200191611d58565b820191906000526020600020905b815481529060010190602001808311611d3b57829003601f168201915b505050505081526020016003820160009054906101000a900473ffffffffffffffffffffffffffffffffffffffff1673ffffffffffffffffffffffffffffffffffffffff1673ffffffffffffffffffffffffffffffffffffffff1681526020016004820160009054906101000a900473ffffffffffffffffffffffffffffffffffffffff1673ffffffffffffffffffffffffffffffffffffffff1673ffffffffffffffffffffffffffffffffffffffff1681526020016005820160009054906101000a900473ffffffffffffffffffffffffffffffffffffffff1673ffffffffffffffffffffffffffffffffffffffff1673ffffffffffffffffffffffffffffffffffffffff168152602001600682015460001916600019168152602001600782018054600181600116156101000203166002900480601f016020809104026020016040519081016040528092919081815260200182805460018160011615610100020316600290048015611f0e5780601f10611ee357610100808354040283529160200191611f0e565b820191906000526020600020905b815481529060010190602001808311611ef157829003601f168201915b50505050508152602001600882018054600181600116156101000203166002900480601f016020809104026020016040519081016040528092919081815260200182805460018160011615610100020316600290048015611fb05780601f10611f8557610100808354040283529160200191611fb0565b820191906000526020600020905b815481529060010190602001808311611f9357829003601f168201915b50505050508152602001600982018054600181600116156101000203166002900480601f0160208091040260200160405190810160405280929190818152602001828054600181600116156101000203166002900480156120525780601f1061202757610100808354040283529160200191612052565b820191906000526020600020905b81548152906001019060200180831161203557829003601f168201915b505050505081525050945033600260008f6000191660001916815260200190815260200160002060030160006101000a81548173ffffffffffffffffffffffffffffffffffffffff021916908373ffffffffffffffffffffffffffffffffffffffff1602179055506001600360008f6000191660001916815260200190815260200160002060006101000a81548160ff021916908360058111156120f257fe5b0217905550600460003373ffffffffffffffffffffffffffffffffffffffff1673ffffffffffffffffffffffffffffffffffffffff1681526020019081526020016000208d9080600181540180825580915050906001820390600052602060002001600090919290919091509060001916905550600160009054906101000a900473ffffffffffffffffffffffffffffffffffffffff1673ffffffffffffffffffffffffffffffffffffffff1663dd62ed3e33306040518363ffffffff167c0100000000000000000000000000000000000000000000000000000000028152600401808373ffffffffffffffffffffffffffffffffffffffff1673ffffffffffffffffffffffffffffffffffffffff1681526020018273ffffffffffffffffffffffffffffffffffffffff1673ffffffffffffffffffffffffffffffffffffffff16815260200192505050602060405180830381600087803b15801561225757600080fd5b505af115801561226b573d6000803e3d6000fd5b505050506040513d602081101561228157600080fd5b8101908080519060200190929190505050856020015111151515612333576040517f08c379a000000000000000000000000000000000000000000000000000000000815260040180806020018281038252602d8152602001807f56616c7565206d757374206265206c657373207468616e206f7220657175616c81526020017f20746f20616c6c6f77616e63650000000000000000000000000000000000000081525060400191505060405180910390fd5b600160009054906101000a900473ffffffffffffffffffffffffffffffffffffffff1673ffffffffffffffffffffffffffffffffffffffff166323b872dd333088602001516040518463ffffffff167c0100000000000000000000000000000000000000000000000000000000028152600401808473ffffffffffffffffffffffffffffffffffffffff1673ffffffffffffffffffffffffffffffffffffffff1681526020018373ffffffffffffffffffffffffffffffffffffffff1673ffffffffffffffffffffffffffffffffffffffff1681526020018281526020019350505050602060405180830381600087803b15801561243057600080fd5b505af1158015612444573d6000803e3d6000fd5b505050506040513d602081101561245a57600080fd5b810190808051906020019092919050505015156124df576040517f08c379a000000000000000000000000000000000000000000000000000000000815260040180806020018281038252600f8152602001807f5472616e73666572206661696c6564000000000000000000000000000000000081525060200191505060405180910390fd5b8c600019167f6ed79a08bf5c8a7d4a330df315e4ac386627ecafbe5d2bfd6654237d967b24f38660a001518760c00151604051808373ffffffffffffffffffffffffffffffffffffffff1673ffffffffffffffffffffffffffffffffffffffff16815260200182600019166000191681526020019250505060405180910390a25b5b60018081111561256d57fe5b84600181111561257957fe5b14156128d057610140604051908101604052808a81526020018d8152602001878152602001600073ffffffffffffffffffffffffffffffffffffffff1681526020016000809054906101000a900473ffffffffffffffffffffffffffffffffffffffff1673ffffffffffffffffffffffffffffffffffffffff1681526020013373ffffffffffffffffffffffffffffffffffffffff1681526020018b60001916815260200160006040519080825280601f01601f1916602001820160405280156126525781602001602082028038833980820191505090505b50815260200188815260200189815250945084600260008f60001916600019168152602001908152602001600020600082015181600001556020820151816001015560408201518160020190805190602001906126b09291906137ed565b5060608201518160030160006101000a81548173ffffffffffffffffffffffffffffffffffffffff021916908373ffffffffffffffffffffffffffffffffffffffff16021790555060808201518160040160006101000a81548173ffffffffffffffffffffffffffffffffffffffff021916908373ffffffffffffffffffffffffffffffffffffffff16021790555060a08201518160050160006101000a81548173ffffffffffffffffffffffffffffffffffffffff021916908373ffffffffffffffffffffffffffffffffffffffff16021790555060c0820151816006019060001916905560e08201518160070190805190602001906127b292919061386d565b506101008201518160080190805190602001906127d09291906137ed565b506101208201518160090190805190602001906127ee9291906137ed565b509050506005600360008f6000191660001916815260200190815260200160002060006101000a81548160ff0219169083600581111561282a57fe5b0217905550600460003373ffffffffffffffffffffffffffffffffffffffff1673ffffffffffffffffffffffffffffffffffffffff1681526020019081526020016000208d90806001815401808255809150509060018203906000526020600020016000909192909190915090600019169055508c600019167f088439759be4811f63ff74c697ab98e3425cfc43f3036a710116394458a131a260405160405180910390a25b5b5050505050505050505050505050565b60008060008060006060806000806128f76136d4565b600360008c6000191660001916815260200190815260200160002060009054906101000a900460ff169150600260008c6000191660001916815260200190815260200160002061014060405190810160405290816000820154815260200160018201548152602001600282018054600181600116156101000203166002900480601f0160208091040260200160405190810160405280929190818152602001828054600181600116156101000203166002900480156129f75780601f106129cc576101008083540402835291602001916129f7565b820191906000526020600020905b8154815290600101906020018083116129da57829003601f168201915b505050505081526020016003820160009054906101000a900473ffffffffffffffffffffffffffffffffffffffff1673ffffffffffffffffffffffffffffffffffffffff1673ffffffffffffffffffffffffffffffffffffffff1681526020016004820160009054906101000a900473ffffffffffffffffffffffffffffffffffffffff1673ffffffffffffffffffffffffffffffffffffffff1673ffffffffffffffffffffffffffffffffffffffff1681526020016005820160009054906101000a900473ffffffffffffffffffffffffffffffffffffffff1673ffffffffffffffffffffffffffffffffffffffff1673ffffffffffffffffffffffffffffffffffffffff168152602001600682015460001916600019168152602001600782018054600181600116156101000203166002900480601f016020809104026020016040519081016040528092919081815260200182805460018160011615610100020316600290048015612bad5780601f10612b8257610100808354040283529160200191612bad565b820191906000526020600020905b815481529060010190602001808311612b9057829003601f168201915b50505050508152602001600882018054600181600116156101000203166002900480601f016020809104026020016040519081016040528092919081815260200182805460018160011615610100020316600290048015612c4f5780601f10612c2457610100808354040283529160200191612c4f565b820191906000526020600020905b815481529060010190602001808311612c3257829003601f168201915b50505050508152602001600982018054600181600116156101000203166002900480601f016020809104026020016040519081016040528092919081815260200182805460018160011615610100020316600290048015612cf15780601f10612cc657610100808354040283529160200191612cf1565b820191906000526020600020905b815481529060010190602001808311612cd457829003601f168201915b50505050508152505090508060000151816020015182608001518360a001518460c0015185610100015186610120015188829250819150995099509950995099509950995099505050919395975091939597565b8160016005811115612d5357fe5b60036000836000191660001916815260200190815260200160002060009054906101000a900460ff166005811115612d8757fe5b141515612dfc576040517f08c379a00000000000000000000000000000000000000000000000000000000081526004018080602001828103825260178152602001807f53776170207374617465206d757374206265204f50454e00000000000000000081525060200191505060405180910390fd5b816002600085600019166000191681526020019081526020016000206008019080519060200190612e2e9291906138ed565b50600460036000856000191660001916815260200190815260200160002060006101000a81548160ff02191690836005811115612e6757fe5b021790555082600019167f4a45beed9ce9237ed9dd5d5eb6849718a91579f08bd13b6c614f22994147dd48836040518080602001828103825283818151815260200191508051906020019080838360005b83811015612ed3578082015181840152602081019050612eb8565b50505050905090810190601f168015612f005780820380516001836020036101000a031916815260200191505b509250505060405180910390a2505050565b600460205281600052604060002081815481101515612f2d57fe5b90600052602060002001600091509150505481565b612f4a6136d4565b81600060036000836000191660001916815260200190815260200160002060009054906101000a900460ff16905060046005811115612f8557fe5b816005811115612f9157fe5b1480612fb3575060016005811115612fa557fe5b816005811115612fb157fe5b145b151561304d576040517f08c379a00000000000000000000000000000000000000000000000000000000081526004018080602001828103825260238152602001807f53776170207374617465206d757374206265204143434550544544206f72204f81526020017f50454e000000000000000000000000000000000000000000000000000000000081525060400191505060405180910390fd5b8342600260008360001916600019168152602001908152602001600020600001541115151561310a576040517f08c379a000000000000000000000000000000000000000000000000000000000815260040180806020018281038252602f8152602001807f537761702074696d656c6f636b206d757374206265206c657373207468616e2081526020017f6f7220657175616c20746f204e4f57000000000000000000000000000000000081525060400191505060405180910390fd5b60026000866000191660001916815260200190815260200160002061014060405190810160405290816000820154815260200160018201548152602001600282018054600181600116156101000203166002900480601f0160208091040260200160405190810160405280929190818152602001828054600181600116156101000203166002900480156131df5780601f106131b4576101008083540402835291602001916131df565b820191906000526020600020905b8154815290600101906020018083116131c257829003601f168201915b505050505081526020016003820160009054906101000a900473ffffffffffffffffffffffffffffffffffffffff1673ffffffffffffffffffffffffffffffffffffffff1673ffffffffffffffffffffffffffffffffffffffff1681526020016004820160009054906101000a900473ffffffffffffffffffffffffffffffffffffffff1673ffffffffffffffffffffffffffffffffffffffff1673ffffffffffffffffffffffffffffffffffffffff1681526020016005820160009054906101000a900473ffffffffffffffffffffffffffffffffffffffff1673ffffffffffffffffffffffffffffffffffffffff1673ffffffffffffffffffffffffffffffffffffffff168152602001600682015460001916600019168152602001600782018054600181600116156101000203166002900480601f0160208091040260200160405190810160405280929190818152602001828054600181600116156101000203166002900480156133955780601f1061336a57610100808354040283529160200191613395565b820191906000526020600020905b81548152906001019060200180831161337857829003601f168201915b50505050508152602001600882018054600181600116156101000203166002900480601f0160208091040260200160405190810160405280929190818152602001828054600181600116156101000203166002900480156134375780601f1061340c57610100808354040283529160200191613437565b820191906000526020600020905b81548152906001019060200180831161341a57829003601f168201915b50505050508152602001600982018054600181600116156101000203166002900480601f0160208091040260200160405190810160405280929190818152602001828054600181600116156101000203166002900480156134d95780601f106134ae576101008083540402835291602001916134d9565b820191906000526020600020905b8154815290600101906020018083116134bc57829003601f168201915b50505050508152505093506003806000876000191660001916815260200190815260200160002060006101000a81548160ff0219169083600581111561351b57fe5b0217905550600160009054906101000a900473ffffffffffffffffffffffffffffffffffffffff1673ffffffffffffffffffffffffffffffffffffffff1663a9059cbb856060015186602001516040518363ffffffff167c0100000000000000000000000000000000000000000000000000000000028152600401808373ffffffffffffffffffffffffffffffffffffffff1673ffffffffffffffffffffffffffffffffffffffff16815260200182815260200192505050602060405180830381600087803b1580156135ed57600080fd5b505af1158015613601573d6000803e3d6000fd5b505050506040513d602081101561361757600080fd5b8101908080519060200190929190505050151561369c576040517f08c379a000000000000000000000000000000000000000000000000000000000815260040180806020018281038252600f8152602001807f5472616e73666572206661696c6564000000000000000000000000000000000081525060200191505060405180910390fd5b84600019167fbddd9b693ea862fad6ecf78fd51c065be26fda94d1f3cad3a7d691453a38a73560405160405180910390a25050505050565b61014060405190810160405280600081526020016000815260200160608152602001600073ffffffffffffffffffffffffffffffffffffffff168152602001600073ffffffffffffffffffffffffffffffffffffffff168152602001600073ffffffffffffffffffffffffffffffffffffffff168152602001600080191681526020016060815260200160608152602001606081525090565b828054600181600116156101000203166002900490600052602060002090601f016020900481019282601f106137ae57805160ff19168380011785556137dc565b828001600101855582156137dc579182015b828111156137db5782518255916020019190600101906137c0565b5b5090506137e9919061396d565b5090565b828054600181600116156101000203166002900490600052602060002090601f016020900481019282601f1061382e57805160ff191683800117855561385c565b8280016001018555821561385c579182015b8281111561385b578251825591602001919060010190613840565b5b509050613869919061396d565b5090565b828054600181600116156101000203166002900490600052602060002090601f016020900481019282601f106138ae57805160ff19168380011785556138dc565b828001600101855582156138dc579182015b828111156138db5782518255916020019190600101906138c0565b5b5090506138e9919061396d565b5090565b828054600181600116156101000203166002900490600052602060002090601f016020900481019282601f1061392e57805160ff191683800117855561395c565b8280016001018555821561395c579182015b8281111561395b578251825591602001919060010190613940565b5b509050613969919061396d565b5090565b61398f91905b8082111561398b576000816000905550600101613973565b5090565b905600a165627a7a723058206cec6f76c3bd7cf34ffcff8205ac813f0e902c74b8739e97d229d5f7b2fe777e0029",
  "source": "pragma solidity ^0.4.23;\n\nimport \"zeppelin-solidity/contracts/token/ERC20/ERC20.sol\";\n\ncontract AtomicSwap {\n    struct Swap {\n        uint256 timelock;\n        uint256 tokenValue;\n        string sourceAddress;\n        address swapper;\n        address tokenAddress;\n        address swappee;\n        bytes32 hash;\n        bytes preimage;\n        string targetAddress;\n        string swapType;\n    }\n\n    enum States {\n        INVALID,\n        OPEN,\n        CLOSED,\n        EXPIRED,\n        ACCEPTED,\n        PREPARED\n    }\n\n    enum Operations {\n        Open,\n        Prepare\n    }\n\n    address private erc20Address;\n    ERC20 private erc20Contract;\n\n    mapping (bytes32 => Swap) private swaps;\n    mapping (bytes32 => States) private swapStates;\n    mapping (address => bytes32[]) public swapsByAddress;\n\n    event Open(bytes32 indexed _swapID, address _swappee, bytes32 _hash);\n    event Expire(bytes32 indexed _swapID);\n    event Close(bytes32 indexed _swapID, bytes _preimage);\n    event Accept(bytes32 indexed _swapID, string _holdingAddress);\n    event Prepare(bytes32 indexed _swapID);\n\n    modifier onlyInvalidSwaps(bytes32 _swapID, uint _operation) {\n        if(Operations(_operation) == Operations.Open)\n            require (swapStates[_swapID] == States.INVALID || swapStates[_swapID] == States.PREPARED, \"Swap state must be INVALID or PREPARED\");\n        _;\n    }\n\n    modifier onlyOpenSwaps(bytes32 _swapID) {\n        require (swapStates[_swapID] == States.OPEN, \"Swap state must be OPEN\");\n        _;\n    }\n\n    modifier onlyClosedSwaps(bytes32 _swapID) {\n        require (swapStates[_swapID] == States.CLOSED, \"Swap state must be CLOSED\");\n        _;\n    }\n\n    modifier onlyAcceptedSwaps(bytes32 _swapID){\n        require(swapStates[_swapID] == States.ACCEPTED, \"Swap state must be ACCEPTED\");\n        _;\n    }\n\n    modifier onlyOpenOrAcceptedSwaps(bytes32 _swapID){\n        States state = swapStates[_swapID];\n        require(state == States.ACCEPTED || state == States.OPEN, \"Swap state must be ACCEPTED or OPEN\");\n        _;\n    }\n\n    modifier onlyExpirableSwaps(bytes32 _swapID) {\n        require (swaps[_swapID].timelock <= now, \"Swap timelock must be less than or equal to NOW\");\n        _;\n    }\n\n    modifier onlyPreparedSwaps(bytes32 _swapID){\n        States state = swapStates[_swapID];\n        require(state == States.PREPARED, \"Swap state must be PREPARED\");\n        _;\n    }\n\n    modifier onlyWithPreimage(bytes32 _swapID, bytes _preimage) {\n        require (swaps[_swapID].hash == sha256(_preimage), \"Swap must have secret\");\n        _;\n    }\n\n    modifier onlySwappee(bytes32 _swapID, address _swappee) {\n        require (swaps[_swapID].swappee == _swappee, \"Called must be swappee\");\n        _;\n    }\n\n    modifier validOperation(uint _operation){\n        require(uint(Operations.Prepare) >= _operation, \"_operation must be 0 or 1\");\n        _;\n    }\n\n    constructor(address _erc20Address){\n        erc20Address = _erc20Address;\n        erc20Contract = ERC20(_erc20Address);\n    }\n\n    function open(\n        uint _operation,\n        bytes32 _swapID, \n        uint256 _tokenValue, \n        address _swappee, \n        bytes32 _hash, \n        uint256 _timelock, \n        string _swapType, \n        string _targetAddress,\n        string _sourceAddress) public onlyInvalidSwaps(_swapID, _operation) validOperation(_operation){\n\n        Swap memory swap;\n        Operations op = Operations(_operation);\n        \n        if(op == Operations.Open){\n            if(swapStates[_swapID] == States.INVALID){\n                // Transfer value from the swapper to this contract.\n                require(_tokenValue <= erc20Contract.allowance(msg.sender, address(this)), \"Value must be less than or equal to allowance\");\n                require(erc20Contract.transferFrom(msg.sender, address(this), _tokenValue), \"Transfer failed\");\n\n                // Store the details of the swap.\n                swap = Swap({\n                    timelock: _timelock,\n                    tokenValue: _tokenValue,\n                    sourceAddress: \"\",\n                    swapper: msg.sender,\n                    tokenAddress: erc20Address,\n                    swappee: _swappee,\n                    hash: _hash,\n                    preimage: new bytes(0),\n                    targetAddress: _targetAddress,\n                    swapType: _swapType\n                });\n                swaps[_swapID] = swap;\n                swapStates[_swapID] = States.OPEN;\n                swapsByAddress[msg.sender].push(_swapID);\n                emit Open(_swapID, _swappee, _hash);\n                return;\n            }\n            if(swapStates[_swapID] == States.PREPARED){\n                swap = swaps[_swapID];\n                swaps[_swapID].swapper = msg.sender;\n                swapStates[_swapID] = States.OPEN;\n                swapsByAddress[msg.sender].push(_swapID);\n\n                require(swap.tokenValue <= erc20Contract.allowance(msg.sender, address(this)), \"Value must be less than or equal to allowance\");\n                require(erc20Contract.transferFrom(msg.sender, address(this), swap.tokenValue), \"Transfer failed\");\n\n                emit Open(_swapID, swap.swappee, swap.hash);\n            }\n        }\n        if(op == Operations.Prepare){\n            swap = Swap({\n                timelock: _timelock,\n                tokenValue: _tokenValue,\n                tokenAddress: erc20Address,\n                sourceAddress: _sourceAddress,\n                swapper: address(0x0),\n                swappee: msg.sender,\n                hash: _hash,\n                preimage: new bytes(0),\n                targetAddress: _targetAddress,\n                swapType: _swapType\n            });\n            swaps[_swapID] = swap;\n            swapStates[_swapID] = States.PREPARED;\n            swapsByAddress[msg.sender].push(_swapID);\n            emit Prepare(_swapID);\n        }\n    }\n\n    function accept(bytes32 _swapID, string _targetAddress) public onlyOpenSwaps(_swapID) {\n        swaps[_swapID].targetAddress = _targetAddress;\n        swapStates[_swapID] = States.ACCEPTED;\n        emit Accept(_swapID, _targetAddress);\n    }\n\n    function close(bytes32 _swapID, bytes _preimage) public onlyAcceptedSwaps(_swapID) onlyWithPreimage(_swapID, _preimage) {\n        // Close the swap.\n        Swap memory swap = swaps[_swapID];\n        swaps[_swapID].preimage = _preimage;\n        swapStates[_swapID] = States.CLOSED;\n\n        // Transfer the token value from this contract to the swappee.\n        require(erc20Contract.transfer(swap.swappee, swap.tokenValue), \"Transfer failed\");\n\n        emit Close(_swapID, _preimage);\n    }\n\n    function expire(bytes32 _swapID) public onlyOpenOrAcceptedSwaps(_swapID) onlyExpirableSwaps(_swapID) {\n        // Expire the swap.\n        Swap memory swap = swaps[_swapID];\n        swapStates[_swapID] = States.EXPIRED;\n\n        // Transfer the token value from this contract back to the swapper.\n        require(erc20Contract.transfer(swap.swapper, swap.tokenValue), \"Transfer failed\");\n\n        emit Expire(_swapID);\n    }\n\n    function getSwap(bytes32 _swapID) public view returns (\n        uint256 timelock, \n        uint256 tokenValue, \n        address tokenAddress, \n        address swappee, \n        bytes32 hash, \n        string targetAddress, \n        string swapType,\n        AtomicSwap.States states) {\n        AtomicSwap.States _state = swapStates[_swapID];\n        Swap memory swap = swaps[_swapID];\n        return (\n            swap.timelock, \n            swap.tokenValue, \n            swap.tokenAddress, \n            swap.swappee, \n            swap.hash, \n            swap.targetAddress, \n            swap.swapType,\n            _state);\n    }\n\n    // function getSwapSource(bytes32 _swapID) public view returns (\n    //     string sourceChain,\n    //     string sourceAddress\n    // ){\n    //     Swap memory swap = swaps[_swapID];\n    //     return (\n    //         swap.sourceChain,\n    //         swap.sourceAddress\n    //     );\n    // }\n\n    function getPreimage(bytes32 _swapID) public view onlyClosedSwaps(_swapID) returns (bytes preimage) {\n        Swap memory swap = swaps[_swapID];\n        return swap.preimage;\n    }\n}",
  "sourcePath": "/Users/rossmcewan/Source/Dala/toa/blockchains/ethereum/contracts/AtomicSwap.sol",
  "compiler": {
    "name": "solc",
    "version": "0.4.24+commit.e67f0147.Emscripten.clang"
  },
  "schemaVersion": "2.0.1",
  "updatedAt": "2018-08-30T08:45:33.044Z"
}