{
  "contractName": "AtomicSwap",
  "abi": [
    {
      "constant": true,
      "inputs": [
        {
          "name": "",
          "type": "address"
        },
        {
          "name": "",
          "type": "uint256"
        }
      ],
      "name": "swapsByAddress",
      "outputs": [
        {
          "name": "",
          "type": "bytes32"
        }
      ],
      "payable": false,
      "stateMutability": "view",
      "type": "function"
    },
    {
      "anonymous": false,
      "inputs": [
        {
          "indexed": true,
          "name": "_swapID",
          "type": "bytes32"
        },
        {
          "indexed": false,
          "name": "_swappee",
          "type": "address"
        },
        {
          "indexed": false,
          "name": "_hash",
          "type": "bytes32"
        }
      ],
      "name": "Open",
      "type": "event"
    },
    {
      "anonymous": false,
      "inputs": [
        {
          "indexed": true,
          "name": "_swapID",
          "type": "bytes32"
        }
      ],
      "name": "Expire",
      "type": "event"
    },
    {
      "anonymous": false,
      "inputs": [
        {
          "indexed": true,
          "name": "_swapID",
          "type": "bytes32"
        },
        {
          "indexed": false,
          "name": "_preimage",
          "type": "bytes"
        }
      ],
      "name": "Close",
      "type": "event"
    },
    {
      "anonymous": false,
      "inputs": [
        {
          "indexed": true,
          "name": "_swapID",
          "type": "bytes32"
        },
        {
          "indexed": false,
          "name": "_holdingAddress",
          "type": "string"
        }
      ],
      "name": "Accept",
      "type": "event"
    },
    {
      "anonymous": false,
      "inputs": [
        {
          "indexed": true,
          "name": "_swapID",
          "type": "bytes32"
        }
      ],
      "name": "Prepare",
      "type": "event"
    },
    {
      "constant": false,
      "inputs": [
        {
          "name": "_swapID",
          "type": "bytes32"
        },
        {
          "name": "_tokenValue",
          "type": "uint256"
        },
        {
          "name": "_tokenAddress",
          "type": "address"
        },
        {
          "name": "_sourceChain",
          "type": "string"
        },
        {
          "name": "_sourceAddress",
          "type": "string"
        },
        {
          "name": "_hash",
          "type": "bytes32"
        },
        {
          "name": "_timelock",
          "type": "uint256"
        },
        {
          "name": "_holdingAddress",
          "type": "string"
        }
      ],
      "name": "prepare",
      "outputs": [],
      "payable": false,
      "stateMutability": "nonpayable",
      "type": "function"
    },
    {
      "constant": false,
      "inputs": [
        {
          "name": "_swapID",
          "type": "bytes32"
        }
      ],
      "name": "openPrepared",
      "outputs": [],
      "payable": false,
      "stateMutability": "nonpayable",
      "type": "function"
    },
    {
      "constant": false,
      "inputs": [
        {
          "name": "_swapID",
          "type": "bytes32"
        },
        {
          "name": "_tokenValue",
          "type": "uint256"
        },
        {
          "name": "_tokenAddress",
          "type": "address"
        },
        {
          "name": "_swappee",
          "type": "address"
        },
        {
          "name": "_hash",
          "type": "bytes32"
        },
        {
          "name": "_timelock",
          "type": "uint256"
        },
        {
          "name": "_targetChain",
          "type": "string"
        },
        {
          "name": "_targetAddress",
          "type": "string"
        }
      ],
      "name": "open",
      "outputs": [],
      "payable": false,
      "stateMutability": "nonpayable",
      "type": "function"
    },
    {
      "constant": false,
      "inputs": [
        {
          "name": "_swapID",
          "type": "bytes32"
        },
        {
          "name": "_holdingAddress",
          "type": "string"
        }
      ],
      "name": "accept",
      "outputs": [],
      "payable": false,
      "stateMutability": "nonpayable",
      "type": "function"
    },
    {
      "constant": false,
      "inputs": [
        {
          "name": "_swapID",
          "type": "bytes32"
        },
        {
          "name": "_preimage",
          "type": "bytes"
        }
      ],
      "name": "close",
      "outputs": [],
      "payable": false,
      "stateMutability": "nonpayable",
      "type": "function"
    },
    {
      "constant": false,
      "inputs": [
        {
          "name": "_swapID",
          "type": "bytes32"
        }
      ],
      "name": "expire",
      "outputs": [],
      "payable": false,
      "stateMutability": "nonpayable",
      "type": "function"
    },
    {
      "constant": true,
      "inputs": [
        {
          "name": "_swapID",
          "type": "bytes32"
        }
      ],
      "name": "getSwap",
      "outputs": [
        {
          "name": "timelock",
          "type": "uint256"
        },
        {
          "name": "tokenValue",
          "type": "uint256"
        },
        {
          "name": "tokenAddress",
          "type": "address"
        },
        {
          "name": "swappee",
          "type": "address"
        },
        {
          "name": "hash",
          "type": "bytes32"
        },
        {
          "name": "targetChain",
          "type": "string"
        },
        {
          "name": "targetAddress",
          "type": "string"
        },
        {
          "name": "states",
          "type": "uint8"
        },
        {
          "name": "holdingAddress",
          "type": "string"
        }
      ],
      "payable": false,
      "stateMutability": "view",
      "type": "function"
    },
    {
      "constant": true,
      "inputs": [
        {
          "name": "_swapID",
          "type": "bytes32"
        }
      ],
      "name": "getSwapSource",
      "outputs": [
        {
          "name": "sourceChain",
          "type": "string"
        },
        {
          "name": "sourceAddress",
          "type": "string"
        }
      ],
      "payable": false,
      "stateMutability": "view",
      "type": "function"
    },
    {
      "constant": true,
      "inputs": [
        {
          "name": "_swapID",
          "type": "bytes32"
        }
      ],
      "name": "getPreimage",
      "outputs": [
        {
          "name": "preimage",
          "type": "bytes"
        }
      ],
      "payable": false,
      "stateMutability": "view",
      "type": "function"
    }
  ],
  "bytecode": "0x608060405234801561001057600080fd5b5061480e806100206000396000f3006080604052600436106100a4576000357c0100000000000000000000000000000000000000000000000000000000900463ffffffff1680630f622b04146100a95780631417c2d7146101535780631a26720c146102985780633da0e66e1461030f57806368c283031461052957806383751cfd1461055a5780638a8bef54146105d1578063aee7593c146106e7578063b419f81d14610750578063c64417981461086f575b600080fd5b3480156100b557600080fd5b506100d860048036038101908080356000191690602001909291905050506108a0565b6040518080602001828103825283818151815260200191508051906020019080838360005b838110156101185780820151818401526020810190506100fd565b50505050905090810190601f1680156101455780820380516001836020036101000a031916815260200191505b509250505060405180910390f35b34801561015f57600080fd5b50610296600480360381019080803560001916906020019092919080359060200190929190803573ffffffffffffffffffffffffffffffffffffffff169060200190929190803590602001908201803590602001908080601f0160208091040260200160405190810160405280939291908181526020018383808284378201915050505050509192919290803590602001908201803590602001908080601f0160208091040260200160405190810160405280939291908181526020018383808284378201915050505050509192919290803560001916906020019092919080359060200190929190803590602001908201803590602001908080601f0160208091040260200160405190810160405280939291908181526020018383808284378201915050505050509192919290505050610e8d565b005b3480156102a457600080fd5b5061030d6004803603810190808035600019169060200190929190803590602001908201803590602001908080601f0160208091040260200160405190810160405280939291908181526020018383808284378201915050505050509192919290505050611313565b005b34801561031b57600080fd5b5061033e6004803603810190808035600019169060200190929190505050611caa565b604051808a81526020018981526020018873ffffffffffffffffffffffffffffffffffffffff1673ffffffffffffffffffffffffffffffffffffffff1681526020018773ffffffffffffffffffffffffffffffffffffffff1673ffffffffffffffffffffffffffffffffffffffff168152602001866000191660001916815260200180602001806020018560058111156103d457fe5b60ff16815260200180602001848103845288818151815260200191508051906020019080838360005b838110156104185780820151818401526020810190506103fd565b50505050905090810190601f1680156104455780820380516001836020036101000a031916815260200191505b50848103835287818151815260200191508051906020019080838360005b8381101561047e578082015181840152602081019050610463565b50505050905090810190601f1680156104ab5780820380516001836020036101000a031916815260200191505b50848103825285818151815260200191508051906020019080838360005b838110156104e45780820151818401526020810190506104c9565b50505050905090810190601f1680156105115780820380516001836020036101000a031916815260200191505b509c5050505050505050505050505060405180910390f35b34801561053557600080fd5b506105586004803603810190808035600019169060200190929190505050612261565b005b34801561056657600080fd5b506105cf6004803603810190808035600019169060200190929190803590602001908201803590602001908080601f0160208091040260200160405190810160405280939291908181526020018383808284378201915050505050509192919290505050612d0d565b005b3480156105dd57600080fd5b506106006004803603810190808035600019169060200190929190505050612ed9565b604051808060200180602001838103835285818151815260200191508051906020019080838360005b83811015610644578082015181840152602081019050610629565b50505050905090810190601f1680156106715780820380516001836020036101000a031916815260200191505b50838103825284818151815260200191508051906020019080838360005b838110156106aa57808201518184015260208101905061068f565b50505050905090810190601f1680156106d75780820380516001836020036101000a031916815260200191505b5094505050505060405180910390f35b3480156106f357600080fd5b50610732600480360381019080803573ffffffffffffffffffffffffffffffffffffffff1690602001909291908035906020019092919050505061341b565b60405180826000191660001916815260200191505060405180910390f35b34801561075c57600080fd5b5061086d600480360381019080803560001916906020019092919080359060200190929190803573ffffffffffffffffffffffffffffffffffffffff169060200190929190803573ffffffffffffffffffffffffffffffffffffffff169060200190929190803560001916906020019092919080359060200190929190803590602001908201803590602001908080601f0160208091040260200160405190810160405280939291908181526020018383808284378201915050505050509192919290803590602001908201803590602001908080601f016020809104026020016040519081016040528093929190818152602001838380828437820191505050505050919291929050505061344b565b005b34801561087b57600080fd5b5061089e6004803603810190808035600019169060200190929190505050613c59565b005b60606108aa614516565b82600260058111156108b857fe5b60016000836000191660001916815260200190815260200160002060009054906101000a900460ff1660058111156108ec57fe5b141515610961576040517f08c379a00000000000000000000000000000000000000000000000000000000081526004018080602001828103825260198152602001807f53776170207374617465206d75737420626520434c4f5345440000000000000081525060200191505060405180910390fd5b600080856000191660001916815260200190815260200160002061018060405190810160405290816000820154815260200160018201548152602001600282018054600181600116156101000203166002900480601f016020809104026020016040519081016040528092919081815260200182805460018160011615610100020316600290048015610a355780601f10610a0a57610100808354040283529160200191610a35565b820191906000526020600020905b815481529060010190602001808311610a1857829003601f168201915b50505050508152602001600382018054600181600116156101000203166002900480601f016020809104026020016040519081016040528092919081815260200182805460018160011615610100020316600290048015610ad75780601f10610aac57610100808354040283529160200191610ad7565b820191906000526020600020905b815481529060010190602001808311610aba57829003601f168201915b505050505081526020016004820160009054906101000a900473ffffffffffffffffffffffffffffffffffffffff1673ffffffffffffffffffffffffffffffffffffffff1673ffffffffffffffffffffffffffffffffffffffff1681526020016005820160009054906101000a900473ffffffffffffffffffffffffffffffffffffffff1673ffffffffffffffffffffffffffffffffffffffff1673ffffffffffffffffffffffffffffffffffffffff1681526020016006820160009054906101000a900473ffffffffffffffffffffffffffffffffffffffff1673ffffffffffffffffffffffffffffffffffffffff1673ffffffffffffffffffffffffffffffffffffffff168152602001600782015460001916600019168152602001600882018054600181600116156101000203166002900480601f016020809104026020016040519081016040528092919081815260200182805460018160011615610100020316600290048015610c8d5780601f10610c6257610100808354040283529160200191610c8d565b820191906000526020600020905b815481529060010190602001808311610c7057829003601f168201915b50505050508152602001600982018054600181600116156101000203166002900480601f016020809104026020016040519081016040528092919081815260200182805460018160011615610100020316600290048015610d2f5780601f10610d0457610100808354040283529160200191610d2f565b820191906000526020600020905b815481529060010190602001808311610d1257829003601f168201915b50505050508152602001600a82018054600181600116156101000203166002900480601f016020809104026020016040519081016040528092919081815260200182805460018160011615610100020316600290048015610dd15780601f10610da657610100808354040283529160200191610dd1565b820191906000526020600020905b815481529060010190602001808311610db457829003601f168201915b50505050508152602001600b82018054600181600116156101000203166002900480601f016020809104026020016040519081016040528092919081815260200182805460018160011615610100020316600290048015610e735780601f10610e4857610100808354040283529160200191610e73565b820191906000526020600020905b815481529060010190602001808311610e5657829003601f168201915b505050505081525050915081610100015192505050919050565b610e95614516565b8860006005811115610ea357fe5b60016000836000191660001916815260200190815260200160002060009054906101000a900460ff166005811115610ed757fe5b141515610f4c576040517f08c379a000000000000000000000000000000000000000000000000000000000815260040180806020018281038252601a8152602001807f53776170207374617465206d75737420626520494e56414c494400000000000081525060200191505060405180910390fd5b610180604051908101604052808581526020018a8152602001888152602001878152602001600073ffffffffffffffffffffffffffffffffffffffff1681526020018973ffffffffffffffffffffffffffffffffffffffff1681526020013373ffffffffffffffffffffffffffffffffffffffff1681526020018660001916815260200160006040519080825280601f01601f1916602001820160405280156110045781602001602082028038833980820191505090505b5081526020016040805190810160405280600881526020017f657468657265756d000000000000000000000000000000000000000000000000815250815260200160206040519081016040528060008152508152602001848152509150816000808c60001916600019168152602001908152602001600020600082015181600001556020820151816001015560408201518160020190805190602001906110ac9291906145bd565b5060608201518160030190805190602001906110c99291906145bd565b5060808201518160040160006101000a81548173ffffffffffffffffffffffffffffffffffffffff021916908373ffffffffffffffffffffffffffffffffffffffff16021790555060a08201518160050160006101000a81548173ffffffffffffffffffffffffffffffffffffffff021916908373ffffffffffffffffffffffffffffffffffffffff16021790555060c08201518160060160006101000a81548173ffffffffffffffffffffffffffffffffffffffff021916908373ffffffffffffffffffffffffffffffffffffffff16021790555060e082015181600701906000191690556101008201518160080190805190602001906111cc92919061463d565b506101208201518160090190805190602001906111ea9291906145bd565b5061014082015181600a0190805190602001906112089291906145bd565b5061016082015181600b0190805190602001906112269291906145bd565b509050506005600160008c6000191660001916815260200190815260200160002060006101000a81548160ff0219169083600581111561126257fe5b0217905550600260003373ffffffffffffffffffffffffffffffffffffffff1673ffffffffffffffffffffffffffffffffffffffff1681526020019081526020016000208a908060018154018082558091505090600182039060005260206000200160009091929091909150906000191690555089600019167f088439759be4811f63ff74c697ab98e3425cfc43f3036a710116394458a131a260405160405180910390a250505050505050505050565b61131b614516565b6000836004600581111561132b57fe5b60016000836000191660001916815260200190815260200160002060009054906101000a900460ff16600581111561135f57fe5b1415156113d4576040517f08c379a000000000000000000000000000000000000000000000000000000000815260040180806020018281038252601b8152602001807f53776170207374617465206d757374206265204143434550544544000000000081525060200191505060405180910390fd5b84846002816040518082805190602001908083835b60208310151561140e57805182526020820191506020810190506020830392506113e9565b6001836020036101000a0380198251168184511680821785525050505050509050019150506020604051808303816000865af1158015611452573d6000803e3d6000fd5b5050506040513d602081101561146757600080fd5b81019080805190602001909291905050506000191660008084600019166000191681526020019081526020016000206007015460001916141515611513576040517f08c379a00000000000000000000000000000000000000000000000000000000081526004018080602001828103825260158152602001807f53776170206d757374206861766520736563726574000000000000000000000081525060200191505060405180910390fd5b600080886000191660001916815260200190815260200160002061018060405190810160405290816000820154815260200160018201548152602001600282018054600181600116156101000203166002900480601f0160208091040260200160405190810160405280929190818152602001828054600181600116156101000203166002900480156115e75780601f106115bc576101008083540402835291602001916115e7565b820191906000526020600020905b8154815290600101906020018083116115ca57829003601f168201915b50505050508152602001600382018054600181600116156101000203166002900480601f0160208091040260200160405190810160405280929190818152602001828054600181600116156101000203166002900480156116895780601f1061165e57610100808354040283529160200191611689565b820191906000526020600020905b81548152906001019060200180831161166c57829003601f168201915b505050505081526020016004820160009054906101000a900473ffffffffffffffffffffffffffffffffffffffff1673ffffffffffffffffffffffffffffffffffffffff1673ffffffffffffffffffffffffffffffffffffffff1681526020016005820160009054906101000a900473ffffffffffffffffffffffffffffffffffffffff1673ffffffffffffffffffffffffffffffffffffffff1673ffffffffffffffffffffffffffffffffffffffff1681526020016006820160009054906101000a900473ffffffffffffffffffffffffffffffffffffffff1673ffffffffffffffffffffffffffffffffffffffff1673ffffffffffffffffffffffffffffffffffffffff168152602001600782015460001916600019168152602001600882018054600181600116156101000203166002900480601f01602080910402602001604051908101604052809291908181526020018280546001816001161561010002031660029004801561183f5780601f106118145761010080835404028352916020019161183f565b820191906000526020600020905b81548152906001019060200180831161182257829003601f168201915b50505050508152602001600982018054600181600116156101000203166002900480601f0160208091040260200160405190810160405280929190818152602001828054600181600116156101000203166002900480156118e15780601f106118b6576101008083540402835291602001916118e1565b820191906000526020600020905b8154815290600101906020018083116118c457829003601f168201915b50505050508152602001600a82018054600181600116156101000203166002900480601f0160208091040260200160405190810160405280929190818152602001828054600181600116156101000203166002900480156119835780601f1061195857610100808354040283529160200191611983565b820191906000526020600020905b81548152906001019060200180831161196657829003601f168201915b50505050508152602001600b82018054600181600116156101000203166002900480601f016020809104026020016040519081016040528092919081815260200182805460018160011615610100020316600290048015611a255780601f106119fa57610100808354040283529160200191611a25565b820191906000526020600020905b815481529060010190602001808311611a0857829003601f168201915b50505050508152505094508560008089600019166000191681526020019081526020016000206008019080519060200190611a619291906146bd565b50600260016000896000191660001916815260200190815260200160002060006101000a81548160ff02191690836005811115611a9a57fe5b02179055508460a0015193508373ffffffffffffffffffffffffffffffffffffffff1663a9059cbb8660c0015187602001516040518363ffffffff167c0100000000000000000000000000000000000000000000000000000000028152600401808373ffffffffffffffffffffffffffffffffffffffff1673ffffffffffffffffffffffffffffffffffffffff16815260200182815260200192505050602060405180830381600087803b158015611b5157600080fd5b505af1158015611b65573d6000803e3d6000fd5b505050506040513d6020811015611b7b57600080fd5b81019080805190602001909291905050501515611c00576040517f08c379a000000000000000000000000000000000000000000000000000000000815260040180806020018281038252600f8152602001807f5472616e73666572206661696c6564000000000000000000000000000000000081525060200191505060405180910390fd5b86600019167f692fd10a275135b9a2a2f5819db3d9965a5129ea2ad3640a0156dbce2fc81bdd876040518080602001828103825283818151815260200191508051906020019080838360005b83811015611c67578082015181840152602081019050611c4c565b50505050905090810190601f168015611c945780820380516001836020036101000a031916815260200191505b509250505060405180910390a250505050505050565b6000806000806000606080600060606000611cc3614516565b600160008d6000191660001916815260200190815260200160002060009054906101000a900460ff1691506000808d6000191660001916815260200190815260200160002061018060405190810160405290816000820154815260200160018201548152602001600282018054600181600116156101000203166002900480601f016020809104026020016040519081016040528092919081815260200182805460018160011615610100020316600290048015611dc25780601f10611d9757610100808354040283529160200191611dc2565b820191906000526020600020905b815481529060010190602001808311611da557829003601f168201915b50505050508152602001600382018054600181600116156101000203166002900480601f016020809104026020016040519081016040528092919081815260200182805460018160011615610100020316600290048015611e645780601f10611e3957610100808354040283529160200191611e64565b820191906000526020600020905b815481529060010190602001808311611e4757829003601f168201915b505050505081526020016004820160009054906101000a900473ffffffffffffffffffffffffffffffffffffffff1673ffffffffffffffffffffffffffffffffffffffff1673ffffffffffffffffffffffffffffffffffffffff1681526020016005820160009054906101000a900473ffffffffffffffffffffffffffffffffffffffff1673ffffffffffffffffffffffffffffffffffffffff1673ffffffffffffffffffffffffffffffffffffffff1681526020016006820160009054906101000a900473ffffffffffffffffffffffffffffffffffffffff1673ffffffffffffffffffffffffffffffffffffffff1673ffffffffffffffffffffffffffffffffffffffff168152602001600782015460001916600019168152602001600882018054600181600116156101000203166002900480601f01602080910402602001604051908101604052809291908181526020018280546001816001161561010002031660029004801561201a5780601f10611fef5761010080835404028352916020019161201a565b820191906000526020600020905b815481529060010190602001808311611ffd57829003601f168201915b50505050508152602001600982018054600181600116156101000203166002900480601f0160208091040260200160405190810160405280929190818152602001828054600181600116156101000203166002900480156120bc5780601f10612091576101008083540402835291602001916120bc565b820191906000526020600020905b81548152906001019060200180831161209f57829003601f168201915b50505050508152602001600a82018054600181600116156101000203166002900480601f01602080910402602001604051908101604052809291908181526020018280546001816001161561010002031660029004801561215e5780601f106121335761010080835404028352916020019161215e565b820191906000526020600020905b81548152906001019060200180831161214157829003601f168201915b50505050508152602001600b82018054600181600116156101000203166002900480601f0160208091040260200160405190810160405280929190818152602001828054600181600116156101000203166002900480156122005780601f106121d557610100808354040283529160200191612200565b820191906000526020600020905b8154815290600101906020018083116121e357829003601f168201915b5050505050815250509050806000015181602001518260a001518360c001518460e00151856101200151866101400151888861016001518393508292508090509a509a509a509a509a509a509a509a509a5050509193959799909294969850565b612269614516565b600082600060016000836000191660001916815260200190815260200160002060009054906101000a900460ff1690506005808111156122a557fe5b8160058111156122b157fe5b141515612326576040517f08c379a000000000000000000000000000000000000000000000000000000000815260040180806020018281038252601b8152602001807f53776170207374617465206d757374206265205052455041524544000000000081525060200191505060405180910390fd5b600080866000191660001916815260200190815260200160002061018060405190810160405290816000820154815260200160018201548152602001600282018054600181600116156101000203166002900480601f0160208091040260200160405190810160405280929190818152602001828054600181600116156101000203166002900480156123fa5780601f106123cf576101008083540402835291602001916123fa565b820191906000526020600020905b8154815290600101906020018083116123dd57829003601f168201915b50505050508152602001600382018054600181600116156101000203166002900480601f01602080910402602001604051908101604052809291908181526020018280546001816001161561010002031660029004801561249c5780601f106124715761010080835404028352916020019161249c565b820191906000526020600020905b81548152906001019060200180831161247f57829003601f168201915b505050505081526020016004820160009054906101000a900473ffffffffffffffffffffffffffffffffffffffff1673ffffffffffffffffffffffffffffffffffffffff1673ffffffffffffffffffffffffffffffffffffffff1681526020016005820160009054906101000a900473ffffffffffffffffffffffffffffffffffffffff1673ffffffffffffffffffffffffffffffffffffffff1673ffffffffffffffffffffffffffffffffffffffff1681526020016006820160009054906101000a900473ffffffffffffffffffffffffffffffffffffffff1673ffffffffffffffffffffffffffffffffffffffff1673ffffffffffffffffffffffffffffffffffffffff168152602001600782015460001916600019168152602001600882018054600181600116156101000203166002900480601f0160208091040260200160405190810160405280929190818152602001828054600181600116156101000203166002900480156126525780601f1061262757610100808354040283529160200191612652565b820191906000526020600020905b81548152906001019060200180831161263557829003601f168201915b50505050508152602001600982018054600181600116156101000203166002900480601f0160208091040260200160405190810160405280929190818152602001828054600181600116156101000203166002900480156126f45780601f106126c9576101008083540402835291602001916126f4565b820191906000526020600020905b8154815290600101906020018083116126d757829003601f168201915b50505050508152602001600a82018054600181600116156101000203166002900480601f0160208091040260200160405190810160405280929190818152602001828054600181600116156101000203166002900480156127965780601f1061276b57610100808354040283529160200191612796565b820191906000526020600020905b81548152906001019060200180831161277957829003601f168201915b50505050508152602001600b82018054600181600116156101000203166002900480601f0160208091040260200160405190810160405280929190818152602001828054600181600116156101000203166002900480156128385780601f1061280d57610100808354040283529160200191612838565b820191906000526020600020905b81548152906001019060200180831161281b57829003601f168201915b505050505081525050935033600080876000191660001916815260200190815260200160002060040160006101000a81548173ffffffffffffffffffffffffffffffffffffffff021916908373ffffffffffffffffffffffffffffffffffffffff1602179055506001806000876000191660001916815260200190815260200160002060006101000a81548160ff021916908360058111156128d657fe5b0217905550600260003373ffffffffffffffffffffffffffffffffffffffff1673ffffffffffffffffffffffffffffffffffffffff1681526020019081526020016000208590806001815401808255809150509060018203906000526020600020016000909192909190915090600019169055508360a0015192508273ffffffffffffffffffffffffffffffffffffffff1663dd62ed3e33306040518363ffffffff167c0100000000000000000000000000000000000000000000000000000000028152600401808373ffffffffffffffffffffffffffffffffffffffff1673ffffffffffffffffffffffffffffffffffffffff1681526020018273ffffffffffffffffffffffffffffffffffffffff1673ffffffffffffffffffffffffffffffffffffffff16815260200192505050602060405180830381600087803b158015612a2057600080fd5b505af1158015612a34573d6000803e3d6000fd5b505050506040513d6020811015612a4a57600080fd5b8101908080519060200190929190505050846020015111151515612afc576040517f08c379a000000000000000000000000000000000000000000000000000000000815260040180806020018281038252602d8152602001807f56616c7565206d757374206265206c657373207468616e206f7220657175616c81526020017f20746f20616c6c6f77616e63650000000000000000000000000000000000000081525060400191505060405180910390fd5b8273ffffffffffffffffffffffffffffffffffffffff166323b872dd333087602001516040518463ffffffff167c0100000000000000000000000000000000000000000000000000000000028152600401808473ffffffffffffffffffffffffffffffffffffffff1673ffffffffffffffffffffffffffffffffffffffff1681526020018373ffffffffffffffffffffffffffffffffffffffff1673ffffffffffffffffffffffffffffffffffffffff1681526020018281526020019350505050602060405180830381600087803b158015612bd757600080fd5b505af1158015612beb573d6000803e3d6000fd5b505050506040513d6020811015612c0157600080fd5b81019080805190602001909291905050501515612c86576040517f08c379a000000000000000000000000000000000000000000000000000000000815260040180806020018281038252600f8152602001807f5472616e73666572206661696c6564000000000000000000000000000000000081525060200191505060405180910390fd5b84600019167f6ed79a08bf5c8a7d4a330df315e4ac386627ecafbe5d2bfd6654237d967b24f38560c001518660e00151604051808373ffffffffffffffffffffffffffffffffffffffff1673ffffffffffffffffffffffffffffffffffffffff16815260200182600019166000191681526020019250505060405180910390a25050505050565b8160016005811115612d1b57fe5b60016000836000191660001916815260200190815260200160002060009054906101000a900460ff166005811115612d4f57fe5b141515612dc4576040517f08c379a00000000000000000000000000000000000000000000000000000000081526004018080602001828103825260178152602001807f53776170207374617465206d757374206265204f50454e00000000000000000081525060200191505060405180910390fd5b816000808560001916600019168152602001908152602001600020600b019080519060200190612df592919061473d565b50600460016000856000191660001916815260200190815260200160002060006101000a81548160ff02191690836005811115612e2e57fe5b021790555082600019167f4a45beed9ce9237ed9dd5d5eb6849718a91579f08bd13b6c614f22994147dd48836040518080602001828103825283818151815260200191508051906020019080838360005b83811015612e9a578082015181840152602081019050612e7f565b50505050905090810190601f168015612ec75780820380516001836020036101000a031916815260200191505b509250505060405180910390a2505050565b606080612ee4614516565b600080856000191660001916815260200190815260200160002061018060405190810160405290816000820154815260200160018201548152602001600282018054600181600116156101000203166002900480601f016020809104026020016040519081016040528092919081815260200182805460018160011615610100020316600290048015612fb85780601f10612f8d57610100808354040283529160200191612fb8565b820191906000526020600020905b815481529060010190602001808311612f9b57829003601f168201915b50505050508152602001600382018054600181600116156101000203166002900480601f01602080910402602001604051908101604052809291908181526020018280546001816001161561010002031660029004801561305a5780601f1061302f5761010080835404028352916020019161305a565b820191906000526020600020905b81548152906001019060200180831161303d57829003601f168201915b505050505081526020016004820160009054906101000a900473ffffffffffffffffffffffffffffffffffffffff1673ffffffffffffffffffffffffffffffffffffffff1673ffffffffffffffffffffffffffffffffffffffff1681526020016005820160009054906101000a900473ffffffffffffffffffffffffffffffffffffffff1673ffffffffffffffffffffffffffffffffffffffff1673ffffffffffffffffffffffffffffffffffffffff1681526020016006820160009054906101000a900473ffffffffffffffffffffffffffffffffffffffff1673ffffffffffffffffffffffffffffffffffffffff1673ffffffffffffffffffffffffffffffffffffffff168152602001600782015460001916600019168152602001600882018054600181600116156101000203166002900480601f0160208091040260200160405190810160405280929190818152602001828054600181600116156101000203166002900480156132105780601f106131e557610100808354040283529160200191613210565b820191906000526020600020905b8154815290600101906020018083116131f357829003601f168201915b50505050508152602001600982018054600181600116156101000203166002900480601f0160208091040260200160405190810160405280929190818152602001828054600181600116156101000203166002900480156132b25780601f10613287576101008083540402835291602001916132b2565b820191906000526020600020905b81548152906001019060200180831161329557829003601f168201915b50505050508152602001600a82018054600181600116156101000203166002900480601f0160208091040260200160405190810160405280929190818152602001828054600181600116156101000203166002900480156133545780601f1061332957610100808354040283529160200191613354565b820191906000526020600020905b81548152906001019060200180831161333757829003601f168201915b50505050508152602001600b82018054600181600116156101000203166002900480601f0160208091040260200160405190810160405280929190818152602001828054600181600116156101000203166002900480156133f65780601f106133cb576101008083540402835291602001916133f6565b820191906000526020600020905b8154815290600101906020018083116133d957829003601f168201915b5050505050815250509050806040015181606001518191508090509250925050915091565b60026020528160005260406000208181548110151561343657fe5b90600052602060002001600091509150505481565b6000613455614516565b896000600581111561346357fe5b60016000836000191660001916815260200190815260200160002060009054906101000a900460ff16600581111561349757fe5b14151561350c576040517f08c379a000000000000000000000000000000000000000000000000000000000815260040180806020018281038252601a8152602001807f53776170207374617465206d75737420626520494e56414c494400000000000081525060200191505060405180910390fd5b8892508273ffffffffffffffffffffffffffffffffffffffff1663dd62ed3e33306040518363ffffffff167c0100000000000000000000000000000000000000000000000000000000028152600401808373ffffffffffffffffffffffffffffffffffffffff1673ffffffffffffffffffffffffffffffffffffffff1681526020018273ffffffffffffffffffffffffffffffffffffffff1673ffffffffffffffffffffffffffffffffffffffff16815260200192505050602060405180830381600087803b1580156135de57600080fd5b505af11580156135f2573d6000803e3d6000fd5b505050506040513d602081101561360857600080fd5b81019080805190602001909291905050508a111515156136b6576040517f08c379a000000000000000000000000000000000000000000000000000000000815260040180806020018281038252602d8152602001807f56616c7565206d757374206265206c657373207468616e206f7220657175616c81526020017f20746f20616c6c6f77616e63650000000000000000000000000000000000000081525060400191505060405180910390fd5b8273ffffffffffffffffffffffffffffffffffffffff166323b872dd33308d6040518463ffffffff167c0100000000000000000000000000000000000000000000000000000000028152600401808473ffffffffffffffffffffffffffffffffffffffff1673ffffffffffffffffffffffffffffffffffffffff1681526020018373ffffffffffffffffffffffffffffffffffffffff1673ffffffffffffffffffffffffffffffffffffffff1681526020018281526020019350505050602060405180830381600087803b15801561378d57600080fd5b505af11580156137a1573d6000803e3d6000fd5b505050506040513d60208110156137b757600080fd5b8101908080519060200190929190505050151561383c576040517f08c379a000000000000000000000000000000000000000000000000000000000815260040180806020018281038252600f8152602001807f5472616e73666572206661696c6564000000000000000000000000000000000081525060200191505060405180910390fd5b610180604051908101604052808781526020018b81526020016040805190810160405280600881526020017f657468657265756d0000000000000000000000000000000000000000000000008152508152602001602060405190810160405280600081525081526020013373ffffffffffffffffffffffffffffffffffffffff1681526020018a73ffffffffffffffffffffffffffffffffffffffff1681526020018973ffffffffffffffffffffffffffffffffffffffff1681526020018860001916815260200160006040519080825280601f01601f1916602001820160405280156139385781602001602082028038833980820191505090505b50815260200186815260200185815260200160206040519081016040528060008152508152509150816000808d60001916600019168152602001908152602001600020600082015181600001556020820151816001015560408201518160020190805190602001906139ab9291906145bd565b5060608201518160030190805190602001906139c89291906145bd565b5060808201518160040160006101000a81548173ffffffffffffffffffffffffffffffffffffffff021916908373ffffffffffffffffffffffffffffffffffffffff16021790555060a08201518160050160006101000a81548173ffffffffffffffffffffffffffffffffffffffff021916908373ffffffffffffffffffffffffffffffffffffffff16021790555060c08201518160060160006101000a81548173ffffffffffffffffffffffffffffffffffffffff021916908373ffffffffffffffffffffffffffffffffffffffff16021790555060e08201518160070190600019169055610100820151816008019080519060200190613acb92919061463d565b50610120820151816009019080519060200190613ae99291906145bd565b5061014082015181600a019080519060200190613b079291906145bd565b5061016082015181600b019080519060200190613b259291906145bd565b5090505060018060008d6000191660001916815260200190815260200160002060006101000a81548160ff02191690836005811115613b6057fe5b0217905550600260003373ffffffffffffffffffffffffffffffffffffffff1673ffffffffffffffffffffffffffffffffffffffff1681526020019081526020016000208b90806001815401808255809150509060018203906000526020600020016000909192909190915090600019169055508a600019167f6ed79a08bf5c8a7d4a330df315e4ac386627ecafbe5d2bfd6654237d967b24f38989604051808373ffffffffffffffffffffffffffffffffffffffff1673ffffffffffffffffffffffffffffffffffffffff16815260200182600019166000191681526020019250505060405180910390a25050505050505050505050565b613c61614516565b600082600060016000836000191660001916815260200190815260200160002060009054906101000a900460ff16905060046005811115613c9e57fe5b816005811115613caa57fe5b1480613ccc575060016005811115613cbe57fe5b816005811115613cca57fe5b145b1515613d66576040517f08c379a00000000000000000000000000000000000000000000000000000000081526004018080602001828103825260238152602001807f53776170207374617465206d757374206265204143434550544544206f72204f81526020017f50454e000000000000000000000000000000000000000000000000000000000081525060400191505060405180910390fd5b844260008083600019166000191681526020019081526020016000206000015411151515613e22576040517f08c379a000000000000000000000000000000000000000000000000000000000815260040180806020018281038252602f8152602001807f537761702074696d656c6f636b206d757374206265206c657373207468616e2081526020017f6f7220657175616c20746f204e4f57000000000000000000000000000000000081525060400191505060405180910390fd5b600080876000191660001916815260200190815260200160002061018060405190810160405290816000820154815260200160018201548152602001600282018054600181600116156101000203166002900480601f016020809104026020016040519081016040528092919081815260200182805460018160011615610100020316600290048015613ef65780601f10613ecb57610100808354040283529160200191613ef6565b820191906000526020600020905b815481529060010190602001808311613ed957829003601f168201915b50505050508152602001600382018054600181600116156101000203166002900480601f016020809104026020016040519081016040528092919081815260200182805460018160011615610100020316600290048015613f985780601f10613f6d57610100808354040283529160200191613f98565b820191906000526020600020905b815481529060010190602001808311613f7b57829003601f168201915b505050505081526020016004820160009054906101000a900473ffffffffffffffffffffffffffffffffffffffff1673ffffffffffffffffffffffffffffffffffffffff1673ffffffffffffffffffffffffffffffffffffffff1681526020016005820160009054906101000a900473ffffffffffffffffffffffffffffffffffffffff1673ffffffffffffffffffffffffffffffffffffffff1673ffffffffffffffffffffffffffffffffffffffff1681526020016006820160009054906101000a900473ffffffffffffffffffffffffffffffffffffffff1673ffffffffffffffffffffffffffffffffffffffff1673ffffffffffffffffffffffffffffffffffffffff168152602001600782015460001916600019168152602001600882018054600181600116156101000203166002900480601f01602080910402602001604051908101604052809291908181526020018280546001816001161561010002031660029004801561414e5780601f106141235761010080835404028352916020019161414e565b820191906000526020600020905b81548152906001019060200180831161413157829003601f168201915b50505050508152602001600982018054600181600116156101000203166002900480601f0160208091040260200160405190810160405280929190818152602001828054600181600116156101000203166002900480156141f05780601f106141c5576101008083540402835291602001916141f0565b820191906000526020600020905b8154815290600101906020018083116141d357829003601f168201915b50505050508152602001600a82018054600181600116156101000203166002900480601f0160208091040260200160405190810160405280929190818152602001828054600181600116156101000203166002900480156142925780601f1061426757610100808354040283529160200191614292565b820191906000526020600020905b81548152906001019060200180831161427557829003601f168201915b50505050508152602001600b82018054600181600116156101000203166002900480601f0160208091040260200160405190810160405280929190818152602001828054600181600116156101000203166002900480156143345780601f1061430957610100808354040283529160200191614334565b820191906000526020600020905b81548152906001019060200180831161431757829003601f168201915b5050505050815250509450600360016000886000191660001916815260200190815260200160002060006101000a81548160ff0219169083600581111561437757fe5b02179055508460a0015193508373ffffffffffffffffffffffffffffffffffffffff1663a9059cbb866080015187602001516040518363ffffffff167c0100000000000000000000000000000000000000000000000000000000028152600401808373ffffffffffffffffffffffffffffffffffffffff1673ffffffffffffffffffffffffffffffffffffffff16815260200182815260200192505050602060405180830381600087803b15801561442e57600080fd5b505af1158015614442573d6000803e3d6000fd5b505050506040513d602081101561445857600080fd5b810190808051906020019092919050505015156144dd576040517f08c379a000000000000000000000000000000000000000000000000000000000815260040180806020018281038252600f8152602001807f5472616e73666572206661696c6564000000000000000000000000000000000081525060200191505060405180910390fd5b85600019167fbddd9b693ea862fad6ecf78fd51c065be26fda94d1f3cad3a7d691453a38a73560405160405180910390a2505050505050565b6101806040519081016040528060008152602001600081526020016060815260200160608152602001600073ffffffffffffffffffffffffffffffffffffffff168152602001600073ffffffffffffffffffffffffffffffffffffffff168152602001600073ffffffffffffffffffffffffffffffffffffffff16815260200160008019168152602001606081526020016060815260200160608152602001606081525090565b828054600181600116156101000203166002900490600052602060002090601f016020900481019282601f106145fe57805160ff191683800117855561462c565b8280016001018555821561462c579182015b8281111561462b578251825591602001919060010190614610565b5b50905061463991906147bd565b5090565b828054600181600116156101000203166002900490600052602060002090601f016020900481019282601f1061467e57805160ff19168380011785556146ac565b828001600101855582156146ac579182015b828111156146ab578251825591602001919060010190614690565b5b5090506146b991906147bd565b5090565b828054600181600116156101000203166002900490600052602060002090601f016020900481019282601f106146fe57805160ff191683800117855561472c565b8280016001018555821561472c579182015b8281111561472b578251825591602001919060010190614710565b5b50905061473991906147bd565b5090565b828054600181600116156101000203166002900490600052602060002090601f016020900481019282601f1061477e57805160ff19168380011785556147ac565b828001600101855582156147ac579182015b828111156147ab578251825591602001919060010190614790565b5b5090506147b991906147bd565b5090565b6147df91905b808211156147db5760008160009055506001016147c3565b5090565b905600a165627a7a72305820329cfb833f52b34ffa75f2d9a82b0fe02407c4faf65683a737a9d83e64ef402a0029",
  "source": "pragma solidity ^0.4.23;\n\nimport \"zeppelin-solidity/contracts/token/ERC20/ERC20.sol\";\n\ncontract AtomicSwap {\n    struct Swap {\n        uint256 timelock;\n        uint256 tokenValue;\n        string sourceChain;\n        string sourceAddress;\n        address swapper;\n        address tokenAddress;\n        address swappee;\n        bytes32 hash;\n        bytes preimage;\n        string targetChain;\n        string targetAddress;\n        string holdingAddress;\n    }\n\n    enum States {\n        INVALID,\n        OPEN,\n        CLOSED,\n        EXPIRED,\n        ACCEPTED,\n        PREPARED\n    }\n\n    mapping (bytes32 => Swap) private swaps;\n    mapping (bytes32 => States) private swapStates;\n    mapping (address => bytes32[]) public swapsByAddress;\n\n    event Open(bytes32 indexed _swapID, address _swappee, bytes32 _hash);\n    event Expire(bytes32 indexed _swapID);\n    event Close(bytes32 indexed _swapID, bytes _preimage);\n    event Accept(bytes32 indexed _swapID, string _holdingAddress);\n    event Prepare(bytes32 indexed _swapID);\n\n    modifier onlyInvalidSwaps(bytes32 _swapID) {\n        require (swapStates[_swapID] == States.INVALID, \"Swap state must be INVALID\");\n        _;\n    }\n\n    modifier onlyOpenSwaps(bytes32 _swapID) {\n        require (swapStates[_swapID] == States.OPEN, \"Swap state must be OPEN\");\n        _;\n    }\n\n    modifier onlyClosedSwaps(bytes32 _swapID) {\n        require (swapStates[_swapID] == States.CLOSED, \"Swap state must be CLOSED\");\n        _;\n    }\n\n    modifier onlyAcceptedSwaps(bytes32 _swapID){\n        require(swapStates[_swapID] == States.ACCEPTED, \"Swap state must be ACCEPTED\");\n        _;\n    }\n\n    modifier onlyOpenOrAcceptedSwaps(bytes32 _swapID){\n        States state = swapStates[_swapID];\n        require(state == States.ACCEPTED || state == States.OPEN, \"Swap state must be ACCEPTED or OPEN\");\n        _;\n    }\n\n    modifier onlyExpirableSwaps(bytes32 _swapID) {\n        require (swaps[_swapID].timelock <= now, \"Swap timelock must be less than or equal to NOW\");\n        _;\n    }\n\n    modifier onlyPreparedSwaps(bytes32 _swapID){\n        States state = swapStates[_swapID];\n        require(state == States.PREPARED, \"Swap state must be PREPARED\");\n        _;\n    }\n\n    modifier onlyWithPreimage(bytes32 _swapID, bytes _preimage) {\n        require (swaps[_swapID].hash == sha256(_preimage), \"Swap must have secret\");\n        _;\n    }\n\n    modifier onlySwappee(bytes32 _swapID, address _swappee) {\n        require (swaps[_swapID].swappee == _swappee, \"Called must be swappee\");\n        _;\n    }\n\n    function prepare(\n        bytes32 _swapID, \n        uint256 _tokenValue, \n        address _tokenAddress, \n        string _sourceChain, \n        string _sourceAddress, \n        bytes32 _hash, \n        uint256 _timelock, \n        string _holdingAddress) public onlyInvalidSwaps(_swapID) {\n        Swap memory swap = Swap({\n            timelock: _timelock,\n            tokenValue: _tokenValue,\n            tokenAddress: _tokenAddress,\n            sourceChain: _sourceChain,\n            sourceAddress: _sourceAddress,\n            swapper: address(0x0),\n            swappee: msg.sender,\n            hash: _hash,\n            preimage: new bytes(0),\n            targetChain: \"ethereum\",\n            targetAddress: \"\",\n            holdingAddress: _holdingAddress\n        });\n        swaps[_swapID] = swap;\n        swapStates[_swapID] = States.PREPARED;\n        swapsByAddress[msg.sender].push(_swapID);\n        emit Prepare(_swapID);\n    }\n\n    function openPrepared(bytes32 _swapID) public onlyPreparedSwaps(_swapID){\n        Swap memory swap = swaps[_swapID];\n        swaps[_swapID].swapper = msg.sender;\n        swapStates[_swapID] = States.OPEN;\n        swapsByAddress[msg.sender].push(_swapID);\n\n        ERC20 erc20Contract = ERC20(swap.tokenAddress);\n        require(swap.tokenValue <= erc20Contract.allowance(msg.sender, address(this)), \"Value must be less than or equal to allowance\");\n        require(erc20Contract.transferFrom(msg.sender, address(this), swap.tokenValue), \"Transfer failed\");\n\n        emit Open(_swapID, swap.swappee, swap.hash);\n    }\n\n    function open(\n        bytes32 _swapID, \n        uint256 _tokenValue, \n        address _tokenAddress, \n        address _swappee, \n        bytes32 _hash, \n        uint256 _timelock, \n        string _targetChain, \n        string _targetAddress) public onlyInvalidSwaps(_swapID) {\n        // Transfer value from the swapper to this contract.\n        ERC20 erc20Contract = ERC20(_tokenAddress);\n        require(_tokenValue <= erc20Contract.allowance(msg.sender, address(this)), \"Value must be less than or equal to allowance\");\n        require(erc20Contract.transferFrom(msg.sender, address(this), _tokenValue), \"Transfer failed\");\n\n        // Store the details of the swap.\n        Swap memory swap = Swap({\n            timelock: _timelock,\n            tokenValue: _tokenValue,\n            sourceChain: \"ethereum\",\n            sourceAddress: \"\",\n            swapper: msg.sender,\n            tokenAddress: _tokenAddress,\n            swappee: _swappee,\n            hash: _hash,\n            preimage: new bytes(0),\n            targetChain: _targetChain,\n            targetAddress: _targetAddress,\n            holdingAddress: \"\"\n        });\n        swaps[_swapID] = swap;\n        swapStates[_swapID] = States.OPEN;\n        swapsByAddress[msg.sender].push(_swapID);\n        emit Open(_swapID, _swappee, _hash);\n    }\n\n    function accept(bytes32 _swapID, string _holdingAddress) public onlyOpenSwaps(_swapID) {\n        swaps[_swapID].holdingAddress = _holdingAddress;\n        swapStates[_swapID] = States.ACCEPTED;\n        emit Accept(_swapID, _holdingAddress);\n    }\n\n    function close(bytes32 _swapID, bytes _preimage) public onlyAcceptedSwaps(_swapID) onlyWithPreimage(_swapID, _preimage) {\n        // Close the swap.\n        Swap memory swap = swaps[_swapID];\n        swaps[_swapID].preimage = _preimage;\n        swapStates[_swapID] = States.CLOSED;\n\n        // Transfer the token value from this contract to the swappee.\n        ERC20 erc20Contract = ERC20(swap.tokenAddress);\n        require(erc20Contract.transfer(swap.swappee, swap.tokenValue), \"Transfer failed\");\n\n        emit Close(_swapID, _preimage);\n    }\n\n    function expire(bytes32 _swapID) public onlyOpenOrAcceptedSwaps(_swapID) onlyExpirableSwaps(_swapID) {\n        // Expire the swap.\n        Swap memory swap = swaps[_swapID];\n        swapStates[_swapID] = States.EXPIRED;\n\n        // Transfer the token value from this contract back to the swapper.\n        ERC20 erc20Contract = ERC20(swap.tokenAddress);\n        require(erc20Contract.transfer(swap.swapper, swap.tokenValue), \"Transfer failed\");\n\n        emit Expire(_swapID);\n    }\n\n    function getSwap(bytes32 _swapID) public view returns (\n        uint256 timelock, \n        uint256 tokenValue, \n        address tokenAddress, \n        address swappee, \n        bytes32 hash, \n        string targetChain, \n        string targetAddress, \n        AtomicSwap.States states, \n        string holdingAddress) {\n        AtomicSwap.States _state = swapStates[_swapID];\n        Swap memory swap = swaps[_swapID];\n        return (\n            swap.timelock, \n            swap.tokenValue, \n            swap.tokenAddress, \n            swap.swappee, \n            swap.hash, \n            swap.targetChain, \n            swap.targetAddress, \n            _state, \n            swap.holdingAddress);\n    }\n\n    function getSwapSource(bytes32 _swapID) public view returns (\n        string sourceChain,\n        string sourceAddress\n    ){\n        Swap memory swap = swaps[_swapID];\n        return (\n            swap.sourceChain,\n            swap.sourceAddress\n        );\n    }\n\n    function getPreimage(bytes32 _swapID) public view onlyClosedSwaps(_swapID) returns (bytes preimage) {\n        Swap memory swap = swaps[_swapID];\n        return swap.preimage;\n    }\n}",
  "sourcePath": "/Users/rossmcewan/Source/Dala/toa/blockchains/ethereum/contracts/AtomicSwap.sol",
  "compiler": {
    "name": "solc",
    "version": "0.4.24+commit.e67f0147.Emscripten.clang"
  },
  "schemaVersion": "2.0.1",
  "updatedAt": "2018-08-29T11:29:11.143Z"
}