{
  "contractName": "AtomicSwap",
  "abi": [
    {
      "anonymous": false,
      "inputs": [
        {
          "indexed": true,
          "name": "_swapID",
          "type": "bytes32"
        },
        {
          "indexed": false,
          "name": "_swappee",
          "type": "address"
        },
        {
          "indexed": false,
          "name": "_hash",
          "type": "bytes32"
        }
      ],
      "name": "Open",
      "type": "event"
    },
    {
      "anonymous": false,
      "inputs": [
        {
          "indexed": true,
          "name": "_swapID",
          "type": "bytes32"
        }
      ],
      "name": "Expire",
      "type": "event"
    },
    {
      "anonymous": false,
      "inputs": [
        {
          "indexed": true,
          "name": "_swapID",
          "type": "bytes32"
        },
        {
          "indexed": false,
          "name": "_preimage",
          "type": "bytes"
        }
      ],
      "name": "Close",
      "type": "event"
    },
    {
      "anonymous": false,
      "inputs": [
        {
          "indexed": true,
          "name": "_swapID",
          "type": "bytes32"
        },
        {
          "indexed": false,
          "name": "_holdingAddress",
          "type": "string"
        }
      ],
      "name": "Accept",
      "type": "event"
    },
    {
      "constant": false,
      "inputs": [
        {
          "name": "_swapID",
          "type": "bytes32"
        },
        {
          "name": "_tokenValue",
          "type": "uint256"
        },
        {
          "name": "_tokenAddress",
          "type": "address"
        },
        {
          "name": "_swappee",
          "type": "address"
        },
        {
          "name": "_hash",
          "type": "bytes32"
        },
        {
          "name": "_timelock",
          "type": "uint256"
        },
        {
          "name": "_targetChain",
          "type": "string"
        },
        {
          "name": "_targetAddress",
          "type": "string"
        }
      ],
      "name": "open",
      "outputs": [],
      "payable": false,
      "stateMutability": "nonpayable",
      "type": "function"
    },
    {
      "constant": false,
      "inputs": [
        {
          "name": "_swapID",
          "type": "bytes32"
        },
        {
          "name": "_holdingAddress",
          "type": "string"
        }
      ],
      "name": "accept",
      "outputs": [],
      "payable": false,
      "stateMutability": "nonpayable",
      "type": "function"
    },
    {
      "constant": false,
      "inputs": [
        {
          "name": "_swapID",
          "type": "bytes32"
        },
        {
          "name": "_preimage",
          "type": "bytes"
        }
      ],
      "name": "close",
      "outputs": [],
      "payable": false,
      "stateMutability": "nonpayable",
      "type": "function"
    },
    {
      "constant": false,
      "inputs": [
        {
          "name": "_swapID",
          "type": "bytes32"
        }
      ],
      "name": "expire",
      "outputs": [],
      "payable": false,
      "stateMutability": "nonpayable",
      "type": "function"
    },
    {
      "constant": true,
      "inputs": [
        {
          "name": "_swapID",
          "type": "bytes32"
        }
      ],
      "name": "getSwap",
      "outputs": [
        {
          "name": "timelock",
          "type": "uint256"
        },
        {
          "name": "tokenValue",
          "type": "uint256"
        },
        {
          "name": "tokenAddress",
          "type": "address"
        },
        {
          "name": "swappee",
          "type": "address"
        },
        {
          "name": "hash",
          "type": "bytes32"
        },
        {
          "name": "targetChain",
          "type": "string"
        },
        {
          "name": "targetAddress",
          "type": "string"
        },
        {
          "name": "states",
          "type": "uint8"
        },
        {
          "name": "holdingAddress",
          "type": "string"
        }
      ],
      "payable": false,
      "stateMutability": "view",
      "type": "function"
    },
    {
      "constant": true,
      "inputs": [
        {
          "name": "_swapID",
          "type": "bytes32"
        }
      ],
      "name": "getPreimage",
      "outputs": [
        {
          "name": "preimage",
          "type": "bytes"
        }
      ],
      "payable": false,
      "stateMutability": "view",
      "type": "function"
    }
  ],
  "bytecode": "0x608060405234801561001057600080fd5b50612a2b806100206000396000f300608060405260043610610078576000357c0100000000000000000000000000000000000000000000000000000000900463ffffffff1680630f622b041461007d5780631a26720c146101275780633da0e66e1461019e57806383751cfd146103b8578063b419f81d1461042f578063c64417981461054e575b600080fd5b34801561008957600080fd5b506100ac600480360381019080803560001916906020019092919050505061057f565b6040518080602001828103825283818151815260200191508051906020019080838360005b838110156100ec5780820151818401526020810190506100d1565b50505050905090810190601f1680156101195780820380516001836020036101000a031916815260200191505b509250505060405180910390f35b34801561013357600080fd5b5061019c6004803603810190808035600019169060200190929190803590602001908201803590602001908080601f0160208091040260200160405190810160405280939291908181526020018383808284378201915050505050509192919290505050610a27565b005b3480156101aa57600080fd5b506101cd6004803603810190808035600019169060200190929190505050611279565b604051808a81526020018981526020018873ffffffffffffffffffffffffffffffffffffffff1673ffffffffffffffffffffffffffffffffffffffff1681526020018773ffffffffffffffffffffffffffffffffffffffff1673ffffffffffffffffffffffffffffffffffffffff1681526020018660001916600019168152602001806020018060200185600481111561026357fe5b60ff16815260200180602001848103845288818151815260200191508051906020019080838360005b838110156102a757808201518184015260208101905061028c565b50505050905090810190601f1680156102d45780820380516001836020036101000a031916815260200191505b50848103835287818151815260200191508051906020019080838360005b8381101561030d5780820151818401526020810190506102f2565b50505050905090810190601f16801561033a5780820380516001836020036101000a031916815260200191505b50848103825285818151815260200191508051906020019080838360005b83811015610373578082015181840152602081019050610358565b50505050905090810190601f1680156103a05780820380516001836020036101000a031916815260200191505b509c5050505050505050505050505060405180910390f35b3480156103c457600080fd5b5061042d6004803603810190808035600019169060200190929190803590602001908201803590602001908080601f01602080910402602001604051908101604052809392919081815260200183838082843782019150505050505091929192905050506116eb565b005b34801561043b57600080fd5b5061054c600480360381019080803560001916906020019092919080359060200190929190803573ffffffffffffffffffffffffffffffffffffffff169060200190929190803573ffffffffffffffffffffffffffffffffffffffff169060200190929190803560001916906020019092919080359060200190929190803590602001908201803590602001908080601f0160208091040260200160405190810160405280939291908181526020018383808284378201915050505050509192919290803590602001908201803590602001908080601f01602080910402602001604051908101604052809392919081815260200183838082843782019150505050505091929192905050506118b7565b005b34801561055a57600080fd5b5061057d6004803603810190808035600019169060200190929190505050611fc9565b005b6060610589612741565b826002600481111561059757fe5b60016000836000191660001916815260200190815260200160002060009054906101000a900460ff1660048111156105cb57fe5b141515610640576040517f08c379a00000000000000000000000000000000000000000000000000000000081526004018080602001828103825260198152602001807f53776170207374617465206d75737420626520434c4f5345440000000000000081525060200191505060405180910390fd5b6000808560001916600019168152602001908152602001600020610140604051908101604052908160008201548152602001600182015481526020016002820160009054906101000a900473ffffffffffffffffffffffffffffffffffffffff1673ffffffffffffffffffffffffffffffffffffffff1673ffffffffffffffffffffffffffffffffffffffff1681526020016003820160009054906101000a900473ffffffffffffffffffffffffffffffffffffffff1673ffffffffffffffffffffffffffffffffffffffff1673ffffffffffffffffffffffffffffffffffffffff1681526020016004820160009054906101000a900473ffffffffffffffffffffffffffffffffffffffff1673ffffffffffffffffffffffffffffffffffffffff1673ffffffffffffffffffffffffffffffffffffffff168152602001600582015460001916600019168152602001600682018054600181600116156101000203166002900480601f0160208091040260200160405190810160405280929190818152602001828054600181600116156101000203166002900480156108285780601f106107fd57610100808354040283529160200191610828565b820191906000526020600020905b81548152906001019060200180831161080b57829003601f168201915b50505050508152602001600782018054600181600116156101000203166002900480601f0160208091040260200160405190810160405280929190818152602001828054600181600116156101000203166002900480156108ca5780601f1061089f576101008083540402835291602001916108ca565b820191906000526020600020905b8154815290600101906020018083116108ad57829003601f168201915b50505050508152602001600882018054600181600116156101000203166002900480601f01602080910402602001604051908101604052809291908181526020018280546001816001161561010002031660029004801561096c5780601f106109415761010080835404028352916020019161096c565b820191906000526020600020905b81548152906001019060200180831161094f57829003601f168201915b50505050508152602001600982018054600181600116156101000203166002900480601f016020809104026020016040519081016040528092919081815260200182805460018160011615610100020316600290048015610a0e5780601f106109e357610100808354040283529160200191610a0e565b820191906000526020600020905b8154815290600101906020018083116109f157829003601f168201915b50505050508152505091508160c0015192505050919050565b610a2f612741565b600083600480811115610a3e57fe5b60016000836000191660001916815260200190815260200160002060009054906101000a900460ff166004811115610a7257fe5b141515610ae7576040517f08c379a000000000000000000000000000000000000000000000000000000000815260040180806020018281038252601b8152602001807f53776170207374617465206d757374206265204143434550544544000000000081525060200191505060405180910390fd5b84846002816040518082805190602001908083835b602083101515610b215780518252602082019150602081019050602083039250610afc565b6001836020036101000a0380198251168184511680821785525050505050509050019150506020604051808303816000865af1158015610b65573d6000803e3d6000fd5b5050506040513d6020811015610b7a57600080fd5b81019080805190602001909291905050506000191660008084600019166000191681526020019081526020016000206005015460001916141515610c26576040517f08c379a00000000000000000000000000000000000000000000000000000000081526004018080602001828103825260158152602001807f53776170206d757374206861766520736563726574000000000000000000000081525060200191505060405180910390fd5b6000808860001916600019168152602001908152602001600020610140604051908101604052908160008201548152602001600182015481526020016002820160009054906101000a900473ffffffffffffffffffffffffffffffffffffffff1673ffffffffffffffffffffffffffffffffffffffff1673ffffffffffffffffffffffffffffffffffffffff1681526020016003820160009054906101000a900473ffffffffffffffffffffffffffffffffffffffff1673ffffffffffffffffffffffffffffffffffffffff1673ffffffffffffffffffffffffffffffffffffffff1681526020016004820160009054906101000a900473ffffffffffffffffffffffffffffffffffffffff1673ffffffffffffffffffffffffffffffffffffffff1673ffffffffffffffffffffffffffffffffffffffff168152602001600582015460001916600019168152602001600682018054600181600116156101000203166002900480601f016020809104026020016040519081016040528092919081815260200182805460018160011615610100020316600290048015610e0e5780601f10610de357610100808354040283529160200191610e0e565b820191906000526020600020905b815481529060010190602001808311610df157829003601f168201915b50505050508152602001600782018054600181600116156101000203166002900480601f016020809104026020016040519081016040528092919081815260200182805460018160011615610100020316600290048015610eb05780601f10610e8557610100808354040283529160200191610eb0565b820191906000526020600020905b815481529060010190602001808311610e9357829003601f168201915b50505050508152602001600882018054600181600116156101000203166002900480601f016020809104026020016040519081016040528092919081815260200182805460018160011615610100020316600290048015610f525780601f10610f2757610100808354040283529160200191610f52565b820191906000526020600020905b815481529060010190602001808311610f3557829003601f168201915b50505050508152602001600982018054600181600116156101000203166002900480601f016020809104026020016040519081016040528092919081815260200182805460018160011615610100020316600290048015610ff45780601f10610fc957610100808354040283529160200191610ff4565b820191906000526020600020905b815481529060010190602001808311610fd757829003601f168201915b505050505081525050945085600080896000191660001916815260200190815260200160002060060190805190602001906110309291906127da565b50600260016000896000191660001916815260200190815260200160002060006101000a81548160ff0219169083600481111561106957fe5b0217905550846060015193508373ffffffffffffffffffffffffffffffffffffffff1663a9059cbb866080015187602001516040518363ffffffff167c0100000000000000000000000000000000000000000000000000000000028152600401808373ffffffffffffffffffffffffffffffffffffffff1673ffffffffffffffffffffffffffffffffffffffff16815260200182815260200192505050602060405180830381600087803b15801561112057600080fd5b505af1158015611134573d6000803e3d6000fd5b505050506040513d602081101561114a57600080fd5b810190808051906020019092919050505015156111cf576040517f08c379a000000000000000000000000000000000000000000000000000000000815260040180806020018281038252600f8152602001807f5472616e73666572206661696c6564000000000000000000000000000000000081525060200191505060405180910390fd5b86600019167f692fd10a275135b9a2a2f5819db3d9965a5129ea2ad3640a0156dbce2fc81bdd876040518080602001828103825283818151815260200191508051906020019080838360005b8381101561123657808201518184015260208101905061121b565b50505050905090810190601f1680156112635780820380516001836020036101000a031916815260200191505b509250505060405180910390a250505050505050565b6000806000806000606080600060606000611292612741565b600160008d6000191660001916815260200190815260200160002060009054906101000a900460ff1691506000808d60001916600019168152602001908152602001600020610140604051908101604052908160008201548152602001600182015481526020016002820160009054906101000a900473ffffffffffffffffffffffffffffffffffffffff1673ffffffffffffffffffffffffffffffffffffffff1673ffffffffffffffffffffffffffffffffffffffff1681526020016003820160009054906101000a900473ffffffffffffffffffffffffffffffffffffffff1673ffffffffffffffffffffffffffffffffffffffff1673ffffffffffffffffffffffffffffffffffffffff1681526020016004820160009054906101000a900473ffffffffffffffffffffffffffffffffffffffff1673ffffffffffffffffffffffffffffffffffffffff1673ffffffffffffffffffffffffffffffffffffffff168152602001600582015460001916600019168152602001600682018054600181600116156101000203166002900480601f0160208091040260200160405190810160405280929190818152602001828054600181600116156101000203166002900480156114a55780601f1061147a576101008083540402835291602001916114a5565b820191906000526020600020905b81548152906001019060200180831161148857829003601f168201915b50505050508152602001600782018054600181600116156101000203166002900480601f0160208091040260200160405190810160405280929190818152602001828054600181600116156101000203166002900480156115475780601f1061151c57610100808354040283529160200191611547565b820191906000526020600020905b81548152906001019060200180831161152a57829003601f168201915b50505050508152602001600882018054600181600116156101000203166002900480601f0160208091040260200160405190810160405280929190818152602001828054600181600116156101000203166002900480156115e95780601f106115be576101008083540402835291602001916115e9565b820191906000526020600020905b8154815290600101906020018083116115cc57829003601f168201915b50505050508152602001600982018054600181600116156101000203166002900480601f01602080910402602001604051908101604052809291908181526020018280546001816001161561010002031660029004801561168b5780601f106116605761010080835404028352916020019161168b565b820191906000526020600020905b81548152906001019060200180831161166e57829003601f168201915b505050505081525050905080600001518160200151826060015183608001518460a001518560e00151866101000151888861012001518393508292508090509a509a509a509a509a509a509a509a509a5050509193959799909294969850565b81600160048111156116f957fe5b60016000836000191660001916815260200190815260200160002060009054906101000a900460ff16600481111561172d57fe5b1415156117a2576040517f08c379a00000000000000000000000000000000000000000000000000000000081526004018080602001828103825260178152602001807f53776170207374617465206d757374206265204f50454e00000000000000000081525060200191505060405180910390fd5b81600080856000191660001916815260200190815260200160002060090190805190602001906117d392919061285a565b50600460016000856000191660001916815260200190815260200160002060006101000a81548160ff0219169083600481111561180c57fe5b021790555082600019167f4a45beed9ce9237ed9dd5d5eb6849718a91579f08bd13b6c614f22994147dd48836040518080602001828103825283818151815260200191508051906020019080838360005b8381101561187857808201518184015260208101905061185d565b50505050905090810190601f1680156118a55780820380516001836020036101000a031916815260200191505b509250505060405180910390a2505050565b60006118c1612741565b89600060048111156118cf57fe5b60016000836000191660001916815260200190815260200160002060009054906101000a900460ff16600481111561190357fe5b141515611978576040517f08c379a000000000000000000000000000000000000000000000000000000000815260040180806020018281038252601a8152602001807f53776170207374617465206d75737420626520494e56414c494400000000000081525060200191505060405180910390fd5b8892508273ffffffffffffffffffffffffffffffffffffffff1663dd62ed3e33306040518363ffffffff167c0100000000000000000000000000000000000000000000000000000000028152600401808373ffffffffffffffffffffffffffffffffffffffff1673ffffffffffffffffffffffffffffffffffffffff1681526020018273ffffffffffffffffffffffffffffffffffffffff1673ffffffffffffffffffffffffffffffffffffffff16815260200192505050602060405180830381600087803b158015611a4a57600080fd5b505af1158015611a5e573d6000803e3d6000fd5b505050506040513d6020811015611a7457600080fd5b81019080805190602001909291905050508a11151515611b22576040517f08c379a000000000000000000000000000000000000000000000000000000000815260040180806020018281038252602d8152602001807f56616c7565206d757374206265206c657373207468616e206f7220657175616c81526020017f20746f20616c6c6f77616e63650000000000000000000000000000000000000081525060400191505060405180910390fd5b8273ffffffffffffffffffffffffffffffffffffffff166323b872dd33308d6040518463ffffffff167c0100000000000000000000000000000000000000000000000000000000028152600401808473ffffffffffffffffffffffffffffffffffffffff1673ffffffffffffffffffffffffffffffffffffffff1681526020018373ffffffffffffffffffffffffffffffffffffffff1673ffffffffffffffffffffffffffffffffffffffff1681526020018281526020019350505050602060405180830381600087803b158015611bf957600080fd5b505af1158015611c0d573d6000803e3d6000fd5b505050506040513d6020811015611c2357600080fd5b81019080805190602001909291905050501515611ca8576040517f08c379a000000000000000000000000000000000000000000000000000000000815260040180806020018281038252600f8152602001807f5472616e73666572206661696c6564000000000000000000000000000000000081525060200191505060405180910390fd5b610140604051908101604052808781526020018b81526020013373ffffffffffffffffffffffffffffffffffffffff1681526020018a73ffffffffffffffffffffffffffffffffffffffff1681526020018973ffffffffffffffffffffffffffffffffffffffff1681526020018860001916815260200160006040519080825280601f01601f191660200182016040528015611d535781602001602082028038833980820191505090505b50815260200186815260200185815260200160206040519081016040528060008152508152509150816000808d60001916600019168152602001908152602001600020600082015181600001556020820151816001015560408201518160020160006101000a81548173ffffffffffffffffffffffffffffffffffffffff021916908373ffffffffffffffffffffffffffffffffffffffff16021790555060608201518160030160006101000a81548173ffffffffffffffffffffffffffffffffffffffff021916908373ffffffffffffffffffffffffffffffffffffffff16021790555060808201518160040160006101000a81548173ffffffffffffffffffffffffffffffffffffffff021916908373ffffffffffffffffffffffffffffffffffffffff16021790555060a0820151816005019060001916905560c0820151816006019080519060200190611eab9291906128da565b5060e0820151816007019080519060200190611ec892919061295a565b50610100820151816008019080519060200190611ee692919061295a565b50610120820151816009019080519060200190611f0492919061295a565b5090505060018060008d6000191660001916815260200190815260200160002060006101000a81548160ff02191690836004811115611f3f57fe5b02179055508a600019167f6ed79a08bf5c8a7d4a330df315e4ac386627ecafbe5d2bfd6654237d967b24f38989604051808373ffffffffffffffffffffffffffffffffffffffff1673ffffffffffffffffffffffffffffffffffffffff16815260200182600019166000191681526020019250505060405180910390a25050505050505050505050565b611fd1612741565b600082600060016000836000191660001916815260200190815260200160002060009054906101000a900460ff16905060048081111561200d57fe5b81600481111561201957fe5b148061203b57506001600481111561202d57fe5b81600481111561203957fe5b145b15156120d5576040517f08c379a00000000000000000000000000000000000000000000000000000000081526004018080602001828103825260238152602001807f53776170207374617465206d757374206265204143434550544544206f72204f81526020017f50454e000000000000000000000000000000000000000000000000000000000081525060400191505060405180910390fd5b844260008083600019166000191681526020019081526020016000206000015411151515612191576040517f08c379a000000000000000000000000000000000000000000000000000000000815260040180806020018281038252602f8152602001807f537761702074696d656c6f636b206d757374206265206c657373207468616e2081526020017f6f7220657175616c20746f204e4f57000000000000000000000000000000000081525060400191505060405180910390fd5b6000808760001916600019168152602001908152602001600020610140604051908101604052908160008201548152602001600182015481526020016002820160009054906101000a900473ffffffffffffffffffffffffffffffffffffffff1673ffffffffffffffffffffffffffffffffffffffff1673ffffffffffffffffffffffffffffffffffffffff1681526020016003820160009054906101000a900473ffffffffffffffffffffffffffffffffffffffff1673ffffffffffffffffffffffffffffffffffffffff1673ffffffffffffffffffffffffffffffffffffffff1681526020016004820160009054906101000a900473ffffffffffffffffffffffffffffffffffffffff1673ffffffffffffffffffffffffffffffffffffffff1673ffffffffffffffffffffffffffffffffffffffff168152602001600582015460001916600019168152602001600682018054600181600116156101000203166002900480601f0160208091040260200160405190810160405280929190818152602001828054600181600116156101000203166002900480156123795780601f1061234e57610100808354040283529160200191612379565b820191906000526020600020905b81548152906001019060200180831161235c57829003601f168201915b50505050508152602001600782018054600181600116156101000203166002900480601f01602080910402602001604051908101604052809291908181526020018280546001816001161561010002031660029004801561241b5780601f106123f05761010080835404028352916020019161241b565b820191906000526020600020905b8154815290600101906020018083116123fe57829003601f168201915b50505050508152602001600882018054600181600116156101000203166002900480601f0160208091040260200160405190810160405280929190818152602001828054600181600116156101000203166002900480156124bd5780601f10612492576101008083540402835291602001916124bd565b820191906000526020600020905b8154815290600101906020018083116124a057829003601f168201915b50505050508152602001600982018054600181600116156101000203166002900480601f01602080910402602001604051908101604052809291908181526020018280546001816001161561010002031660029004801561255f5780601f106125345761010080835404028352916020019161255f565b820191906000526020600020905b81548152906001019060200180831161254257829003601f168201915b5050505050815250509450600360016000886000191660001916815260200190815260200160002060006101000a81548160ff021916908360048111156125a257fe5b0217905550846060015193508373ffffffffffffffffffffffffffffffffffffffff1663a9059cbb866040015187602001516040518363ffffffff167c0100000000000000000000000000000000000000000000000000000000028152600401808373ffffffffffffffffffffffffffffffffffffffff1673ffffffffffffffffffffffffffffffffffffffff16815260200182815260200192505050602060405180830381600087803b15801561265957600080fd5b505af115801561266d573d6000803e3d6000fd5b505050506040513d602081101561268357600080fd5b81019080805190602001909291905050501515612708576040517f08c379a000000000000000000000000000000000000000000000000000000000815260040180806020018281038252600f8152602001807f5472616e73666572206661696c6564000000000000000000000000000000000081525060200191505060405180910390fd5b85600019167fbddd9b693ea862fad6ecf78fd51c065be26fda94d1f3cad3a7d691453a38a73560405160405180910390a2505050505050565b610140604051908101604052806000815260200160008152602001600073ffffffffffffffffffffffffffffffffffffffff168152602001600073ffffffffffffffffffffffffffffffffffffffff168152602001600073ffffffffffffffffffffffffffffffffffffffff16815260200160008019168152602001606081526020016060815260200160608152602001606081525090565b828054600181600116156101000203166002900490600052602060002090601f016020900481019282601f1061281b57805160ff1916838001178555612849565b82800160010185558215612849579182015b8281111561284857825182559160200191906001019061282d565b5b50905061285691906129da565b5090565b828054600181600116156101000203166002900490600052602060002090601f016020900481019282601f1061289b57805160ff19168380011785556128c9565b828001600101855582156128c9579182015b828111156128c85782518255916020019190600101906128ad565b5b5090506128d691906129da565b5090565b828054600181600116156101000203166002900490600052602060002090601f016020900481019282601f1061291b57805160ff1916838001178555612949565b82800160010185558215612949579182015b8281111561294857825182559160200191906001019061292d565b5b50905061295691906129da565b5090565b828054600181600116156101000203166002900490600052602060002090601f016020900481019282601f1061299b57805160ff19168380011785556129c9565b828001600101855582156129c9579182015b828111156129c85782518255916020019190600101906129ad565b5b5090506129d691906129da565b5090565b6129fc91905b808211156129f85760008160009055506001016129e0565b5090565b905600a165627a7a723058209f74845d2666a5ebea6bd2f2b363f55f9a887f135645492a215c64074f645ddd0029",
  "source": "pragma solidity ^0.4.23;\n\nimport \"zeppelin-solidity/contracts/token/ERC20/ERC20.sol\";\n\ncontract AtomicSwap {\n    struct Swap {\n        uint256 timelock;\n        uint256 tokenValue;\n        address swapper;\n        address tokenAddress;\n        address swappee;\n        bytes32 hash;\n        bytes preimage;\n        string targetChain;\n        string targetAddress;\n        string holdingAddress;\n    }\n\n    enum States {\n        INVALID,\n        OPEN,\n        CLOSED,\n        EXPIRED,\n        ACCEPTED\n    }\n\n    mapping (bytes32 => Swap) private swaps;\n    mapping (bytes32 => States) private swapStates;\n\n    event Open(bytes32 indexed _swapID, address _swappee, bytes32 _hash);\n    event Expire(bytes32 indexed _swapID);\n    event Close(bytes32 indexed _swapID, bytes _preimage);\n    event Accept(bytes32 indexed _swapID, string _holdingAddress);\n\n    modifier onlyInvalidSwaps(bytes32 _swapID) {\n        require (swapStates[_swapID] == States.INVALID, \"Swap state must be INVALID\");\n        _;\n    }\n\n    modifier onlyOpenSwaps(bytes32 _swapID) {\n        require (swapStates[_swapID] == States.OPEN, \"Swap state must be OPEN\");\n        _;\n    }\n\n    modifier onlyClosedSwaps(bytes32 _swapID) {\n        require (swapStates[_swapID] == States.CLOSED, \"Swap state must be CLOSED\");\n        _;\n    }\n\n    modifier onlyAcceptedSwaps(bytes32 _swapID){\n        require(swapStates[_swapID] == States.ACCEPTED, \"Swap state must be ACCEPTED\");\n        _;\n    }\n\n    modifier onlyOpenOrAcceptedSwaps(bytes32 _swapID){\n        States state = swapStates[_swapID];\n        require(state == States.ACCEPTED || state == States.OPEN, \"Swap state must be ACCEPTED or OPEN\");\n        _;\n    }\n\n    modifier onlyExpirableSwaps(bytes32 _swapID) {\n        require (swaps[_swapID].timelock <= now, \"Swap timelock must be less than or equal to NOW\");\n        _;\n    }\n\n    modifier onlyWithPreimage(bytes32 _swapID, bytes _preimage) {\n        require (swaps[_swapID].hash == sha256(_preimage), \"Swap must have secret\");\n        _;\n    }\n\n    modifier onlySwappee(bytes32 _swapID, address _swappee) {\n        require (swaps[_swapID].swappee == _swappee, \"Called must be swappee\");\n        _;\n    }\n\n    function open(bytes32 _swapID, uint256 _tokenValue, address _tokenAddress, address _swappee, bytes32 _hash, uint256 _timelock, string _targetChain, string _targetAddress) public onlyInvalidSwaps(_swapID) {\n        // Transfer value from the swapper to this contract.\n        ERC20 erc20Contract = ERC20(_tokenAddress);\n        require(_tokenValue <= erc20Contract.allowance(msg.sender, address(this)), \"Value must be less than or equal to allowance\");\n        require(erc20Contract.transferFrom(msg.sender, address(this), _tokenValue), \"Transfer failed\");\n\n        // Store the details of the swap.\n        Swap memory swap = Swap({\n            timelock: _timelock,\n            tokenValue: _tokenValue,\n            swapper: msg.sender,\n            tokenAddress: _tokenAddress,\n            swappee: _swappee,\n            hash: _hash,\n            preimage: new bytes(0),\n            targetChain: _targetChain,\n            targetAddress: _targetAddress,\n            holdingAddress: \"\"\n        });\n        swaps[_swapID] = swap;\n        swapStates[_swapID] = States.OPEN;\n        emit Open(_swapID, _swappee, _hash);\n    }\n\n    function accept(bytes32 _swapID, string _holdingAddress) public onlyOpenSwaps(_swapID) {\n        swaps[_swapID].holdingAddress = _holdingAddress;\n        swapStates[_swapID] = States.ACCEPTED;\n        emit Accept(_swapID, _holdingAddress);\n    }\n\n    function close(bytes32 _swapID, bytes _preimage) public onlyAcceptedSwaps(_swapID) onlyWithPreimage(_swapID, _preimage) {\n        // Close the swap.\n        Swap memory swap = swaps[_swapID];\n        swaps[_swapID].preimage = _preimage;\n        swapStates[_swapID] = States.CLOSED;\n\n        // Transfer the token value from this contract to the swappee.\n        ERC20 erc20Contract = ERC20(swap.tokenAddress);\n        require(erc20Contract.transfer(swap.swappee, swap.tokenValue), \"Transfer failed\");\n\n        emit Close(_swapID, _preimage);\n    }\n\n    function expire(bytes32 _swapID) public onlyOpenOrAcceptedSwaps(_swapID) onlyExpirableSwaps(_swapID) {\n        // Expire the swap.\n        Swap memory swap = swaps[_swapID];\n        swapStates[_swapID] = States.EXPIRED;\n\n        // Transfer the token value from this contract back to the swapper.\n        ERC20 erc20Contract = ERC20(swap.tokenAddress);\n        require(erc20Contract.transfer(swap.swapper, swap.tokenValue), \"Transfer failed\");\n\n        emit Expire(_swapID);\n    }\n\n    function getSwap(bytes32 _swapID) public view returns (uint256 timelock, uint256 tokenValue, address tokenAddress, address swappee, bytes32 hash, string targetChain, string targetAddress, AtomicSwap.States states, string holdingAddress) {\n        AtomicSwap.States _state = swapStates[_swapID];\n        Swap memory swap = swaps[_swapID];\n        return (swap.timelock, swap.tokenValue, swap.tokenAddress, swap.swappee, swap.hash, swap.targetChain, swap.targetAddress, _state, swap.holdingAddress);\n    }\n\n    function getPreimage(bytes32 _swapID) public view onlyClosedSwaps(_swapID) returns (bytes preimage) {\n        Swap memory swap = swaps[_swapID];\n        return swap.preimage;\n    }\n}",
  "sourcePath": "/Users/rossmcewan/Source/Dala/toa/blockchains/ethereum/contracts/AtomicSwap.sol",
  "compiler": {
    "name": "solc",
    "version": "0.4.24+commit.e67f0147.Emscripten.clang"
  },
  "schemaVersion": "2.0.1",
  "updatedAt": "2018-08-22T19:09:37.856Z"
}