{
  "contractName": "AtomicSwap",
  "abi": [
    {
      "constant": true,
      "inputs": [
        {
          "name": "",
          "type": "address"
        },
        {
          "name": "",
          "type": "uint256"
        }
      ],
      "name": "swapsByAddress",
      "outputs": [
        {
          "name": "",
          "type": "bytes32"
        }
      ],
      "payable": false,
      "stateMutability": "view",
      "type": "function"
    },
    {
      "inputs": [
        {
          "name": "_erc20Address",
          "type": "address"
        }
      ],
      "payable": false,
      "stateMutability": "nonpayable",
      "type": "constructor"
    },
    {
      "anonymous": false,
      "inputs": [
        {
          "indexed": true,
          "name": "_swapID",
          "type": "bytes32"
        },
        {
          "indexed": false,
          "name": "_swappee",
          "type": "address"
        },
        {
          "indexed": false,
          "name": "_hash",
          "type": "bytes32"
        }
      ],
      "name": "Open",
      "type": "event"
    },
    {
      "anonymous": false,
      "inputs": [
        {
          "indexed": true,
          "name": "_swapID",
          "type": "bytes32"
        }
      ],
      "name": "Expire",
      "type": "event"
    },
    {
      "anonymous": false,
      "inputs": [
        {
          "indexed": true,
          "name": "_swapID",
          "type": "bytes32"
        },
        {
          "indexed": false,
          "name": "_preimage",
          "type": "bytes"
        }
      ],
      "name": "Close",
      "type": "event"
    },
    {
      "anonymous": false,
      "inputs": [
        {
          "indexed": true,
          "name": "_swapID",
          "type": "bytes32"
        },
        {
          "indexed": false,
          "name": "_holdingAddress",
          "type": "string"
        }
      ],
      "name": "Accept",
      "type": "event"
    },
    {
      "anonymous": false,
      "inputs": [
        {
          "indexed": true,
          "name": "_swapID",
          "type": "bytes32"
        }
      ],
      "name": "Prepare",
      "type": "event"
    },
    {
      "constant": false,
      "inputs": [
        {
          "name": "_operation",
          "type": "uint256"
        },
        {
          "name": "_swapID",
          "type": "bytes32"
        },
        {
          "name": "_tokenValue",
          "type": "uint256"
        },
        {
          "name": "_swappee",
          "type": "address"
        },
        {
          "name": "_hash",
          "type": "bytes32"
        },
        {
          "name": "_timelock",
          "type": "uint256"
        },
        {
          "name": "_swapType",
          "type": "string"
        },
        {
          "name": "_targetAddress",
          "type": "string"
        },
        {
          "name": "_holdingAddress",
          "type": "string"
        }
      ],
      "name": "open",
      "outputs": [],
      "payable": false,
      "stateMutability": "nonpayable",
      "type": "function"
    },
    {
      "constant": false,
      "inputs": [
        {
          "name": "_swapID",
          "type": "bytes32"
        },
        {
          "name": "_holdingAddress",
          "type": "string"
        }
      ],
      "name": "accept",
      "outputs": [],
      "payable": false,
      "stateMutability": "nonpayable",
      "type": "function"
    },
    {
      "constant": false,
      "inputs": [
        {
          "name": "_swapID",
          "type": "bytes32"
        },
        {
          "name": "_preimage",
          "type": "bytes"
        }
      ],
      "name": "close",
      "outputs": [],
      "payable": false,
      "stateMutability": "nonpayable",
      "type": "function"
    },
    {
      "constant": false,
      "inputs": [
        {
          "name": "_swapID",
          "type": "bytes32"
        }
      ],
      "name": "expire",
      "outputs": [],
      "payable": false,
      "stateMutability": "nonpayable",
      "type": "function"
    },
    {
      "constant": true,
      "inputs": [
        {
          "name": "_swapID",
          "type": "bytes32"
        }
      ],
      "name": "getSwap",
      "outputs": [
        {
          "name": "swapType",
          "type": "string"
        },
        {
          "name": "timelock",
          "type": "uint256"
        },
        {
          "name": "tokenAddress",
          "type": "address"
        },
        {
          "name": "tokenValue",
          "type": "uint256"
        },
        {
          "name": "swapper",
          "type": "address"
        },
        {
          "name": "swappee",
          "type": "address"
        },
        {
          "name": "hash",
          "type": "bytes32"
        },
        {
          "name": "targetAddress",
          "type": "string"
        },
        {
          "name": "holdingAddress",
          "type": "string"
        },
        {
          "name": "states",
          "type": "uint8"
        }
      ],
      "payable": false,
      "stateMutability": "view",
      "type": "function"
    },
    {
      "constant": true,
      "inputs": [
        {
          "name": "_swapID",
          "type": "bytes32"
        }
      ],
      "name": "getPreimage",
      "outputs": [
        {
          "name": "preimage",
          "type": "bytes"
        }
      ],
      "payable": false,
      "stateMutability": "view",
      "type": "function"
    }
  ],
  "bytecode": "0x608060405234801561001057600080fd5b50604051602080613b3783398101806040528101908080519060200190929190505050806000806101000a81548173ffffffffffffffffffffffffffffffffffffffff021916908373ffffffffffffffffffffffffffffffffffffffff16021790555080600160006101000a81548173ffffffffffffffffffffffffffffffffffffffff021916908373ffffffffffffffffffffffffffffffffffffffff16021790555050613a73806100c46000396000f300608060405260043610610083576000357c0100000000000000000000000000000000000000000000000000000000900463ffffffff1680630f622b04146100885780631a26720c1461013257806326d4a5eb146101a95780633da0e66e146102f857806383751cfd14610545578063aee7593c146105bc578063c644179814610625575b600080fd5b34801561009457600080fd5b506100b76004803603810190808035600019169060200190929190505050610656565b6040518080602001828103825283818151815260200191508051906020019080838360005b838110156100f75780820151818401526020810190506100dc565b50505050905090810190601f1680156101245780820380516001836020036101000a031916815260200191505b509250505060405180910390f35b34801561013e57600080fd5b506101a76004803603810190808035600019169060200190929190803590602001908201803590602001908080601f0160208091040260200160405190810160405280939291908181526020018383808284378201915050505050509192919290505050610aff565b005b3480156101b557600080fd5b506102f660048036038101908080359060200190929190803560001916906020019092919080359060200190929190803573ffffffffffffffffffffffffffffffffffffffff169060200190929190803560001916906020019092919080359060200190929190803590602001908201803590602001908080601f0160208091040260200160405190810160405280939291908181526020018383808284378201915050505050509192919290803590602001908201803590602001908080601f0160208091040260200160405190810160405280939291908181526020018383808284378201915050505050509192919290803590602001908201803590602001908080601f016020809104026020016040519081016040528093929190818152602001838380828437820191505050505050919291929050505061136d565b005b34801561030457600080fd5b506103276004803603810190808035600019169060200190929190505050612980565b60405180806020018b81526020018a73ffffffffffffffffffffffffffffffffffffffff1673ffffffffffffffffffffffffffffffffffffffff1681526020018981526020018873ffffffffffffffffffffffffffffffffffffffff1673ffffffffffffffffffffffffffffffffffffffff1681526020018773ffffffffffffffffffffffffffffffffffffffff1673ffffffffffffffffffffffffffffffffffffffff168152602001866000191660001916815260200180602001806020018560058111156103f357fe5b60ff16815260200184810384528e818151815260200191508051906020019080838360005b83811015610433578082015181840152602081019050610418565b50505050905090810190601f1680156104605780820380516001836020036101000a031916815260200191505b50848103835287818151815260200191508051906020019080838360005b8381101561049957808201518184015260208101905061047e565b50505050905090810190601f1680156104c65780820380516001836020036101000a031916815260200191505b50848103825286818151815260200191508051906020019080838360005b838110156104ff5780820151818401526020810190506104e4565b50505050905090810190601f16801561052c5780820380516001836020036101000a031916815260200191505b509d505050505050505050505050505060405180910390f35b34801561055157600080fd5b506105ba6004803603810190808035600019169060200190929190803590602001908201803590602001908080601f0160208091040260200160405190810160405280939291908181526020018383808284378201915050505050509192919290505050612dfa565b005b3480156105c857600080fd5b50610607600480360381019080803573ffffffffffffffffffffffffffffffffffffffff16906020019092919080359060200190929190505050612fc7565b60405180826000191660001916815260200191505060405180910390f35b34801561063157600080fd5b506106546004803603810190808035600019169060200190929190505050612ff7565b005b6060610660613789565b826002600581111561066e57fe5b60036000836000191660001916815260200190815260200160002060009054906101000a900460ff1660058111156106a257fe5b141515610717576040517f08c379a00000000000000000000000000000000000000000000000000000000081526004018080602001828103825260198152602001807f53776170207374617465206d75737420626520434c4f5345440000000000000081525060200191505060405180910390fd5b6002600085600019166000191681526020019081526020016000206101406040519081016040529081600082018054600181600116156101000203166002900480601f0160208091040260200160405190810160405280929190818152602001828054600181600116156101000203166002900480156107d85780601f106107ad576101008083540402835291602001916107d8565b820191906000526020600020905b8154815290600101906020018083116107bb57829003601f168201915b5050505050815260200160018201548152602001600282015481526020016003820160009054906101000a900473ffffffffffffffffffffffffffffffffffffffff1673ffffffffffffffffffffffffffffffffffffffff1673ffffffffffffffffffffffffffffffffffffffff1681526020016004820160009054906101000a900473ffffffffffffffffffffffffffffffffffffffff1673ffffffffffffffffffffffffffffffffffffffff1673ffffffffffffffffffffffffffffffffffffffff1681526020016005820160009054906101000a900473ffffffffffffffffffffffffffffffffffffffff1673ffffffffffffffffffffffffffffffffffffffff1673ffffffffffffffffffffffffffffffffffffffff168152602001600682015460001916600019168152602001600782018054600181600116156101000203166002900480601f0160208091040260200160405190810160405280929190818152602001828054600181600116156101000203166002900480156109a25780601f10610977576101008083540402835291602001916109a2565b820191906000526020600020905b81548152906001019060200180831161098557829003601f168201915b50505050508152602001600882018054600181600116156101000203166002900480601f016020809104026020016040519081016040528092919081815260200182805460018160011615610100020316600290048015610a445780601f10610a1957610100808354040283529160200191610a44565b820191906000526020600020905b815481529060010190602001808311610a2757829003601f168201915b50505050508152602001600982018054600181600116156101000203166002900480601f016020809104026020016040519081016040528092919081815260200182805460018160011615610100020316600290048015610ae65780601f10610abb57610100808354040283529160200191610ae6565b820191906000526020600020905b815481529060010190602001808311610ac957829003601f168201915b50505050508152505091508160e0015192505050919050565b610b07613789565b8260046005811115610b1557fe5b60036000836000191660001916815260200190815260200160002060009054906101000a900460ff166005811115610b4957fe5b141515610bbe576040517f08c379a000000000000000000000000000000000000000000000000000000000815260040180806020018281038252601b8152602001807f53776170207374617465206d757374206265204143434550544544000000000081525060200191505060405180910390fd5b83836002816040518082805190602001908083835b602083101515610bf85780518252602082019150602081019050602083039250610bd3565b6001836020036101000a0380198251168184511680821785525050505050509050019150506020604051808303816000865af1158015610c3c573d6000803e3d6000fd5b5050506040513d6020811015610c5157600080fd5b8101908080519060200190929190505050600019166002600084600019166000191681526020019081526020016000206006015460001916141515610cfe576040517f08c379a00000000000000000000000000000000000000000000000000000000081526004018080602001828103825260158152602001807f53776170206d757374206861766520736563726574000000000000000000000081525060200191505060405180910390fd5b6002600087600019166000191681526020019081526020016000206101406040519081016040529081600082018054600181600116156101000203166002900480601f016020809104026020016040519081016040528092919081815260200182805460018160011615610100020316600290048015610dbf5780601f10610d9457610100808354040283529160200191610dbf565b820191906000526020600020905b815481529060010190602001808311610da257829003601f168201915b5050505050815260200160018201548152602001600282015481526020016003820160009054906101000a900473ffffffffffffffffffffffffffffffffffffffff1673ffffffffffffffffffffffffffffffffffffffff1673ffffffffffffffffffffffffffffffffffffffff1681526020016004820160009054906101000a900473ffffffffffffffffffffffffffffffffffffffff1673ffffffffffffffffffffffffffffffffffffffff1673ffffffffffffffffffffffffffffffffffffffff1681526020016005820160009054906101000a900473ffffffffffffffffffffffffffffffffffffffff1673ffffffffffffffffffffffffffffffffffffffff1673ffffffffffffffffffffffffffffffffffffffff168152602001600682015460001916600019168152602001600782018054600181600116156101000203166002900480601f016020809104026020016040519081016040528092919081815260200182805460018160011615610100020316600290048015610f895780601f10610f5e57610100808354040283529160200191610f89565b820191906000526020600020905b815481529060010190602001808311610f6c57829003601f168201915b50505050508152602001600882018054600181600116156101000203166002900480601f01602080910402602001604051908101604052809291908181526020018280546001816001161561010002031660029004801561102b5780601f106110005761010080835404028352916020019161102b565b820191906000526020600020905b81548152906001019060200180831161100e57829003601f168201915b50505050508152602001600982018054600181600116156101000203166002900480601f0160208091040260200160405190810160405280929190818152602001828054600181600116156101000203166002900480156110cd5780601f106110a2576101008083540402835291602001916110cd565b820191906000526020600020905b8154815290600101906020018083116110b057829003601f168201915b505050505081525050935084600260008860001916600019168152602001908152602001600020600701908051906020019061110a929190613822565b50600260036000886000191660001916815260200190815260200160002060006101000a81548160ff0219169083600581111561114357fe5b0217905550600160009054906101000a900473ffffffffffffffffffffffffffffffffffffffff1673ffffffffffffffffffffffffffffffffffffffff1663a9059cbb8560a0015186604001516040518363ffffffff167c0100000000000000000000000000000000000000000000000000000000028152600401808373ffffffffffffffffffffffffffffffffffffffff1673ffffffffffffffffffffffffffffffffffffffff16815260200182815260200192505050602060405180830381600087803b15801561121557600080fd5b505af1158015611229573d6000803e3d6000fd5b505050506040513d602081101561123f57600080fd5b810190808051906020019092919050505015156112c4576040517f08c379a000000000000000000000000000000000000000000000000000000000815260040180806020018281038252600f8152602001807f5472616e73666572206661696c6564000000000000000000000000000000000081525060200191505060405180910390fd5b85600019167f692fd10a275135b9a2a2f5819db3d9965a5129ea2ad3640a0156dbce2fc81bdd866040518080602001828103825283818151815260200191508051906020019080838360005b8381101561132b578082015181840152602081019050611310565b50505050905090810190601f1680156113585780820380516001836020036101000a031916815260200191505b509250505060405180910390a2505050505050565b611375613789565b6000898b6000600181111561138657fe5b81600181111561139257fe5b600181111561139d57fe5b14156114c857600060058111156113b057fe5b60036000846000191660001916815260200190815260200160002060009054906101000a900460ff1660058111156113e457fe5b148061142d57506005808111156113f757fe5b60036000846000191660001916815260200190815260200160002060009054906101000a900460ff16600581111561142b57fe5b145b15156114c7576040517f08c379a00000000000000000000000000000000000000000000000000000000081526004018080602001828103825260268152602001807f53776170207374617465206d75737420626520494e56414c4944206f7220505281526020017f455041524544000000000000000000000000000000000000000000000000000081525060400191505060405180910390fd5b5b8c806001808111156114d657fe5b1015151561154c576040517f08c379a00000000000000000000000000000000000000000000000000000000081526004018080602001828103825260198152602001807f5f6f7065726174696f6e206d7573742062652030206f7220310000000000000081525060200191505060405180910390fd5b8d600181111561155857fe5b93506000600181111561156757fe5b84600181111561157357fe5b1415612600576000600581111561158657fe5b600360008f6000191660001916815260200190815260200160002060009054906101000a900460ff1660058111156115ba57fe5b1415611cdc57600160009054906101000a900473ffffffffffffffffffffffffffffffffffffffff1673ffffffffffffffffffffffffffffffffffffffff1663dd62ed3e33306040518363ffffffff167c0100000000000000000000000000000000000000000000000000000000028152600401808373ffffffffffffffffffffffffffffffffffffffff1673ffffffffffffffffffffffffffffffffffffffff1681526020018273ffffffffffffffffffffffffffffffffffffffff1673ffffffffffffffffffffffffffffffffffffffff16815260200192505050602060405180830381600087803b1580156116b157600080fd5b505af11580156116c5573d6000803e3d6000fd5b505050506040513d60208110156116db57600080fd5b81019080805190602001909291905050508c11151515611789576040517f08c379a000000000000000000000000000000000000000000000000000000000815260040180806020018281038252602d8152602001807f56616c7565206d757374206265206c657373207468616e206f7220657175616c81526020017f20746f20616c6c6f77616e63650000000000000000000000000000000000000081525060400191505060405180910390fd5b600160009054906101000a900473ffffffffffffffffffffffffffffffffffffffff1673ffffffffffffffffffffffffffffffffffffffff166323b872dd33308f6040518463ffffffff167c0100000000000000000000000000000000000000000000000000000000028152600401808473ffffffffffffffffffffffffffffffffffffffff1673ffffffffffffffffffffffffffffffffffffffff1681526020018373ffffffffffffffffffffffffffffffffffffffff1673ffffffffffffffffffffffffffffffffffffffff1681526020018281526020019350505050602060405180830381600087803b15801561188257600080fd5b505af1158015611896573d6000803e3d6000fd5b505050506040513d60208110156118ac57600080fd5b81019080805190602001909291905050501515611931576040517f08c379a000000000000000000000000000000000000000000000000000000000815260040180806020018281038252600f8152602001807f5472616e73666572206661696c6564000000000000000000000000000000000081525060200191505060405180910390fd5b610140604051908101604052808981526020018a81526020018d81526020013373ffffffffffffffffffffffffffffffffffffffff1681526020016000809054906101000a900473ffffffffffffffffffffffffffffffffffffffff1673ffffffffffffffffffffffffffffffffffffffff1681526020018c73ffffffffffffffffffffffffffffffffffffffff1681526020018b60001916815260200160006040519080825280601f01601f191660200182016040528015611a035781602001602082028038833980820191505090505b5081526020018881526020016020604051908101604052806000815250815250945084600260008f600019166000191681526020019081526020016000206000820151816000019080519060200190611a5d9291906138a2565b50602082015181600101556040820151816002015560608201518160030160006101000a81548173ffffffffffffffffffffffffffffffffffffffff021916908373ffffffffffffffffffffffffffffffffffffffff16021790555060808201518160040160006101000a81548173ffffffffffffffffffffffffffffffffffffffff021916908373ffffffffffffffffffffffffffffffffffffffff16021790555060a08201518160050160006101000a81548173ffffffffffffffffffffffffffffffffffffffff021916908373ffffffffffffffffffffffffffffffffffffffff16021790555060c0820151816006019060001916905560e0820151816007019080519060200190611b73929190613922565b50610100820151816008019080519060200190611b919291906138a2565b50610120820151816009019080519060200190611baf9291906138a2565b509050506001600360008f6000191660001916815260200190815260200160002060006101000a81548160ff02191690836005811115611beb57fe5b0217905550600460003373ffffffffffffffffffffffffffffffffffffffff1673ffffffffffffffffffffffffffffffffffffffff1681526020019081526020016000208d90806001815401808255809150509060018203906000526020600020016000909192909190915090600019169055508c600019167f6ed79a08bf5c8a7d4a330df315e4ac386627ecafbe5d2bfd6654237d967b24f38c8c604051808373ffffffffffffffffffffffffffffffffffffffff1673ffffffffffffffffffffffffffffffffffffffff16815260200182600019166000191681526020019250505060405180910390a2612970565b600580811115611ce857fe5b600360008f6000191660001916815260200190815260200160002060009054906101000a900460ff166005811115611d1c57fe5b14156125ff57600260008e600019166000191681526020019081526020016000206101406040519081016040529081600082018054600181600116156101000203166002900480601f016020809104026020016040519081016040528092919081815260200182805460018160011615610100020316600290048015611de35780601f10611db857610100808354040283529160200191611de3565b820191906000526020600020905b815481529060010190602001808311611dc657829003601f168201915b5050505050815260200160018201548152602001600282015481526020016003820160009054906101000a900473ffffffffffffffffffffffffffffffffffffffff1673ffffffffffffffffffffffffffffffffffffffff1673ffffffffffffffffffffffffffffffffffffffff1681526020016004820160009054906101000a900473ffffffffffffffffffffffffffffffffffffffff1673ffffffffffffffffffffffffffffffffffffffff1673ffffffffffffffffffffffffffffffffffffffff1681526020016005820160009054906101000a900473ffffffffffffffffffffffffffffffffffffffff1673ffffffffffffffffffffffffffffffffffffffff1673ffffffffffffffffffffffffffffffffffffffff168152602001600682015460001916600019168152602001600782018054600181600116156101000203166002900480601f016020809104026020016040519081016040528092919081815260200182805460018160011615610100020316600290048015611fad5780601f10611f8257610100808354040283529160200191611fad565b820191906000526020600020905b815481529060010190602001808311611f9057829003601f168201915b50505050508152602001600882018054600181600116156101000203166002900480601f01602080910402602001604051908101604052809291908181526020018280546001816001161561010002031660029004801561204f5780601f106120245761010080835404028352916020019161204f565b820191906000526020600020905b81548152906001019060200180831161203257829003601f168201915b50505050508152602001600982018054600181600116156101000203166002900480601f0160208091040260200160405190810160405280929190818152602001828054600181600116156101000203166002900480156120f15780601f106120c6576101008083540402835291602001916120f1565b820191906000526020600020905b8154815290600101906020018083116120d457829003601f168201915b505050505081525050945033600260008f6000191660001916815260200190815260200160002060030160006101000a81548173ffffffffffffffffffffffffffffffffffffffff021916908373ffffffffffffffffffffffffffffffffffffffff1602179055506001600360008f6000191660001916815260200190815260200160002060006101000a81548160ff0219169083600581111561219157fe5b0217905550600460003373ffffffffffffffffffffffffffffffffffffffff1673ffffffffffffffffffffffffffffffffffffffff1681526020019081526020016000208d9080600181540180825580915050906001820390600052602060002001600090919290919091509060001916905550600160009054906101000a900473ffffffffffffffffffffffffffffffffffffffff1673ffffffffffffffffffffffffffffffffffffffff1663dd62ed3e33306040518363ffffffff167c0100000000000000000000000000000000000000000000000000000000028152600401808373ffffffffffffffffffffffffffffffffffffffff1673ffffffffffffffffffffffffffffffffffffffff1681526020018273ffffffffffffffffffffffffffffffffffffffff1673ffffffffffffffffffffffffffffffffffffffff16815260200192505050602060405180830381600087803b1580156122f657600080fd5b505af115801561230a573d6000803e3d6000fd5b505050506040513d602081101561232057600080fd5b81019080805190602001909291905050508560400151111515156123d2576040517f08c379a000000000000000000000000000000000000000000000000000000000815260040180806020018281038252602d8152602001807f56616c7565206d757374206265206c657373207468616e206f7220657175616c81526020017f20746f20616c6c6f77616e63650000000000000000000000000000000000000081525060400191505060405180910390fd5b600160009054906101000a900473ffffffffffffffffffffffffffffffffffffffff1673ffffffffffffffffffffffffffffffffffffffff166323b872dd333088604001516040518463ffffffff167c0100000000000000000000000000000000000000000000000000000000028152600401808473ffffffffffffffffffffffffffffffffffffffff1673ffffffffffffffffffffffffffffffffffffffff1681526020018373ffffffffffffffffffffffffffffffffffffffff1673ffffffffffffffffffffffffffffffffffffffff1681526020018281526020019350505050602060405180830381600087803b1580156124cf57600080fd5b505af11580156124e3573d6000803e3d6000fd5b505050506040513d60208110156124f957600080fd5b8101908080519060200190929190505050151561257e576040517f08c379a000000000000000000000000000000000000000000000000000000000815260040180806020018281038252600f8152602001807f5472616e73666572206661696c6564000000000000000000000000000000000081525060200191505060405180910390fd5b8c600019167f6ed79a08bf5c8a7d4a330df315e4ac386627ecafbe5d2bfd6654237d967b24f38660a001518760c00151604051808373ffffffffffffffffffffffffffffffffffffffff1673ffffffffffffffffffffffffffffffffffffffff16815260200182600019166000191681526020019250505060405180910390a25b5b60018081111561260c57fe5b84600181111561261857fe5b141561296f57610140604051908101604052808981526020018a81526020018d8152602001600073ffffffffffffffffffffffffffffffffffffffff1681526020016000809054906101000a900473ffffffffffffffffffffffffffffffffffffffff1673ffffffffffffffffffffffffffffffffffffffff1681526020013373ffffffffffffffffffffffffffffffffffffffff1681526020018b60001916815260200160006040519080825280601f01601f1916602001820160405280156126f15781602001602082028038833980820191505090505b50815260200188815260200187815250945084600260008f60001916600019168152602001908152602001600020600082015181600001908051906020019061273b9291906138a2565b50602082015181600101556040820151816002015560608201518160030160006101000a81548173ffffffffffffffffffffffffffffffffffffffff021916908373ffffffffffffffffffffffffffffffffffffffff16021790555060808201518160040160006101000a81548173ffffffffffffffffffffffffffffffffffffffff021916908373ffffffffffffffffffffffffffffffffffffffff16021790555060a08201518160050160006101000a81548173ffffffffffffffffffffffffffffffffffffffff021916908373ffffffffffffffffffffffffffffffffffffffff16021790555060c0820151816006019060001916905560e0820151816007019080519060200190612851929190613922565b5061010082015181600801908051906020019061286f9291906138a2565b5061012082015181600901908051906020019061288d9291906138a2565b509050506005600360008f6000191660001916815260200190815260200160002060006101000a81548160ff021916908360058111156128c957fe5b0217905550600460003373ffffffffffffffffffffffffffffffffffffffff1673ffffffffffffffffffffffffffffffffffffffff1681526020019081526020016000208d90806001815401808255809150509060018203906000526020600020016000909192909190915090600019169055508c600019167f088439759be4811f63ff74c697ab98e3425cfc43f3036a710116394458a131a260405160405180910390a25b5b5050505050505050505050505050565b6060600080600080600080606080600080612999613789565b600360008e6000191660001916815260200190815260200160002060009054906101000a900460ff169150600260008e600019166000191681526020019081526020016000206101406040519081016040529081600082018054600181600116156101000203166002900480601f016020809104026020016040519081016040528092919081815260200182805460018160011615610100020316600290048015612a855780601f10612a5a57610100808354040283529160200191612a85565b820191906000526020600020905b815481529060010190602001808311612a6857829003601f168201915b5050505050815260200160018201548152602001600282015481526020016003820160009054906101000a900473ffffffffffffffffffffffffffffffffffffffff1673ffffffffffffffffffffffffffffffffffffffff1673ffffffffffffffffffffffffffffffffffffffff1681526020016004820160009054906101000a900473ffffffffffffffffffffffffffffffffffffffff1673ffffffffffffffffffffffffffffffffffffffff1673ffffffffffffffffffffffffffffffffffffffff1681526020016005820160009054906101000a900473ffffffffffffffffffffffffffffffffffffffff1673ffffffffffffffffffffffffffffffffffffffff1673ffffffffffffffffffffffffffffffffffffffff168152602001600682015460001916600019168152602001600782018054600181600116156101000203166002900480601f016020809104026020016040519081016040528092919081815260200182805460018160011615610100020316600290048015612c4f5780601f10612c2457610100808354040283529160200191612c4f565b820191906000526020600020905b815481529060010190602001808311612c3257829003601f168201915b50505050508152602001600882018054600181600116156101000203166002900480601f016020809104026020016040519081016040528092919081815260200182805460018160011615610100020316600290048015612cf15780601f10612cc657610100808354040283529160200191612cf1565b820191906000526020600020905b815481529060010190602001808311612cd457829003601f168201915b50505050508152602001600982018054600181600116156101000203166002900480601f016020809104026020016040519081016040528092919081815260200182805460018160011615610100020316600290048015612d935780601f10612d6857610100808354040283529160200191612d93565b820191906000526020600020905b815481529060010190602001808311612d7657829003601f168201915b5050505050815250509050806000015181602001518260800151836040015184606001518560a001518660c001518761010001518861012001518a8999508292508191509b509b509b509b509b509b509b509b509b509b5050509193959799509193959799565b8160016005811115612e0857fe5b60036000836000191660001916815260200190815260200160002060009054906101000a900460ff166005811115612e3c57fe5b141515612eb1576040517f08c379a00000000000000000000000000000000000000000000000000000000081526004018080602001828103825260178152602001807f53776170207374617465206d757374206265204f50454e00000000000000000081525060200191505060405180910390fd5b816002600085600019166000191681526020019081526020016000206009019080519060200190612ee39291906139a2565b50600460036000856000191660001916815260200190815260200160002060006101000a81548160ff02191690836005811115612f1c57fe5b021790555082600019167f4a45beed9ce9237ed9dd5d5eb6849718a91579f08bd13b6c614f22994147dd48836040518080602001828103825283818151815260200191508051906020019080838360005b83811015612f88578082015181840152602081019050612f6d565b50505050905090810190601f168015612fb55780820380516001836020036101000a031916815260200191505b509250505060405180910390a2505050565b600460205281600052604060002081815481101515612fe257fe5b90600052602060002001600091509150505481565b612fff613789565b81600060036000836000191660001916815260200190815260200160002060009054906101000a900460ff1690506004600581111561303a57fe5b81600581111561304657fe5b148061306857506001600581111561305a57fe5b81600581111561306657fe5b145b1515613102576040517f08c379a00000000000000000000000000000000000000000000000000000000081526004018080602001828103825260238152602001807f53776170207374617465206d757374206265204143434550544544206f72204f81526020017f50454e000000000000000000000000000000000000000000000000000000000081525060400191505060405180910390fd5b834260026000836000191660001916815260200190815260200160002060010154111515156131bf576040517f08c379a000000000000000000000000000000000000000000000000000000000815260040180806020018281038252602f8152602001807f537761702074696d656c6f636b206d757374206265206c657373207468616e2081526020017f6f7220657175616c20746f204e4f57000000000000000000000000000000000081525060400191505060405180910390fd5b6002600086600019166000191681526020019081526020016000206101406040519081016040529081600082018054600181600116156101000203166002900480601f0160208091040260200160405190810160405280929190818152602001828054600181600116156101000203166002900480156132805780601f1061325557610100808354040283529160200191613280565b820191906000526020600020905b81548152906001019060200180831161326357829003601f168201915b5050505050815260200160018201548152602001600282015481526020016003820160009054906101000a900473ffffffffffffffffffffffffffffffffffffffff1673ffffffffffffffffffffffffffffffffffffffff1673ffffffffffffffffffffffffffffffffffffffff1681526020016004820160009054906101000a900473ffffffffffffffffffffffffffffffffffffffff1673ffffffffffffffffffffffffffffffffffffffff1673ffffffffffffffffffffffffffffffffffffffff1681526020016005820160009054906101000a900473ffffffffffffffffffffffffffffffffffffffff1673ffffffffffffffffffffffffffffffffffffffff1673ffffffffffffffffffffffffffffffffffffffff168152602001600682015460001916600019168152602001600782018054600181600116156101000203166002900480601f01602080910402602001604051908101604052809291908181526020018280546001816001161561010002031660029004801561344a5780601f1061341f5761010080835404028352916020019161344a565b820191906000526020600020905b81548152906001019060200180831161342d57829003601f168201915b50505050508152602001600882018054600181600116156101000203166002900480601f0160208091040260200160405190810160405280929190818152602001828054600181600116156101000203166002900480156134ec5780601f106134c1576101008083540402835291602001916134ec565b820191906000526020600020905b8154815290600101906020018083116134cf57829003601f168201915b50505050508152602001600982018054600181600116156101000203166002900480601f01602080910402602001604051908101604052809291908181526020018280546001816001161561010002031660029004801561358e5780601f106135635761010080835404028352916020019161358e565b820191906000526020600020905b81548152906001019060200180831161357157829003601f168201915b50505050508152505093506003806000876000191660001916815260200190815260200160002060006101000a81548160ff021916908360058111156135d057fe5b0217905550600160009054906101000a900473ffffffffffffffffffffffffffffffffffffffff1673ffffffffffffffffffffffffffffffffffffffff1663a9059cbb856060015186604001516040518363ffffffff167c0100000000000000000000000000000000000000000000000000000000028152600401808373ffffffffffffffffffffffffffffffffffffffff1673ffffffffffffffffffffffffffffffffffffffff16815260200182815260200192505050602060405180830381600087803b1580156136a257600080fd5b505af11580156136b6573d6000803e3d6000fd5b505050506040513d60208110156136cc57600080fd5b81019080805190602001909291905050501515613751576040517f08c379a000000000000000000000000000000000000000000000000000000000815260040180806020018281038252600f8152602001807f5472616e73666572206661696c6564000000000000000000000000000000000081525060200191505060405180910390fd5b84600019167fbddd9b693ea862fad6ecf78fd51c065be26fda94d1f3cad3a7d691453a38a73560405160405180910390a25050505050565b61014060405190810160405280606081526020016000815260200160008152602001600073ffffffffffffffffffffffffffffffffffffffff168152602001600073ffffffffffffffffffffffffffffffffffffffff168152602001600073ffffffffffffffffffffffffffffffffffffffff168152602001600080191681526020016060815260200160608152602001606081525090565b828054600181600116156101000203166002900490600052602060002090601f016020900481019282601f1061386357805160ff1916838001178555613891565b82800160010185558215613891579182015b82811115613890578251825591602001919060010190613875565b5b50905061389e9190613a22565b5090565b828054600181600116156101000203166002900490600052602060002090601f016020900481019282601f106138e357805160ff1916838001178555613911565b82800160010185558215613911579182015b828111156139105782518255916020019190600101906138f5565b5b50905061391e9190613a22565b5090565b828054600181600116156101000203166002900490600052602060002090601f016020900481019282601f1061396357805160ff1916838001178555613991565b82800160010185558215613991579182015b82811115613990578251825591602001919060010190613975565b5b50905061399e9190613a22565b5090565b828054600181600116156101000203166002900490600052602060002090601f016020900481019282601f106139e357805160ff1916838001178555613a11565b82800160010185558215613a11579182015b82811115613a105782518255916020019190600101906139f5565b5b509050613a1e9190613a22565b5090565b613a4491905b80821115613a40576000816000905550600101613a28565b5090565b905600a165627a7a72305820be8371a069c0a877a21c9503a0cefa4a7d952b789ab4c734fc156f2530e5ca020029",
  "source": "pragma solidity ^0.4.23;\n\nimport \"zeppelin-solidity/contracts/token/ERC20/ERC20.sol\";\n\ncontract AtomicSwap {\n    struct Swap {\n        string swapType;\n        uint256 timelock;\n        uint256 tokenValue;\n        address swapper;\n        address tokenAddress;\n        address swappee;\n        bytes32 hash;\n        bytes preimage;\n        string targetAddress;\n        string holdingAddress;\n    }\n\n    enum States {\n        INVALID,\n        OPEN,\n        CLOSED,\n        EXPIRED,\n        ACCEPTED,\n        PREPARED\n    }\n\n    enum Operations {\n        Open,\n        Prepare\n    }\n\n    address private erc20Address;\n    ERC20 private erc20Contract;\n\n    mapping (bytes32 => Swap) private swaps;\n    mapping (bytes32 => States) private swapStates;\n    mapping (address => bytes32[]) public swapsByAddress;\n\n    event Open(bytes32 indexed _swapID, address _swappee, bytes32 _hash);\n    event Expire(bytes32 indexed _swapID);\n    event Close(bytes32 indexed _swapID, bytes _preimage);\n    event Accept(bytes32 indexed _swapID, string _holdingAddress);\n    event Prepare(bytes32 indexed _swapID);\n\n    modifier onlyInvalidSwaps(bytes32 _swapID, uint _operation) {\n        if(Operations(_operation) == Operations.Open)\n            require (swapStates[_swapID] == States.INVALID || swapStates[_swapID] == States.PREPARED, \"Swap state must be INVALID or PREPARED\");\n        _;\n    }\n\n    modifier onlyOpenSwaps(bytes32 _swapID) {\n        require (swapStates[_swapID] == States.OPEN, \"Swap state must be OPEN\");\n        _;\n    }\n\n    modifier onlyClosedSwaps(bytes32 _swapID) {\n        require (swapStates[_swapID] == States.CLOSED, \"Swap state must be CLOSED\");\n        _;\n    }\n\n    modifier onlyAcceptedSwaps(bytes32 _swapID){\n        require(swapStates[_swapID] == States.ACCEPTED, \"Swap state must be ACCEPTED\");\n        _;\n    }\n\n    modifier onlyOpenOrAcceptedSwaps(bytes32 _swapID){\n        States state = swapStates[_swapID];\n        require(state == States.ACCEPTED || state == States.OPEN, \"Swap state must be ACCEPTED or OPEN\");\n        _;\n    }\n\n    modifier onlyExpirableSwaps(bytes32 _swapID) {\n        require (swaps[_swapID].timelock <= now, \"Swap timelock must be less than or equal to NOW\");\n        _;\n    }\n\n    modifier onlyPreparedSwaps(bytes32 _swapID){\n        States state = swapStates[_swapID];\n        require(state == States.PREPARED, \"Swap state must be PREPARED\");\n        _;\n    }\n\n    modifier onlyWithPreimage(bytes32 _swapID, bytes _preimage) {\n        require (swaps[_swapID].hash == sha256(_preimage), \"Swap must have secret\");\n        _;\n    }\n\n    modifier onlySwappee(bytes32 _swapID, address _swappee) {\n        require (swaps[_swapID].swappee == _swappee, \"Called must be swappee\");\n        _;\n    }\n\n    modifier validOperation(uint _operation){\n        require(uint(Operations.Prepare) >= _operation, \"_operation must be 0 or 1\");\n        _;\n    }\n\n    constructor(address _erc20Address){\n        erc20Address = _erc20Address;\n        erc20Contract = ERC20(_erc20Address);\n    }\n\n    function open(\n        uint _operation,\n        bytes32 _swapID, \n        uint256 _tokenValue, \n        address _swappee, \n        bytes32 _hash, \n        uint256 _timelock, \n        string _swapType, \n        string _targetAddress,\n        string _holdingAddress) public onlyInvalidSwaps(_swapID, _operation) validOperation(_operation){\n\n        Swap memory swap;\n        Operations op = Operations(_operation);\n        \n        if(op == Operations.Open){\n            if(swapStates[_swapID] == States.INVALID){\n                // Transfer value from the swapper to this contract.\n                require(_tokenValue <= erc20Contract.allowance(msg.sender, address(this)), \"Value must be less than or equal to allowance\");\n                require(erc20Contract.transferFrom(msg.sender, address(this), _tokenValue), \"Transfer failed\");\n\n                // Store the details of the swap.\n                swap = Swap({\n                    timelock: _timelock,\n                    tokenValue: _tokenValue,\n                    holdingAddress: \"\",\n                    swapper: msg.sender,\n                    tokenAddress: erc20Address,\n                    swappee: _swappee,\n                    hash: _hash,\n                    preimage: new bytes(0),\n                    targetAddress: _targetAddress,\n                    swapType: _swapType\n                });\n                swaps[_swapID] = swap;\n                swapStates[_swapID] = States.OPEN;\n                swapsByAddress[msg.sender].push(_swapID);\n                emit Open(_swapID, _swappee, _hash);\n                return;\n            }\n            if(swapStates[_swapID] == States.PREPARED){\n                swap = swaps[_swapID];\n                swaps[_swapID].swapper = msg.sender;\n                swapStates[_swapID] = States.OPEN;\n                swapsByAddress[msg.sender].push(_swapID);\n\n                require(swap.tokenValue <= erc20Contract.allowance(msg.sender, address(this)), \"Value must be less than or equal to allowance\");\n                require(erc20Contract.transferFrom(msg.sender, address(this), swap.tokenValue), \"Transfer failed\");\n\n                emit Open(_swapID, swap.swappee, swap.hash);\n            }\n        }\n        if(op == Operations.Prepare){\n            swap = Swap({\n                timelock: _timelock,\n                tokenValue: _tokenValue,\n                tokenAddress: erc20Address,\n                holdingAddress: _holdingAddress,\n                swapper: address(0x0),\n                swappee: msg.sender,\n                hash: _hash,\n                preimage: new bytes(0),\n                targetAddress: _targetAddress,\n                swapType: _swapType\n            });\n            swaps[_swapID] = swap;\n            swapStates[_swapID] = States.PREPARED;\n            swapsByAddress[msg.sender].push(_swapID);\n            emit Prepare(_swapID);\n        }\n    }\n\n    function accept(bytes32 _swapID, string _holdingAddress) public onlyOpenSwaps(_swapID) {\n        swaps[_swapID].holdingAddress = _holdingAddress;\n        swapStates[_swapID] = States.ACCEPTED;\n        emit Accept(_swapID, _holdingAddress);\n    }\n\n    function close(bytes32 _swapID, bytes _preimage) public onlyAcceptedSwaps(_swapID) onlyWithPreimage(_swapID, _preimage) {\n        // Close the swap.\n        Swap memory swap = swaps[_swapID];\n        swaps[_swapID].preimage = _preimage;\n        swapStates[_swapID] = States.CLOSED;\n\n        // Transfer the token value from this contract to the swappee.\n        require(erc20Contract.transfer(swap.swappee, swap.tokenValue), \"Transfer failed\");\n\n        emit Close(_swapID, _preimage);\n    }\n\n    function expire(bytes32 _swapID) public onlyOpenOrAcceptedSwaps(_swapID) onlyExpirableSwaps(_swapID) {\n        // Expire the swap.\n        Swap memory swap = swaps[_swapID];\n        swapStates[_swapID] = States.EXPIRED;\n\n        // Transfer the token value from this contract back to the swapper.\n        require(erc20Contract.transfer(swap.swapper, swap.tokenValue), \"Transfer failed\");\n\n        emit Expire(_swapID);\n    }\n\n    function getSwap(bytes32 _swapID) public view returns (\n        string swapType,\n        uint256 timelock,\n        address tokenAddress,\n        uint256 tokenValue,\n        address swapper,\n        address swappee,\n        bytes32 hash,\n        string targetAddress,\n        string holdingAddress,\n        AtomicSwap.States states) {\n        AtomicSwap.States _state = swapStates[_swapID];\n        Swap memory swap = swaps[_swapID];\n        return (\n            swap.swapType,\n            swap.timelock, \n            swap.tokenAddress, \n            swap.tokenValue, \n            swap.swapper,\n            swap.swappee, \n            swap.hash, \n            swap.targetAddress, \n            swap.holdingAddress,\n            _state\n        );\n    }\n\n    function getPreimage(bytes32 _swapID) public view onlyClosedSwaps(_swapID) returns (bytes preimage) {\n        Swap memory swap = swaps[_swapID];\n        return swap.preimage;\n    }\n}",
  "sourcePath": "/Users/rossmcewan/Source/Dala/toa/blockchains/ethereum/contracts/AtomicSwap.sol",
  "compiler": {
    "name": "solc",
    "version": "0.4.24+commit.e67f0147.Emscripten.clang"
  },
  "schemaVersion": "2.0.1",
  "updatedAt": "2018-08-30T12:14:39.826Z"
}